:06000000020320020403CC
:03000B0002040BE1
:03001300020413D1
:03001B0002041BC1
:03002300020423B1
:03002B0002042BA1
:0300330002043391
:03003B0002043B81
:0300430002044371
:03004B0002044B61
:0300530002045351
:03005B0002045B41
:0300630002046331
:03006B0002046B21
:0300730002047311
:03007B0002047B01
:03008300020483F1
:03008B0002048BE1
:03009300020493D1
:03009B0002049BC1
:0300A3000204A3B1
:0300AB000204ABA1
:0300B3000204B391
:080320007581641200BB80FE30
:0B00BB001202AFE5EFF56130E10375C4
:0200C6006102D5
:0C00C80012F800E58224FF9200D282753D
:0400D40062007FFF48
:0500D800208202056218
:0C00DD008F061E8E07EF70F3D296E561CF
:0A00E90020E6193000167438256275
:0E00F300401012F89D90FBFEE493F5C475C317
:0401010002120400E2
:0501050012010A80FB5D
:0E010A00D296120332AF82C296BF2102801736
:05011800BF220280126D
:05011D00BF2302800D6C
:05012200BF2602800869
:05012700BF2902800366
:03012C00BF310FD1
:0E012F00C007120332AE82D007BE200280014C
:01013D00229F
:03013E00BF2100DE
:0301410050012248
:06014400EF24CE50012261
:0E014A00EF24DFFE240983C0E0EE241483C0FE
:02015800E022A3
:02015A007C7FA8
:02015C00929E71
:02015E00C1EBF3
:02016000026239
:02016200989E65
:020164009E9E5D
:020166009E9E5B
:020168009E995E
:01016A009CF8
:02016B00010190
:02016D0001018E
:02016F0001018C
:02017100020288
:02017300010287
:02017500020284
:02017700020282
:02017900020280
:01017B000281
:03017C0002029FDD
:0E017F0075824312032890FBFEE493F5821272
:05018D00032802029F9F
:0601920012F83602029F84
:0601980012F85E02029F56
:08019E00120332AE828E63757C
:0B01A6006400120332AE828E05E442BA
:0501B10063ED42641241
:0A01B6000332AE82BE200302029F56
:0101C000221C
:0E01C100120332AF82C007120332AE82D007A3
:0501CF00BE20028001CA
:0101D4002208
:0701D5008563828564830548
:0601DC0063E4B5630205B7
:0101E20064B8
:0601E3008F0812F86E0205
:0201E900029F73
:0701EB008563828564830532
:0601F20063E4B5630205A1
:0101F80064A2
:0701F90012F898120328021E
:02020000029F5B
:0B020200120332E582FE24BF500122EF
:02020D007D0072
:0C020F00C3ED9E5019ED2421F9C006C07B
:0E021B0005C001120332E582D001D005D006E5
:04022900F70D80E26B
:0E022D00C006120332AD82D006BD20697D00EE
:0A023B00C3ED9E505F856382856469
:08024500830563E4B5630205C3
:01024D00644C
:0A024E00ED2421F98708C006C00561
:0A02580012F86ED005D0060D80D913
:0E026200120332AE82C006120332AD82D00605
:05027000BD202F7D0000
:0A027500C3ED9E5025856382856469
:08027F00830563E4B563020589
:010287006412
:0E028800C006C00512F898120328D005D00653
:030296000D80DCFC
:0302990043EF1020
:02029C008001DF
:01029E00223D
:03029F000202A3B5
:0102A2002239
:0C02A300758212120328758210020328D5
:0E02AF0075A700C2AFAFD95307BF8FD975B680
:0E02BD004075B28F75A900758840758920754F
:0E02CB008E08758D9675981275FF807E5E7F89
:0102D9000123
:0502DA001EBEFF011F24
:0E02DF00EE4F70F775EF0675A41075A70F753A
:0E02ED00A41075A70075E10143D4CF43D57866
:0E02FB00E5D675D6FF75A70F43A5F543A5F50B
:0E03090043A62043A62075A700740F55E444B8
:0903170007F5E4C28875E34022F9
:0EF8000090F7FEE493FFBF3D0B90F7FFE493FB
:06F80E00FFBFC2028004EE
:04F814007F008002EF
:02F818007F016E
:03F81A008F8222B8
:0EF81D00AE82E583FF54FC600574082F500294
:02F82B00C322F6
:02F82D00D322E4
:07F82F0075B7A575B7F122C2
:04F836007E007FF4DD
:0EF83A00EF54FC601EC007C00612F82FD00667
:0EF84800D007758F038E828F8374FFF0758F4B
:07F8560000EF24FCFF80DD40
:01F85D002288
:0EF85E0012F82F758F0790000074FFF0758F61
:02F86C00002278
:0EF86E00AE82AF83C007C00612F81DD006D0D0
:0EF87C00075018C007C00612F82FD006D0079C
:0CF88A00758F018E828F83E508F0758F6A
:01F896000071
:01F89700224E
:05F89800E493F582225B
:04F89D007F007E006A
:03F8A100BE1F0087
:0EF8A40050248E047D0074DE2CF58274F73D36
:0EF8B200F583C007C00612F898AD82D006D0CC
:06F8C00007BDFF028001FC
:01F8C600221F
:03F8C7000E80D7D9
:0EF8CA0090F7FDC00712F898AE82D007BEFF7F
:03F8D800517E005E
:03F8DB00BE1F004D
:0DF8DE00500BEE90FBDE93FD62070E80F0F4
:0CF8EB0090FBFDE493FEEFB506357F00B6
:03F8F700BF1F0030
:0EF8FA0050218F057E0074DE2DFD74F73EFE5A
:0CF90800EF90FBDE93F5088D828E83C02B
:09F914000712F86ED0070F80DA2B
:0BF91D0090FBFDE493F50890F7FD025D
:02F92800F86E77
:01F92A0022BA
:01FBFE00F016
:02032800AF82A2
:05032A0010990280FBA8
:03032F008F992281
:0503320010980280FBA1
:040337008599822200
:00000001FF
