:020000040000FA

:060000000203A402040348
:03000B0002040BE1
:03001300020413D1
:03001B0002041BC1
:03002300020423B1
:03002B0002042BA1
:0300330002043391
:03003B0002043B81
:0300430002044371
:03004B0002044B61
:0300530002045351
:03005B0002045B41
:0300630002046331
:03006B0002046B21
:0300730002047311
:03007B0002047B01
:03008300020483F1
:03008B0002048BE1
:03009300020493D1
:03009B0002049BC1
:0300A3000204A3B1
:0300AB000204ABA1
:0300B3000204B391
:0803A4007581671200BB80FEA9
:0E00BB00AF84C007120333D007758433E5EF1E
:0800C900F56130E103756102ED
:0D00D100C00712FC00AE82D007EE24FF92A3
:0800DE0000D2827562007EFF72
:0500E60020820205620A
:0C00EB008E051D8D06EE70F3D2B6E561A7
:0A00F70020E6183000157438256269
:0E010100400F90FFFEE493F5C475C3028F8497
:03010F00120400D7
:0501120012011780FB43
:0E011700D2B61203B6AF82C2B6BF2102801765
:05012500BF2202801260
:05012A00BF2302800D5F
:05012F00BF260280085C
:05013400BF2902800359
:03013900BF310FC4
:0E013C00C0071203B6AE82D007BE20028001BB
:01014A002292
:03014B00BF2100D1
:03014E005001223B
:06015100EF24CE50012254
:0E015700EF24DFFE240983C0E0EE241483C0F1
:02016500E02296
:02016700898C81
:020169009FAB4A
:02016B00F4316D
:02016D005BD461
:02016F00A522C7
:02017100222248
:02017300222246
:02017500221D49
:010177002067
:02017800010183
:02017A00010181
:02017C0001027E
:02017E0002027B
:02018000010379
:02018200030375
:02018400030373
:02018600030371
:010188000373
:030189000203234B
:0E018C007582811203AC90FFFEE493F582129F
:05019A0003AC02032389
:06019F0012FC9E02032386
:0601A50012FD30020323ED
:0801AB001203B6AE828E6375EB
:0601B30064007565007593
:0C01B90066001203B6AD82E4FEFCFBEE13
:0701C5004263ED4264EC42CD
:0501CC0065EB42661224
:0D01D10003B6AE827D008D038E04E4FD4276
:0601DE0063ED4264EC42F7
:0501E40065EB4266120C
:0A01E90003B6AE82BE20030203231A
:0101F30022E9
:0E01F4001203B6AF82C0071203B6AE82D00768
:05020200BE2002800196
:0102070022D4
:05020800AB63AC64AD26
:04020D0065AE66056F
:0602110063E4B5630C0577
:0502170064B564070559
:05021C0065B565020557
:010221006676
:0C0222008F088B828C838DF0EE12FD4063
:03022E00020323A5
:05023100AB63AC64ADFD
:0402360065AE660546
:06023A0063E4B5630C054E
:0502400064B564070530
:0502450065B56502052E
:01024A00664D
:0E024B008B828C838DF0EE12FDF41203AC0258
:0202590003237D
:0B025B001203B6E582FE24BF50012212
:020266007D0019
:0C026800C3ED9E5019ED2421F9C006C022
:0E02740005C0011203B6E582D001D005D00608
:04028200F70D80E212
:0E028600C0061203B6AD82D006BD2002800174
:010294002247
:030295007567008A
:09029800C3E5679E400302032345
:0502A100AA63AB64AC90
:0402A60065AD6605D7
:0602AA0063E4B5630C05DE
:0502B00064B5640705C0
:0502B50065B5650205BE
:0102BA0066DD
:0602BB00E5672421F9872C
:0B02C100088A828B838CF0EDC00612CF
:0802CC00FD40D006056780C467
:0E02D4001203B6AE82C0061203B6AD82D0068B
:0602E200BD20417567001C
:0902E800C3E5679E5035AA63AB23
:0402F10064AC65ADE7
:0502F500660563E4B59D
:0502FA00630C0564B572
:0502FF0064070565B570
:040304006502056623
:0D0308008A828B838CF0EDC00612FDF4128A
:0803150003ACD006056780CBA4
:03031D0043EF109B
:0203200080015A
:0103220022B8
:03032300020327AB
:0103260022B4
:0C0327007582121203AC7582100203AC48
:0E03330075A700C2AFAFD95307BF8FD975B6FB
:0E0341004043B28075A900758840758920750B
:0E034F008E08758D9675981275FF807E5E7F04
:01035D00019E
:05035E001EBEFF011F9F
:0E036300EE4F70F775EF0675A41075A70F75B5
:0E037100A41075A70075E10175A70F43B140F8
:0E037F0043A14075A700AF89740F5F4420FFB3
:0E038D008F89D28ED299740F55E44401F5E4A5
:09039B00C28875A0FF75E3402241
:0EFC000090F7FEE493FFBF3D0B90F7FFE493F7
:06FC0E00FFBFC2028004EA
:04FC14007F008002EB
:02FC18007F016A
:03FC1A008F8222B4
:0EFC1D00AC82AD83AEF0FF8E008F017A007BCB
:0EFC2B0000C3740398E499E49AE49B405BE8FC
:06FC3900282890FC3F7337
:07FC3F0002FC7202FC5D02F1
:0EFC4600FC5D8C008D017A007B00C3E994F810
:09FC5400EA9400EB940040012247
:0EFC5D008C008D01E4FAFBE920E706EA700353
:03FC6B00EB600249
:02FC6E008025EF
:02FC7000C322AD
:0EFC72008C008D01E4FAFBE954FC7006EA7088
:04FC800003EB600D25
:0DFC8400E4FEFFED20E706EE7003EF6004E4
:02FC9100C3228C
:02FC9300C3228A
:02FC9500D32278
:07FC970075B7A575B7F12256
:08FC9E00AF8474035FFE7D03D7
:07FCA600ED60047C01800207
:02FCAD007C00D9
:06FCAF00EC700302FD2DC4
:0DFCB500EDC454F0FC4EF584BD0102801C2E
:05FCC200BD0202800DEF
:0DFCC700BD031E7B007CF479007A80801C58
:0AFCD4007BFF7CFF79007A8080122C
:0AFCDE007BFF7CFF79007A048008A8
:08FCE8007B017C0079007A0029
:0EFCF000C3EB99EC9A4032C007C006C005C0B5
:0EFCFE0004C003C002C00112FC97D001D00266
:0EFD0C00D003D004D005D006D007758F038B2E
:0EFD1A00828C8374FFF0758F00EC24FCFC805B
:01FD2800C713
:04FD29001D02FCA615
:03FD2D008F84229E
:0EFD300012FC97758F0390F80074FFF0758F2A
:02FD3E000022A1
:08FD400085820985830A85F024
:05FD48000BF50C8584A1
:04FD4D000DA809A94B
:0CFD51000AE4FAFBE920E706EA7003EB85
:02FD5D00601A2A
:0AFD5F00A809A90A7A007B00C3E896
:0EFD690094FFE994FFEA9400EB9400500343EA
:02FD77000B037C
:07FD7900850982850A8385DC
:05FD80000BF0E50C1280
:07FD8500FC1D506AA80BA948
:0CFD8C000CE4FAFBE8494A4B700A7403CF
:08FD9800550D4410F584803C78
:08FDA0007403550DFBA80AE5F0
:0CFDA8000BC4C8C4540F68C8540FC868CE
:0AFDB400C8F9E50CC454F049E50C51
:0EFDBE00C4540F5300F079007A007F00E4FE79
:0EFDCC00FDFCEB4200EE4201ED4202EC42076C
:02FDDA0088841B
:09FDDC0012FC97758F01AC09AD12
:0AFDE5000A8C828D83E508F0758F0B
:04FDEF0000850D84FA
:01FDF30022ED
:08FDF40085820E85830F85F066
:05FDFC0010F5118584E3
:04FE010012A80EA98C
:0CFE05000FE4FAFBE920E706EA7003EBCB
:02FE1100601A75
:0AFE1300A80EA90F7A007B00C3E8D7
:0EFE1D0094FFE994FFEA9400EB940050034335
:02FE2B001003C2
:0AFE2D00A810A9117A007B00C3742D
:0EFE37000398E499E49AE49B405DE8494A4B45
:0CFE4500700A740355124410F584803CD0
:08FE510074035512FBA80FE534
:0CFE590010C4C8C4540F68C8540FC86817
:0AFE6500C8F9E511C454F049E51195
:0EFE6F00C4540F5300F079007A007F00E4FEC7
:0EFE7D00FDFCEB4200EE4201ED4202EC4207BA
:02FE8B00888469
:0AFE8D00AC0EAD0F8C828D83E49360
:07FE9700FF8512848F822217
:04FE9E007582FF2248
:01FFFE009171
:01FFFF00FE03
:020000040001F9

:0203AC00AF821E
:0503AE0010990280FB24
:0303B3008F9922FD
:0503B60010980280FB1D
:0403BB00859982227C
:0400000500000000F7

:00000001FF

