:020000040000FA

:060000000203AB02040341
:03000B0002040BE1
:03001300020413D1
:03001B0002041BC1
:03002300020423B1
:03002B0002042BA1
:0300330002043391
:03003B0002043B81
:0300430002044371
:03004B0002044B61
:0300530002045351
:03005B0002045B41
:0300630002046331
:03006B0002046B21
:0300730002047311
:03007B0002047B01
:03008300020483F1
:03008B0002048BE1
:03009300020493D1
:03009B0002049BC1
:0300A3000204A3B1
:0300AB000204ABA1
:0300B3000204B391
:0803AB007581671200BB80FEA2
:0E00BB00AF84C00712033AD007758433E5EF17
:0800C900F56130E103756102ED
:0D00D100C00712FC00AE82D007EE24FF92A3
:0800DE0000D2827562007EFF72
:0500E60020820205620A
:0C00EB008E051D8D06EE70F3D2B6E561A7
:0A00F70020E61F30001C743825625B
:0E0101004016C00712FEA2D00790FFFEE49346
:0A010F00F5C475C3028F84120400CA
:0501190012011E80FB35
:0E011E00D2B61203BDAF82C2B6BF2102801757
:05012C00BF2202801259
:05013100BF2302800D58
:05013600BF2602800855
:05013B00BF2902800352
:03014000BF310FBD
:0E014300C0071203BDAE82D007BE20028001AD
:01015100228B
:03015200BF2100CA
:0301550050012234
:06015800EF24CE5001224D
:0E015E00EF24DFFE240983C0E0EE241483C0EA
:02016C00E0228F
:02016E0090936C
:02017000A6B235
:02017200FB3858
:0201740062DB4C
:02017600AC29B2
:02017800292933
:02017A00292931
:02017C00292434
:01017E002759
:02017F0001017C
:0201810001017A
:02018300010277
:02018500020274
:02018700010372
:0201890003036E
:02018B0003036C
:02018D0003036A
:01018F00036C
:0301900002032A3D
:0E0193007582821203B390FFFEE493F5821290
:0501A10003B302032A74
:0601A60012FC9E02032A78
:0601AC0012FD3002032ADF
:0801B2001203BDAE828E6375DD
:0601BA006400756500758C
:0C01C00066001203BDAD82E4FEFCFBEE05
:0701CC004263ED4264EC42C6
:0501D30065EB4266121D
:0D01D80003BDAE827D008D038E04E4FD4268
:0601E50063ED4264EC42F0
:0501EB0065EB42661205
:0A01F00003BDAE82BE200302032A05
:0101FA0022E2
:0E01FB001203BDAF82C0071203BDAE82D00753
:05020900BE200280018F
:01020E0022CD
:05020F00AB63AC64AD1F
:0402140065AE660568
:0602180063E4B5630C0570
:05021E0064B564070552
:0502230065B565020550
:01022800666F
:0C0229008F088B828C838DF0EE12FD405C
:0302350002032A97
:05023800AB63AC64ADF6
:04023D0065AE66053F
:0602410063E4B5630C0547
:0502470064B564070529
:05024C0065B565020527
:010251006646
:0E0252008B828C838DF0EE12FDF41203B3024A
:02026000032A6F
:0B0262001203BDE582FE24BF50012204
:02026D007D0012
:0C026F00C3ED9E5019ED2421F9C006C01B
:0E027B0005C0011203BDE582D001D005D006FA
:04028900F70D80E20B
:0E028D00C0061203BDAD82D006BD2002800166
:01029B002240
:03029C0075670083
:09029F00C3E5679E400302032A37
:0502A800AA63AB64AC89
:0402AD0065AD6605D0
:0602B10063E4B5630C05D7
:0502B70064B5640705B9
:0502BC0065B5650205B7
:0102C10066D6
:0602C200E5672421F98725
:0B02C800088A828B838CF0EDC00612C8
:0802D300FD40D006056780C460
:0E02DB001203BDAE82C0061203BDAD82D00676
:0602E900BD204175670015
:0902EF00C3E5679E5035AA63AB1C
:0402F80064AC65ADE0
:0502FC00660563E4B596
:05030100630C0564B56A
:0503060064070565B568
:04030B00650205661C
:0D030F008A828B838CF0EDC00612FDF41283
:08031C0003B3D006056780CB96
:0303240043EF1094
:02032700800153
:0103290022B1
:03032A0002032E9D
:01032D0022AD
:0C032E007582121203B37582100203B333
:0E033A0075A700C2AFAFD95307BF8FD975B6F4
:0E0348004043B28075A9007588407589207504
:0E0356008E08758D9675981275FF807E5E7FFD
:010364000197
:050365001EBEFF011F98
:0E036A00EE4F70F775EF0675A41075A70F75AE
:0E037800A41075A70075E10175A70F43B140F1
:0E03860043A14075A700AF89740F5F4420FFAC
:0E0394008F89D28ED299740F55E44401F5E49E
:0903A200C28875A0FF75E340223A
:0EFC000090F7FEE493FFBF3D0B90F7FFE493F7
:06FC0E00FFBFC2028004EA
:04FC14007F008002EB
:02FC18007F016A
:03FC1A008F8222B4
:0EFC1D00AC82AD83AEF0FF8E008F017A007BCB
:0EFC2B0000C3740398E499E49AE49B405BE8FC
:06FC3900282890FC3F7337
:07FC3F0002FC7202FC5D02F1
:0EFC4600FC5D8C008D017A007B00C3E994F810
:09FC5400EA9400EB940040012247
:0EFC5D008C008D01E4FAFBE920E706EA700353
:03FC6B00EB600249
:02FC6E008025EF
:02FC7000C322AD
:0EFC72008C008D01E4FAFBE954FC7006EA7088
:04FC800003EB600D25
:0DFC8400E4FEFFED20E706EE7003EF6004E4
:02FC9100C3228C
:02FC9300C3228A
:02FC9500D32278
:07FC970075B7A575B7F12256
:08FC9E00AF8474035FFE7D03D7
:07FCA600ED60047C01800207
:02FCAD007C00D9
:06FCAF00EC700302FD2DC4
:0DFCB500EDC454F0FC4EF584BD0102801C2E
:05FCC200BD0202800DEF
:0DFCC700BD031E7B007CF479007A80801C58
:0AFCD4007BFF7CFF79007A8080122C
:0AFCDE007BFF7CFF79007A048008A8
:08FCE8007B017C0079007A0029
:0EFCF000C3EB99EC9A4032C007C006C005C0B5
:0EFCFE0004C003C002C00112FC97D001D00266
:0EFD0C00D003D004D005D006D007758F038B2E
:0EFD1A00828C8374FFF0758F00EC24FCFC805B
:01FD2800C713
:04FD29001D02FCA615
:03FD2D008F84229E
:0EFD300012FC97758F0390F80074FFF0758F2A
:02FD3E000022A1
:08FD400085820985830A85F024
:05FD48000BF50C8584A1
:04FD4D000DA809A94B
:0CFD51000AE4FAFBE920E706EA7003EB85
:02FD5D00601A2A
:0AFD5F00A809A90A7A007B00C3E896
:0EFD690094FFE994FFEA9400EB9400500343EA
:02FD77000B037C
:07FD7900850982850A8385DC
:05FD80000BF0E50C1280
:07FD8500FC1D506AA80BA948
:0CFD8C000CE4FAFBE8494A4B700A7403CF
:08FD9800550D4410F584803C78
:08FDA0007403550DFBA80AE5F0
:0CFDA8000BC4C8C4540F68C8540FC868CE
:0AFDB400C8F9E50CC454F049E50C51
:0EFDBE00C4540F5300F079007A007F00E4FE79
:0EFDCC00FDFCEB4200EE4201ED4202EC42076C
:02FDDA0088841B
:09FDDC0012FC97758F01AC09AD12
:0AFDE5000A8C828D83E508F0758F0B
:04FDEF0000850D84FA
:01FDF30022ED
:08FDF40085820E85830F85F066
:05FDFC0010F5118584E3
:04FE010012A80EA98C
:0CFE05000FE4FAFBE920E706EA7003EBCB
:02FE1100601A75
:0AFE1300A80EA90F7A007B00C3E8D7
:0EFE1D0094FFE994FFEA9400EB940050034335
:02FE2B001003C2
:0AFE2D00A810A9117A007B00C3742D
:0EFE37000398E499E49AE49B405DE8494A4B45
:0CFE4500700A740355124410F584803CD0
:08FE510074035512FBA80FE534
:0CFE590010C4C8C4540F68C8540FC86817
:0AFE6500C8F9E511C454F049E51195
:0EFE6F00C4540F5300F079007A007F00E4FEC7
:0EFE7D00FDFCEB4200EE4201ED4202EC4207BA
:02FE8B00888469
:0AFE8D00AC0EAD0F8C828D83E49360
:07FE9700FF8512848F822217
:04FE9E007582FF2248
:04FEA2007F007E005F
:03FEA600BE1F007C
:0EFEA900502D8E047D0074DE2CFC74F73DFDA0
:0EFEB7007B007A008C828D838BF0EAC007C03E
:0EFEC5000612FDF4AD82D006D007BDFF02800C
:01FED300012D
:01FED400220B
:03FED5000E80CECE
:0EFED80090F7FDE4F5F0C00712FDF4AE82D005
:06FEE60007BEFF5A7E007A
:03FEEC00BE1F0036
:0DFEEF00500BEE90FFDE93FD62070E80F0D9
:0CFEFC0090FFFDE493FEEFB5063E7F0092
:03FF0800BF1F0018
:0EFF0B0050278F057E0074DE2DFD74F73EFE3C
:0CFF1900E4FCFBEF90FFDE93F5088D8206
:0EFF25008E838CF0EBC00712FD40D0070F80DA
:01FF3300D4F9
:0CFF340090FFFDE493F50890F7FDE4F564
:04FF4000F002FD408E
:01FF4400229A
:01FFFE00867C
:0203B300AF8217
:0503B50010990280FB1D
:0303BA008F9922F6
:0503BD0010980280FB16
:0403C2008599822275
:0400000500000000F7

:00000001FF

