:06000000020320020403CC
:03000B0002040BE1
:03001300020413D1
:03001B0002041BC1
:03002300020423B1
:03002B0002042BA1
:0300330002043391
:03003B0002043B81
:0300430002044371
:03004B0002044B61
:0300530002045351
:03005B0002045B41
:0300630002046331
:03006B0002046B21
:0300730002047311
:03007B0002047B01
:03008300020483F1
:03008B0002048BE1
:03009300020493D1
:03009B0002049BC1
:0300A3000204A3B1
:0300AB000204ABA1
:0300B3000204B391
:080320007581641200BB80FE30
:0B00BB001202ACE5EFF56130E10375C7
:0200C6006102D5
:0C00C80012F800E58224FF9200D282753D
:0400D40062007FFF48
:0500D800208202056218
:0C00DD008F061E8E07EF70F3C296E561DF
:0A00E90020E616300013743825627B
:0D00F300400D90FBFEE493F5C475C30212AE
:020100000400F9
:0501020012010780FB63
:0E010700C296120332AF82D296BF2102801739
:05011500BF2202801270
:05011A00BF2302800D6F
:05011F00BF260280086C
:05012400BF2902800369
:03012900BF310FD4
:0E012C00C007120332AE82D007BE200280014F
:01013A0022A2
:03013B00BF2100E1
:03013E005001224B
:06014100EF24CE50012264
:0E014700EF24DFFE240983C0E0EE241483C001
:02015500E022A6
:02015700797CB1
:020159008F9B7A
:02015B00BEE8FC
:02015D00FF5F42
:02015F00959B6E
:020161009B9B66
:020163009B9B64
:020165009B9667
:0101670099FE
:02016800010193
:02016A00010191
:02016C0001018F
:02016E0001028C
:0201700001028A
:02017200020287
:02017400020285
:02017600020283
:010178000284
:0301790002029CE3
:0E017C0075824E12032890FBFEE493F582126A
:05018A00032802029CA5
:06018F0012F83602029C8A
:0601950012F85E02029C5C
:08019B00120332AE828E63757F
:0B01A3006400120332AE828E05E442BD
:0501AE0063ED42641244
:0A01B3000332AE82BE200302029C5C
:0101BD00221F
:0E01BE00120332AF82C007120332AE82D007A6
:0501CC00BE20028001CD
:0101D100220B
:0701D200856382856483054B
:0601D90063E4B5630205BA
:0101DF0064BB
:0601E0008F0812F86E0208
:0201E600029C79
:0701E8008563828564830535
:0601EF0063E4B5630205A4
:0101F50064A5
:0701F60012F8981203280221
:0201FD00029C62
:0B01FF00120332E582FE24BF500122F3
:02020A007D0075
:0C020C00C3ED9E5019ED2421F9C006C07E
:0E02180005C001120332E582D001D005D006E8
:04022600F70D80E26E
:0E022A00C006120332AD82D006BD20697D00F1
:0A023800C3ED9E505F85638285646C
:08024200830563E4B5630205C6
:01024A00644F
:0A024B00ED2421F98708C006C00564
:0A02550012F86ED005D0060D80D916
:0E025F00120332AE82C006120332AD82D00608
:05026D00BD202F7D0003
:0A027200C3ED9E502585638285646C
:08027C00830563E4B56302058C
:010284006415
:0E028500C006C00512F898120328D005D00656
:030293000D80DCFF
:0302960043EF1023
:020299008001E2
:01029B002240
:03029C000202A0BB
:01029F00223C
:0C02A000758212120328758210020328D8
:0E02AC0075A700C2AFAFD95307BF8FD975B683
:0E02BA004075B28F75A9007588407589207552
:0E02C8008E08758D9675981275FF807E5E7F8C
:0102D6000126
:0502D7001EBEFF011F27
:0E02DC00EE4F70F775EF0675A41075A70F753D
:0E02EA00A41075A70075E10143D40C43A404D1
:0E02F800AFA45307F78FA4AFA45307FB8FA446
:0E03060043D56075A70F43A56075A700740F5F
:0C03140055E44407F5E4C28875E340227C
:0EF8000090F7FEE493FFBF3D0B90F7FFE493FB
:06F80E00FFBFC2028004EE
:04F814007F008002EF
:02F818007F016E
:03F81A008F8222B8
:0EF81D00AE82E583FF54FC600574082F500294
:02F82B00C322F6
:02F82D00D322E4
:07F82F0075B7A575B7F122C2
:04F836007E007FF4DD
:0EF83A00EF54FC601EC007C00612F82FD00667
:0EF84800D007758F038E828F8374FFF0758F4B
:07F8560000EF24FCFF80DD40
:01F85D002288
:0EF85E0012F82F758F0790000074FFF0758F61
:02F86C00002278
:0EF86E00AE82AF83C007C00612F81DD006D0D0
:0EF87C00075018C007C00612F82FD006D0079C
:0CF88A00758F018E828F83E508F0758F6A
:01F896000071
:01F89700224E
:05F89800E493F582225B
:01FBFE0043C3
:01FBFF00FE07
:02032800AF82A2
:05032A0010990280FBA8
:03032F008F992281
:0503320010980280FBA1
:040337008599822200
:00000001FF

