:20052F00AF827E007D00AB08AC098F021FEA603B8B828C83E0FAA3AB82AC83ED2DF9ED30BE
:20054F00E714890009E89078C3936EFDE99078C393F86AFE80D4890009E89077C393F86E16
:1B056F00FDE99077C393F96AFE80BF8D07E4FDFCEE4205EC42078D828F832270
:2077C3000000102120423063408450A560C670E781089129A14AB16BC18CD1ADE1CEF1EFA6
:2077E300123102103273225252B5429472F762D693398318B37BA35AD3BDC39CF3FFE3DE66
:20780300246234430420140164E674C744A45485A56AB54B85289509E5EEF5CFC5ACD58D25
:20782300365326721611063076D766F6569546B4B75BA77A97198738F7DFE7FED79DC7BCE5
:2078430048C458E5688678A70840186128023823C9CCD9EDE98EF9AF89489969A90AB92BA5
:207863005AF54AD47AB76A961A710A503A332A12DBFDCBDCFBBFEB9E9B798B58BB3BAB1A65
:207883006CA67C874CE45CC52C223C030C601C41EDAEFD8FCDECDDCDAD2ABD0B8D689D4925
:2078A3007E976EB65ED54EF43E132E321E510E70FF9FEFBEDFDDCFFCBF1BAF3A9F598F78E5
:2078C300918881A9B1CAA1EBD10CC12DF14EE16F108000A130C220E35004402570466067A5
:2078E30083B99398A3FBB3DAC33DD31CE37FF35E02B1129022F332D2423552146277725665
:20790300B5EAA5CB95A88589F56EE54FD52CC50D34E224C314A00481746664475424440524
:20792300A7DBB7FA879997B8E75FF77EC71DD73C26D336F2069116B06657767646155634E4
:20794300D94CC96DF90EE92F99C889E9B98AA9AB584448657806682718C008E1388228A3A4
:20796300CB7DDB5CEB3FFB1E8BF99BD8ABBBBB9A4A755A546A377A160AF11AD02AB33A9264
:20798300FD2EED0FDD6CCD4DBDAAAD8B9DE88DC97C266C075C644C453CA22C831CE00CC124
:2079A300EF1FFF3ECF5DDF7CAF9BBFBA8FD99FF86E177E364E555E742E933EB20ED11EF0E4
:20058A00AF82900339E0F5759000EF74FFF0A3F0740625752438F582E43403F583EFF074C8
:2005AA00072575FF7D01C3ED9F505AED2438F582E43403F583E0FC9000EFE0FAA3E0FB8A8A
:2005CA0000E86CF576C454F062768B027B00A87679008806E46202EE6203E9C40354F8C8E6
:2005EA00C403C868C854F8C868F9E86202E96203E576C4540FFE7C009000EFEE6AF0EC6B09
:20060A00A3F00D80A1740625752438FEE43403FF9000EFE0FCA3E0FD8C028E828F83EAF022
:20062A00740725752438F582E43403F5838D04ECF02290033874FEF09003397409F07801C7
:20064A00E2FF780104F290033AEFF090033B7433F090033C7444F090033D746DF078C5E2F8
:20066A00FE08E2FF90033EEEF0EFA3F078CFE2FE08E2FF90034075F000EE127065A3EF1297
:20068A007065125A12AF8290034475F000EF12706578D3E2FF90034275F000EF1270657806
:2006AA00D7E2FF90034375F000EF12706578D4E2FF90034575F000EF12706578D8E2FF9066
:2006CA00034675F000EF1270657582B912058A1256E6AE82AF83C3EE9411EF94005001223F
:0B06EA0078ED7411F29003380255AE59
:2006F500AE82AF83A3E0FDBD09178E828F83E0FCBCFE0E74052EFBE43FFC8B828C83E06043
:2007150038ED24F640358E828F83E0FDBDFD2C74072EFCE43FFD8C828D83E0701E74082E30
:20073500FCE43FFD8C828D83E0701074092EFEE43FFF8E828F83E07002D20522E5829002D9
:20075500EBF09002E9E4F07804F21259BE85820A85830B9002EBE0FDC3E50A9408E50B9473
:200775000050030208C6900000C00512581385820CD005750D0874FEB50C02800E74FDB514
:200795000C0280079002E9E0F5822274FDB50C1BE50D2404F50D900002C005125813E58217
:2007B500D00530E006740D250DF50D900001C00512581385820CD005850D0E750F0074FF32
:2007D500C3950EFAE4950FFF850C10751100C3E5109AE51164808FF063F08095F0400302AE
:2007F50008C6E50E2510FEE50F3511FF8D027B009002E9E0F512C005AC127D00EAC39CFA08
:20081500EB9DFBC3EA9EEB64808FF063F08095F0D00550030208C6E50E2510FEE50F3511F7
:20083500FFC3E50A9EE50B9F50030208C6E50D250CF50CE51224EDFEE43401FF78EEE50C09
:20085500F28E828F83C00512584B9002E9E0FF780AE22FFC08E23400FE7B00EF24EDFFE492
:200875003401FA900743EFF0EAA3F0E4A3F0900746E50CF0E4A3F08C828E838BF0126FC572
:200895009002E9E0FF780AE22FFF08E23400FE8F828E831206F5D0059002E9E0250CF0AC0F
:2008B5000C7F00E50AC39CF50AE50B9FF50B02076D9002E9E0F58222AF83E5829002F0F047
:2008D500EFA3F01261B9E58260569002EDE0FEA3E0FF9002EFE0FD9002F0E0FBA3E0FC908F
:2008F50006CDEDF09006CEEBF0ECA3F09006D074ECF07402A3F0E4A3F08E828F8312633C6C
:20091500E582601574C3C0E07479C0E07480C0E01247141581158115819002ECE0F58222C8
:200935009002F0E0FEA3E0FF7D009002EDE0FBA3E0FC8B138C148D159002EFE0F9F87C00BC
:20095500900743E513F0E514A3F0E515A3F0900746E8F0ECA3F08E828F838DF0C001126F92
:20097500C5D001898222AF82C0071261B9E582D0076017EF24EF400475820022EF24DF4035
:20099500027F0FEF24E050027F1F200403020A539002E9E0FE8E16751700EF24DF50027FFD
:2009B500208F027B00C3EA9516EB9517506EAB169002E9EBC39FF09002F2E0FAA3E0FB9064
:2009D50002ED74EDF07401A3F09002EFEFF08A828B83C0071208CDAB82D0078B1675170061
:2009F500EF24EDFAE43401FB8A198B1A751B009002E9E0FC7D00900743E519F0E51AA3F0CE
:200A1500E51BA3F0900746ECF0EDA3F09001ED75F000126FC5D201AC168C8222C204D2016E
:200A35009002F2E0FCA3E0FD9002ED74EDF07401A3F09002EFEEF08C828D830208CDC201D2
:200A5500C0071259BE858216858317D0073003309002E9E0FEC3EF9E500475820022D20033
:200A7500C2039002F2E0FCA3E0FD9002ED74EDF07401A3F09002EFEEF08C828D830208CD90
:200A9500C2008F057E00C3ED9516EE951750048D168E179002E9E4F0E51645177003F5824C
:200AB50022900605E07045E5164517603B9002F2E0FDA3E0FEAC1678EEECF28D828E83C015
:200AD5000412584BD00450209002E9ECF09002F2E0FDA3E0FE9002EDEDF0EEA3F09002EF6D
:200AF500ECF09001ED0208CD758200227804E2B401028003020B897401B51606E4B5170271
:200B15008002806C125CE4AD82AE837805D3E29DF4B3FDB308E29EF4FE7807C3E29D08E255
:200B35009E50499002E9E0FE04F0EE24EDFEE43401FDC006C005125749AC82D005D0068E65
:200B5500828D83ECF07804E4F29002F2E0FDA3E0FE9002E9E0FC9002ED74EDF07401A3F0AF
:200B75009002EFECF08D828E830208CD758200227804E4F27804E27003020C0E7804E2FD59
:200B95007E00C3E5169DE5179E505A125CE4AD82AE837805D3E29DF4B3FDB308E29EF4FED1
:200BB5007807C3E29D08E29E5037AC1678EEECF29001EDC00412584BD0049002E9ECF078B0
:200BD50004E4F29002F2E0FDA3E0FE9002ED74EDF07401A3F09002EFECF08D828E830208E5
:200BF500CD758200229002F2E0FDA3E0FE780AEDF208EEF28F82020751E516451770030298
:200C15000DF5900000C007125813858218D00774FEB51802800A74FDB518028003020DC393
:200C35007401B51606E4B517028002802F9002E9E06003020DF578047401F2125CE4E58218
:200C55008583F07805F208E5F0F27802E2FC08E2FD7807ECF208EDF275820022900001C05C
:200C750007125813AD82D0077804EDF2BDE60050208D037C0074192BFBE43CFC7809E2FA2F
:200C95007E00C3EA9BEE64808CF063F08095F050367804E4F29002E9E0FE04F0EE24EDFEB1
:200CB500E43401FCC007C006C004125749AB82D004D006D0078E828C83EBF0151674FFB50C
:200CD50016021517020C0E74082DFE7804F274FDB51825780474042EF2C374029516E495B6
:200CF500175015900002C007125813E582D00730E0067804E2240DF29002E9E06056125C39
:200D1500E4E5828583F07805F208E5F0F27804E2FD7E00780290074EE2F008E2A3F08D82A7
:200D35008E831270B0E5828583F07807F208E5F0F29002F2E0FDA3E0FE9002E9E0FC9002F1
:200D5500ED74EDF07401A3F09002EFECF08D828E830208CD7804E2FD7E00C3E5169DE517B4
:200D75009E5037125CE4E5828583F07805F208E5F0F27804E2FD7E00780290074EE2F00838
:200D9500E2A3F08D828E831270B0E5828583F07807F208E5F0F2758200229002F2E0FDA3BB
:200DB500E0FE780AEDF208EEF28F820207519002E9E0FE04F0EE24EDFEE43401FDC007C0A5
:200DD50006C005125749AC82D005D006D0078E828D83ECF0151674FFB516021517020C0E22
:200DF5009002F2E0FEA3E0FF9002E9E0FD9002ED74EDF07401A3F09002EFEDF08E828F834A
:200E15000208CDA20022A20122D20322E5829002F4F0E07809F222AF83E5829002F5F0EF15
:200E3500A3F09002F5E0FEA3E0FF900734EEF0EFA3F0E4A3F0A3F090000075F001E4126E94
:200E55005FAC82AD83AEF0FF0CBC00090DBD00050EBE00010F7802ECF208EDF222E582904F
:200E750002F9F020063B9002F7E0FEA3E0FF7D009002F9E0FCFA7B00900743EEF0EFA3F095
:200E9500EDA3F0900746EAF0EBA3F09000F175F000C004126FC5D0049002EAECF0C202C3E5
:200EB5002220023F9002F9E0FF9002EAE0FEEFB506319002F7E0FDA3E0FE900763EDF0EE4F
:200ED500A3F0E4A3F0900766EFF0E4A3F09000F175F0001272E6E5828583F045F07004C286
:200EF50002D322D202C322AF83E5829002FAF0EFA3F0780CC3E2F5F074FC95F05005780CBA
:200F150074FCF29002FAE0FEA3E0FF900743EEF0EFA3F0E4A3F0780C900746E2F0E4A3F013
:150F35009001ED75F000126FC5780C9002E9E2F0C200D20422F3
:2079C3006572726F72207768696C6520747279696E6720746F20656E637279707420646177
:0379E300746100CC
:08050200C207C208C209C20AC7
:200F4A00AF82200B058F82025A4D78127911C3E3F5F0E295F0501A7812E2FE781204F29082
:200F6A0002FCE0FCA3E0FDEE2CF582E43DF583EFF022AF83E5829002FFF0EFA3F09002FFB5
:200F8A00E0FEA3E0FF9002FCEEF0EFA3F07812E4F29002FEE07811F2D20B22C20B7812E276
:200FAA00F58222AD82AE83AFF08D828E838FF0127720FC700122BC25028003021237C20A3B
:200FCA00C209C208C2070DBD00010E8D828E838FF0127720FBBB6802800CBB6C10D2070DBF
:200FEA00BD000A0E8007D2090DBD00010E8D828E838FF0127720FBBB63028030BB64028023
:20100A0018BB6F02802BBB7302800ABB7502800EBB78238010D208801D751C0A8018751C3C
:20102A000AD20A8011751C10D20A800A751C008005751C08D20A300871A8811818E624FD94
:20104A00FBA8811818A6038B01871D09871E09871F1919C005C006C007AA1DAB1EAF1F8A90
:20106A00828B838FF0127720D007D006D0057003021248C005C006C007AA1DAB1EAF1F8A23
:20108A00828B838FF0127720FA051DE4B51D02051E8A82C007C006C005120F4AD005D00623
:2010AA00D007D007D006D00580A9300A6D300726A8811818E624FCFBA8811818A6038B01B8
:2010CA00780DE7F209E708F209E708F209E708F219191902119530091DA8811818E614F955
:2010EA00A8811818A6018703780DEBF208E4F208F208F2021195A8811818E624FEFBA881FB
:20110A001818A6038B01870209870319780DEAF208EBF208E4F208F28071300725A881187F
:20112A0018E624FCFBA8811818A6038B01780DE7F209E708F209E708F209E708F219191997
:20114A008049300921A8811818E614FBA8811818A6038B018703780DEBF2EB3395E008F20D
:20116A0008F208F28025A8811818E624FEFBA8811818A6038B01870209870319780DEAF24C
:20118A0008EBF2EB3395E008F208F2E51C7003021221300A33900701747AF0E4A3F0744022
:2011AA00A3F0900704E51CF0780DE2F58208E2F58308E2F5F008E2C007C006C005126B60DE
:2011CA00D005D006D007803190072A747AF0E4A3F07440A3F090072DE51CF0780DE2F582E2
:2011EA0008E2F58308E2F5F008E2C007C006C005126C76D005D006D007797AE7FB603F8B03
:20120A0082C007C006C005C001120F4AD001D005D006D0070980E4780DE2F582C007C00699
:20122A00C005120F4AD005D006D00780118C82C007C006C005120F4AD005D006D0070DBD4A
:20124A0000010E020FB3E58124FCFFC007E58124FBF886820886830886F0120FAD158122CB
:20126A00AF83E582900334F0EFA3F0900334E0FEA3E0FF900333E0FD7C008D027B001ABA6E
:20128A00FF011B8C007900C3E89AE964808BF063F08095F05046C007C006C005C004126D14
:2012AA00B6AA82D004D005D006D0078DF0EA84E5F02EFAE43FFB8A828B83E0F528C005EC1E
:2012CA002EF8E43FFD88828D83E0F98A828B83F088828D83E528F00CD005809E227582038F
:2012EA00123ECA126E10758210123ECAAC82AD83AEF0FFEC4D4E4F601412467B858208856D
:20130A00830975822012052FAF83026E10227F007813C3E2F5F0EF95F0500FEF2401F58214
:20132A00E43403F583EFF00F80E61212E77813E2FF7E008F047D001CBCFF011D8E027B00B7
:20134A00C3EA9CEB64808DF063F08095F05042C007C006126DB6AC82D006D0078FF0EC8478
:20136A00E5F02401FCE43403FD8C828D83E0F529C007EE2401FAE43403FF8A828F83E0FB52
:20138A008C828D83F08A828F83E529F00ED00780A2227814E22401F582E43403F583E0F57E
:2013AA0082227815E22401F582E43403F583E0F582227814E2FE7F000EBE00010F7813E234
:2013CA00FC7D0090075AECF0EDA3F08E828F83C005C0041271D0AE82AF83D004D0057814A8
:2013EA00EEF2300C0778147915E2F3227814E270227815E2FE7F000EBE00010F90075AEC0A
:20140A00F0EDA3F08E828F831271D0AE82AF837815EEF222A20D920C500778157914E2F359
:20142A00227815E2FE7F000EBE00010F781390075AE2F0E4A3F08E828F831271D0AE8278D6
:04144A0015EEF22287
:06050A00900435740AF0B4
:20144E0078D5E2FE08E2FF78D8E2FD7C0078D4E2FB8B2A8C2B78D7E2FB8B2C8C2D78D3E25F
:20146E00FB7A00C006C007C005C004C02AC02BC02CC02DC003C00274E6C0E07479C0E074A5
:20148E0080C0E0121250E58124F3F5817829E2FE7F00C007C0061239D8AC82AD83D006D003
:2014AE000778D1E2F52C08E2F52D78CFE2F52A08E2F52B78CDE2F52E08E2F52F78CBE2F5FB
:2014CE003008E2F53178C9E2F53208E2F53378C5E2F53408E2F53578C7E2FA08E2FBC00640
:2014EE00C007C004C005C02CC02DC02AC02BC02EC02FC030C031C032C033C034C035C00292
:20150E00C0037412C0E0747AC0E07480C0E0121250E58124EBF58178D5E4F208F222900480
:20152E0034E0FF30E00302144E22AF827E00782090074EE2F008E2A3F08F828E831270B022
:20154E00AE82AF83781EE22EFE08E23F8E82F58322AF827816E2F5367817E2FC08E2FD780C
:20156E0034E230E6467401B53610781CE2FA08E2FB7817EAF208EBF280467402B53602802D
:20158E00057403B5360F78167403F278177401F208E4F2802B7816E4F27833E2FA08E25428
:2015AE001FFB7817EAF208EBF2801578167402F27833E2FA08E2541FFB7817EAF208EBF2F9
:2015CE007816E2B40203EF6004C2158002D215A215920E7816E26002C20F7888E25402709F
:2015EE0001227817797DD3E29CF4B3F3B308E29DF409F37816E2B5366EC007781EE2FA0816
:20160E00E2FB90076B7402F0E4A3F08A828B83C003C0021273C5AE82AF83D002D003787D1B
:20162E00C3E2F5F0EE95F008E2F5F0EF648063F08095F0D0074030E49AFAE49BFB90076B6A
:20164E007402F0E4A3F08A828B83C0071273C5AB82AE83D007787DC3E29B08E264808EF0BE
:20166E0063F08095F0504B7E007816E2FA7B00AC367D00C007C006C002C003C004C0057498
:20168E0051C0E0747AC0E07480C0E0121250E58124F7F581787DE2C0E008E2C0E07464C025
:2016AE00E0747AC0E07480C0E0121250E58124FBF58122AE82AF837822C3E29E08E29F5071
:2016CE00087822E4F208F2800A7822E2C39EF208E29FF27817C3E2F5F0EE95F008E2F5F05B
:2016EE00EF95F0500302192C7816E2FC7D000CBC00010D90075A7404F0E4A3F08C828D8321
:20170E00C007C0061271D0AC82AD83D006D0077816ECF27817D3E29EF4B3FEB308E29FF4AD
:20172E00FF7816E260067816E2B402107819E2FC08E2FD7817ECF208EDF2800E781CE2FCE6
:20174E0008E2FD7817ECF208EDF27816E260067816E2B40125C007C0061213BC1231CCD0D3
:20176E0006D0077813C3E2F5F0740195F0500B782DE4F208F27831F208F27816E260030235
:20178E00191FC006C0077824E2FC7D007829E2F5378D38ECC39537FEED9538FFBE640ABFEE
:2017AE000007D007D00602191FD007D006C006C007C007C006C005C0047825E2C0E008E2D4
:2017CE00C0E008E2C0E008E2C0E090333375F073743F126D1385823985833A85F03BF53CD1
:2017EE00E58124FCF581D004D005D006D007782AE2F58208E2F583C005C004127520AA82D0
:20180E00AB83AEF0FFD004D005C007C006C005C004C002C003C006C00790000075F0A07415
:20182E0040126D1385823D85833E85F03FF540E58124FCF581D004D005D006D007781C79F6
:20184E0019E3C5F0E225F0FE09E3C5F008E235F0CE25E0CE33FF8E828F83C005C00412751F
:20186E0020AA82AB83AEF0FFC002C003C006C007853D82853E83853FF0E54012765DAA82BD
:20188E00AB83AEF0FFE58124FCF581C002C003C006C007853982853A83853BF0E53C127488
:2018AE0036AA82AB83AEF0FFE58124FCF581D004D0057825EAF208EBF208EEF208EFF278A1
:2018CE002AE4F208F2ECC39537FCED9538FD8C828D831274D8AC82AD83AEF0FFC007C006CE
:2018EE00C004C005C006C0077825E2F58208E2F58308E2F5F008E2127080E58124FCF581B5
:20190E00D006D007E58224FF9216B39212D007D006C20EC20F7822E4F208F20216E1781743
:20192E00E2C39EF208E29FF2227816E2FE7F0074022EFEE43FFF90075A7404F0E4A3F08EB8
:20194E00828F831271D0AE827816EEF22212360DE582FF24EB40057829E4F2221239D8E522
:20196E00828583F0249CFEE5F034FFFFC3E49E74808FF063F08095F0E433FD700C7829E2F7
:20198E0060077829E214F28037C3740A9E74808FF063F08095F050087829E2240AF280204D
:2019AE00C374059E74808FF063F08095F050087829E22405F28009ED60067829E22401F208
:2019CE007824E2FE7F007829E2FC7D00EEC39CFEEF9DFFC3EE9414EF6480948050087824F8
:2019EE007929E224ECF322301109900435E4F0C2118007900435E02401F0900435E0FFBFCA
:201A0E0002005004D2B78006A21092B7B210EF24D74003021AAC9004357405F0125D3AE5E1
:201A2E008230E0597817E2FE08E2FF781CC3E29E08E29F5017781ED3E29EF4B3FCB308E265
:201A4E009FF4FD7817ECF208EDF2800878177401F208E4F27888E2540260227817E2C0E06D
:201A6E0008E2C0E0C006C0077470C0E0747AC0E07480C0E0121250E58124F9F5817888E24C
:201A8E0054026015748AC0E0747AC0E07480C0E0121250158115811581C20D12141E9004D0
:201AAE0035E0603D122F4AAF827E0078D3E290074EF0E4A3F0900003C007C0061270B0ACB5
:201ACE0082AD83D006D007EC2FFCED3EC313CC13CCC313CC13CCFD78D3ECF278D5E4F20804
:201AEE00F2900435E0FF24FA5017900740E4F09007417404F0E4A3F09000D775F060126FAA
:201B0E009D7888900434E2F0D213900436E02401F0E0FFBF040812195B900436E4F022905C
:201B2E00043D75F000127645E5828583F02401FEE435F0FF900743743DF07404A3F0E4A38D
:201B4E00F0900746EEF0EFA3F090003775F060126FC5D21422AF82BF02004017EF24BA401A
:201B6E0012900338E0FEBE520A900339E0FEBE54028002D3229007437438F07403A3F0E4E9
:201B8E00A3F0900746EFF0E4A3F090043D75F000C007126FC5D007EF243DF582E43404F57F
:201BAE0083E4F090043D7441F07887EFF2D2199002FE74FCF0900338120F7C1227E8120FE5
:201BCE00A5E582FF600A780CEFF2900338120EFCC322125CE47882E582F208E583F2788250
:201BEE007984E2F308E209F378FF762A78FFB62A0280157499C0E0747AC0E07480C0E01239
:201C0E0047141581158115817886E2B44102801574A6C0E0747AC0E07480C0E012471415CF
:201C2E0081158115811227E8900434E0600812152C900434E4F030050E900605E060082083
:201C4E001805C20512063C1213AC1232CD125CE4AA82AB83789C7438F2087403F290007F7E
:201C6E0075F060C003C002122E53D002D0034003021E49D211D20DC003C00212141E122F5C
:201C8E004AAD82D002D0037C0078D3E290074EF0E4A3F0900007C005C004C003C0021270FC
:201CAE00B0AE82AF83D002D003D004D005EE2DFEEF3CC423CEC423541F6ECE541FCE6ECEAA
:201CCE0078D3EEF278D5E2FE08E2FF0EBE00010F78D5EEF208EFF27822E4F208F2787FE280
:201CEE00B402005003021BFA787FE224FC2438FEE43403FF900743EEF0EFA3F0E4A3F09008
:201D0E0007467404F0E4A3F090003375F060C003C002126FC5D002D003787FE21414141468
:201D2E00F27833E2FE08E2541FFF4E7041787FE2603C787FE2B404209007437438F07403AA
:201D4E00A3F0E4A3F0787F900746E2F0E4A3F09000D775F060126FC578D5E2FE08E2FF1EA8
:201D6E00BEFF011F78D5EEF208EFF2021BFA7833E2FE08E2541FFF4E7003021BFA787FE2B3
:201D8E00F582C003C00212155FD002D0037882EAF208EBF27834E2C4035401FFBF010A7868
:201DAE007FE2F582121B634038787FE27003021BFA7834E230E503021BFA7834E22354010F
:201DCE0024FF92069002F77438F07403A3F0787FE2F582120E725003021BFA301803021B57
:201DEE00FA750838750903787FE2F58212052FAE82AF837835E2FC08E2FDEEB50417EFB5D9
:201E0E000513D2B6787F79ECE2F3900338125494C2B6021BFA78D1E2FE08E2FFBEFF06BFFB
:201E2E00FF03021BFA78D1E2FE08E2FF0EBE00010F78D1EEF208EFF2021BFA125CE4AA82E6
:201E4E00AB8378827980D3E29AF4B3F3B308E29BF409F37880E2F58208E2F583C003C0020A
:201E6E001216C1D002D0037882EAF208EBF27884D3E29AF4B3FCB308E29BF4FD7E007F00F7
:201E8E00C3E49C74809DE49E74808FF063F08095F05012C003C0021219F5D002D00378846B
:201EAE00EAF208EBF2782CE27003021F38122F50AF82782CC3E2F5F0EF95F05016782D7919
:201ECE0080E3C5F0E225F0F209E3C5F008E235F0F28036782DE4F208F27831E2F5F008E2CC
:201EEE0045F07025126DB6AE82AF83782F90075EE2F008E2A3F08E828F83127239E58285BD
:201F0E0083F07831F208E5F0F2782F7931E3C5F0E225F0FE09E3C5F008E235F0FF782DC3E1
:201F2E00E29E08E29F5003021BFA7816E26011200E03021BFA7816E2B402028003021BFA35
:201F4E00300F03021BFA7822E2F5F008E245F06003021BFA201105122F334005122F1A5086
:201F6E0011781EE2FE08E2FF7822EEF208EFF2021BFA122F50AF827E0078D4E290074EF026
:201F8E00E4A3F0900003C007C0061270B0AC82AD83D006D007EC2FFCED3EC313CC13CCC3D9
:201FAE0013CC13CCFD78D4ECF2301203021BFA7817791EC3E3F5F0E295F009E3F5F008E2FF
:201FCE0095F05003021BFA7817791EE3F5F0C3E295F0FE09E3F5F008E295F0FF7820900681
:201FEE00F2E2F008E2A3F08E828F83126985AE82AF83BE14005003021BFAEE24FBFEC00601
:20200E001261B9E582D006600CBE10005003021BFAEE24F0FE781BC3E29E5004781BE2FE08
:20202E0030145790003775F060C006127645AD82AF83D0068E037C00C3EB9DEC9F403B90B3
:20204E00003775F060C006127645AD82787FEDF29007437437F0E4A3F07460A3F0900746AE
:20206E00EDF0E4A3F090033875F000126FC5D0067834E24420F2C21480559002F27438F003
:20208E007403A3F08E82C00612097BAF82D006787FEFF2EF6019C007C006120E1BD006D007
:2020AE00079217E433FD783413E292E5F280067834E254DFF27508387509038F82C00612EC
:2020CE00052FAD82AF83D0067835EDF208EFF2787F791BC3E2F5F0E395F05019C00674BC36
:2020EE00C0E0747AC0E07480C0E0124714158115811581D0067816E2B40203D38001C39239
:20210E0017E433783413E292E6F2C006120E18D0069217E433FF783413E292E7F27816E269
:20212E007044787FE2703F30133CBE04004037C21390074374D3F0E4A3F07460A3F0900742
:20214E00467404F0E4A3F090033875F000126FC5787F7404F27833E4F208E254E0F2783438
:20216E00E2547FF280771261B9E5826048787FE2FE7F0074042EFEE43FFFC4CEC4540F6E35
:20218E00CE540FCE6ECE30E30244F00EEEC454F0F582121538AE82AF837817E2C39EFE0899
:2021AE00E29FFF7833EEF208EF541FF5F0E254E045F0F28028787FE22404F582121538AE4D
:2021CE0082AF837817E2C39EFE08E29FFF7833EEF208EF541FF5F0E254E045F0F212139C0D
:2021EE001232CD787FE22438FEE43403FF7D009007437433F0E4A3F07460A3F09007467456
:20220E0004F0E4A3F08E828F838DF0126FC5787FE2600E7833E2FE08E2541FFF4E6002D2B0
:20222E00B6787FE27002D20F781EE2FE08E2FF7822EEF208EFF27824E2FE7F007829E2FC72
:20224E007D00EEC39CFEEF9DFFBE6405BF00028017787FE22404F582121538AE82AF8378ED
:20226E002AE22EF208E23FF2787FE22404FF781CE2FD08E2C313CD13CDFE7817E22DFD0888
:20228E00E23EFE78A47438F2087403F278A6EDF208EEF28F82123195401A787FE2601578F9
:2022AE0033E2FE08E2541FFF4E60097834E220E503120E1E782CE2600B782DE4F208F27838
:2022CE0031F208F2787FE2600E7833E2FE08E2541FFF4E6002C2B67819E2FE08E2C313CE7E
:2022EE0013CEFF7817C3E2F5F0EE95F008E2F5F0EF95F05012125AFA500A125B55400812E3
:20230E00539580F61253951213AC1232CD1231CC021BFA122F56AF82900756EFF0E4A3F044
:20232E00A3F0A3F09003E8E4F5F0127164AC82AD83AEF0FF900734ECF0EDA3F0EEA3F0EFAC
:20234E00A3F090120075F07AE4126E5FAC82AD83AEF0FF74082CFCE43DFDE43EFEE43FFF99
:20236E00EDC4CCC4540F6CCC540FCC6CCCFDEEC454F04DFDEFC4CEC4540F6ECE540FCE6E4C
:20238E00CE74012CFEE43DFF7820EEF208EFF290074EEEF0EFA3F090000DC007C006127050
:2023AE00B0E5828583F0D006D007240DFCE435F0FD781EECF208EDF230232E781B7474F2D7
:2023CE00EFCE25E0CE33FF7820EEF208EFF2EFCE25E0CE33CE25E0CE33FFEE2CFCEF3DFDF7
:2023EE00781EECF208EDF28005781B74F8F2781E791CE2F308E2F5F0E325E0C5F033C5F0AA
:20240E00F309E5F0F37820900756E2F008E2A3F0E4A3F0A3F0781BE2FC7D007E007F008C95
:20242E00828D838EF0EF12716485824185834285F043F544781EE2FA08E2FB7E007F009041
:20244E000756E5412AF0E5423BA3F0E5433EA3F0E5443FA3F0900003E4F5F0127164AC8277
:20246E00AD83AEF0FF900439ECF0EDA3F0EEA3F0EFA3F0782F7438F2087401F2782CE260BB
:20248E003A78B974A8F2087403F208E4F208F278BDECF208EDF208EEF208EFF28C828D8383
:2024AE008EF0EF12426AAC82AD83AEF0FF900439ECF0EDA3F0EEA3F0EFA3F0900439E0FC13
:2024CE00A3E0FDA3E0FEA3E0FFC3EC94A8ED9461EE9400EF9400401B7813C3E2F5F07401B4
:2024EE0095F0500F90043974A8F07461A3F0E4A3F0A3F075820F123ECAAC82AD83AEF0FF84
:20250E00900756ECF0EDA3F0EEA3F0EFA3F090003EE4F5F012716485824185834285F04399
:20252E00F544900439E0FAA3E0FBA3E0FEA3E0FFC3E5419AE5429BE5439EE5449F5039755B
:20254E00820F123ECAAC82AD83AEF0FF900756ECF0EDA3F0EEA3F0EFA3F090003EE4F5F0E4
:20256E00127164AC82AD83AEF0FF900439ECF0EDA3F0EEA3F0EFA3F0900439E0FCA3E0FD16
:20258E00A3E0FEA3E0FFC374FF9C741F9DE49EE49F500F90043974FFF0741FA3F0E4A3F0F7
:2025AE00A3F0900439E0FCA3E0FDA3E0A3E07819ECF208EDF2789BE27E0024F6FFEE34FF48
:2025CE00FE90076B7402F0E4A3F08F828E83C005C0041273C5AE82AF83782090074EE2F06A
:2025EE0008E2A3F08E828F831270B0AE82AF83D004D005781EE22EF208E23FF2781ED3E2F3
:20260E009CF4B3FCB308E29DF4FD78209006F2E2F008E2A3F08C828D83126985AE82AF8353
:20262E00900437EEF0EFA3F0781BE2FC7D00C3EC9EED9F5008900437ECF0EDA3F090043750
:20264E00E0FEA3E08E82020E21781CE2C0E008E2C0E074D1C0E0747AC0E07480C0E01212FF
:20266E0050E58124FBF581900001125C737819E2C0E008E2C0E074E5C0E0747AC0E0748077
:20268E00C0E0121250E58124FBF581900001125C73781BE2FE7F00C006C00774FAC0E074AA
:1626AE007AC0E07480C0E0121250E58124FBF581900001025C7397
:2079E6004C2F5220525353493A2025752F257520204C2F52206E6F6973653A2025752F2503
:207A06007520706B74733A2025752000207478653D2575207278653D2575207374783D2586
:207A260075207372783D2575206563633D25752F257520637263653D25752074656D703DE5
:207A460025642064636F3D25750A0054444D3A2025752F2575206C656E3D257520002064E4
:207A6600656C74613A2025640A0054444D3A206368616E67652074696D696E672025752F37
:207A860025750A0054444D3A207363616E6E696E670A00737461636B20626C6F776E0A0040
:207AA60070646174612063616E617279206368616E6765640A006F76657273697A65642029
:207AC60074646D207061636B65740073696C656E63655F706572696F643A2025750A00748C
:207AE600785F77696E646F775F77696474683A2025750A006D61785F646174615F706163C2
:107B06006B65745F6C656E6774683A2025750A004C
:0A05100078867441F2788A7464F270
:2026C400AF828F06BE08028021BE0D028005BE7F36801775820A125A4D7887E2243DF582F8
:2026E400E43404F583E4F0D219227887E26066758208125A4D758220125A4D758208125AC7
:202704004D7887E214F2227887E2B4450050408F057E008D828E83C006C0051274E5E58266
:202724008583F0D005D00645F0602A8D828E831275AAAD828D077887E2FE788704F2EE2439
:202744003DF582E43404F583EFF08F82025A4DC2187887E4F222AF82BF2B0280047889E43D
:20276400F27889C3E2F5F0740495F0402C7889E275F003A490277C730227A102278B022733
:202784008B0227920227A17889E22401F22278897404F2788A7464F2227889E4F2788A7463
:2027A40064F222788AE2603B788AE214F2788AE270317889E260087889E2B40426800678A5
:2027C400897401F222D2187889E4F290043D7441F090043E7454F090043FE4F07887740206
:2027E400F2D21922201901227887E2B40200E433FF701A90043DE0FEBE521290043EE0FEC2
:20280400BE540A121B2D7887E4F2C21922EF600302288090043DE0FFBF416190043EE0FFAE
:20282400BF545990043FE0FF6023BF26028023BF2B028023BF49028023BF4F028028BF5066
:2028440002801EBF53028027BF5A2E8027122887802A122BC88025122CCF8020122A20808D
:202864001B122CCC8016788A7464F2C218800D122B21800843EF1080FE1228A97887E4F208
:20288400C21922741AC0E0747BC0E07480C0E07416C0E0747BC0E07480C0E0121250E581BF
:2028A40024FAF58122741DC0E0747BC0E07480C0E07416C0E0747BC0E07480C0E012125049
:2028C400E58124FAF58122E5812404F581900484E4F0A3F0A3F0A3F0900483E0243DF58260
:2028E400E43404F583E0FFFD7E008D828E83C007127039E5828583F0D00745F0606E900477
:2029040084E0FBA3E0FCA3E0FDA3E0FE900756EBF0ECA3F0EDA3F0EEA3F090000AE4F5F029
:20292400C007127164C8E58124FCC8A68208A68308A6F008F6D0077A00EF24D0FFEA34FF8A
:20294400FA8F053395E0FEFFE58124FDF8900484ED26F0EA0836A3F0EE0836A3F0EF0836FF
:20296400A3F0900483E02401F00228DCE58124FCF58122E58290048DF0E0F546900488E001
:20298400FE754500C3E5459E400122C006C006122998800E90048BE0C0E0A3E0C0E0854514
:2029A4008222A982AA83ABF0FCD006C006C004C003C002C0011229BE800E900489E0C0E0B6
:2029C400A3E0C0E08545822285824785834885F049D001D002D003D004D006AE457F00E58F
:2029E40046F83395E0FDC006C001C002C003C004C047C048C049C006C007C000C00574235F
:202A0400C0E0747BC0E07480C0E0121250E58124F2F581D0060545D006022988900440E02C
:202A2400FF6030BF3002802BBF31028048BF32028065BF3303022AB8BF3403022AD8BF350E
:202A440003022AF8BF3603022B18BF3703022B1B022B1E7463C0E0747FC0E07480C0E07470
:202A640016C0E0747BC0E07480C0E0121250E58124FAF58122747AC0E0747FC0E07480C014
:202A8400E07416C0E0747BC0E07480C0E0121250E58124FAF581227482C0E0E4C0E07430B7
:202AA400C0E0747BC0E07480C0E0121250E58124FBF5812278C3E2FE7F00C006C0077430F3
:202AC400C0E0747BC0E07480C0E0121250E58124FBF5812278C4E2FE7F00C006C0077430D2
:202AE400C0E0747BC0E07480C0E0121250E58124FBF581229004887411F0900489743BF031
:202B04007442A3F090048B74CAF0743EA3F075825302297702265702144E0228A99004831D
:202B24007403F01228CB900484E0FCA3E0FDA3E0FEA3E0FFBC110040030228A9900483E0D4
:202B4400FF243DF582E43404F583E0FEBE3D02803BBE3F6D8C82123ECAAA82AB83ADF0FEE9
:202B6400900484EAF0EBA3F0EDA3F0EEA3F0C002C003C005C0067434C0E0747BC0E0748005
:202B8400C0E0121250E58124F9F58122EC6032900483EF04F0C0041228CBD004900484E0F5
:202BA400FBA3E0FDA3E0FEA3E0FF78B5EBF208EDF208EEF208EFF28C82123D665003022891
:202BC400870228A9900440E0FFBF4503022CAEBF46028017BF50028058BF54028056BF557B
:202BE400028014BF57028009022CC91241A10228871241440228879007507439F0747BA3A0
:202C0400F07480A3F090044175F0001270D0E5828583F045F0701775B7A575B7F1758F039D
:202C240090F7FE74FFF0758F0043EF1080FE0228A9021937900750743FF0747BA3F07480BF
:202C4400A3F090044175F0001270D0E5828583F045F070057888E4F2229007507440F07451
:202C64007BA3F07480A3F090044175F0001270D0E5828583F045F070077888E26401F222C9
:202C84009007507446F0747BA3F07480A3F090044175F0001270D0E5828583F045F07007FF
:202CA4007888E26402F2220228A9900441E0FFBF3D028006BF3F0E0245EB90044212451F1F
:202CC40050030228870228A90228A99004837404F01228CB900484E0FCA3E0FDA3E0FEA32A
:202CE400E0900440E0FFBF4103022E14BF43028040BF4603022DB6BF4C03022E06BF5002F0
:202D04008003022E50900441E0FFBF3D028003022E509004837405F01228CB900484E0FB7F
:202D2400A3E0A3E0A3E08BFC758201123A34022887900483E0FF243DF582E43404F583E014
:202D4400FEBE3D028041BE3F028003022E508C8212433CAE827D007B007A00900484EEF07A
:202D6400EDA3F0EBA3F0EAA3F0C006C005C003C0027434C0E0747BC0E07480C0E0121250E5
:202D8400E58124F9F58122900483EF04F0C0041228CBD004900484E0FBA3E0A3E0A3E0C041
:202DA400038C821242EF1581921A50030228870228A9900483E0243DF582E43404F583E05F
:202DC400FFBF3F028003022E508C82124378AF827E007D007C00900484EFF0EEA3F0EDA362
:202DE400F0ECA3F0C007C006C005C0047434C0E0747BC0E07480C0E0121250E58124F9F5F3
:202E0400812212438B500512288780030228A922900441E0FFBF3D349004837405F01228FF
:202E2400CB900484E0FCA3E0FDA3E0FEA3E0FFBC0111BD000EBE000BBF0008758202123ADE
:0F2E4400348006758203123A340228870228A9C7
:207B160025730A004F4B004552524F5200256325753A25733D256C750A0025750A00256C13
:157B3600750A00504441544500003D52535349003D54444D00AD
:202E5300AFF0AE83E58290058AF0EEA3F0EFA3F0201B02C322788BC3E2F5F074FC95F05022
:202E7300051231CC804590058AE0FDA3E0FEA3E0FF8D828E838FF0788BE2127065789CE206
:202E9300FD08E2FE7F00900743748EF07404A3F0E4A3F0788B900746E2F0E4A3F08D828EA7
:202EB300838FF0126FC51231CCD32278C5E2FE08E2FFBEFF05BFFF02800C0EBE00010F784B
:202ED300C5EEF208EFF2C322AF8275A702C2A3C2FF75A3FF789EE2FD08E2FE8F041FEC6005
:202EF3001130F9FD8D828E83E0F5A3A3AD82AE8380E930F9FD748055A1FFBF800280F6C2FC
:202F1300FFD2A375A70022201B05788CE26002D3227582311236A0E58230E402D322C32208
:202F3300A2A8921DC2A8101C028006A21D92A8D322A21D92A8C322788DE2F58222758226FE
:202F53000236A07898E2F582227582081236A0AF8274014FFEC007C00675820812366A15CE
:202F730081D0075307FEC00775820812366A1581227582081236A0AF8274024FFEC007C0FC
:202F93000675820812366A1581D0075307FDC00775820812366A158122E582FF240350197D
:202FB300C007744BC0E0747BC0E07480C0E0124714158115811581D007C007122F5CD00774
:202FD300C007C00775823E12366A1581D007EFFE24DF50027E2078A0799EE2F308E209F332
:202FF3008E82C007C006122EDBD006D007EFC39EFF78A0E22EF208E23400F2C007E4C0E095
:2030130075820512366A1581E4C0E075820612366A1581C21CC21E7409C0E075820712366F
:203033006A1581125CE4AC82AD83D007C007C005C004125CE4AA82AB83D004D005D007EA90
:20305300C39CFAEB9DFB78A2C3E2F5F0EA95F008E2F5F0EB95F04003023178758203C00780
:20307300C005C0041236A0AB82D004D005D007301E40EF603DEB30E5397E04BF0400500235
:203093008F0678A0799EE2F308E209F38E82C007C006C005C004122EDBD004D005D006D00E
:2030B30007EFC39EFF78A0E22EF208E23400F202303F301E40EF603DEB20E6397E04BF0483
:2030D3000050028F0678A0799EE2F308E209F38E82C007C006C005C004122EDBD004D00522
:2030F300D006D007EFC39EFF78A0E22EF208E23400F202303FEB30E720122F5C78C7E2FA4C
:2031130008E2FEBAFF05BEFF02800C0ABA00010E78C7EAF208EEF2C322758202C007C0056B
:20313300C0041236A0AB82D004D005D007EB30E105D21E02303F201E0302303FEB30E10310
:2031530002303FEF601D78C7E2FE08E2FFBEFF05BFFF02800C0EBE00010F78C7EEF208EF77
:20317300F2C322D32278C7E2FE08E2FFBEFF05BFFF02800C0EBE00010F78C7EEF208EFF276
:20319300C322E58290058DF0A2A89220C2A8D2A590058DE0FF78A479A0E2F308E209F37878
:2031B300A679A2E2F308E209F38F82122FAC921FC2A5A22092A8A21F22C2A8C21B788BE45D
:2031D300F2C21C788CE4F27413C0E075820512366A15817440C0E075820612366A1581121C
:2031F3003714122F5C122F847405C0E075820712366A1581D2A8D322900032125C737582A7
:20321300011236A0AF82BFFF028005BF05005002C3221237747582011236A0E582FF20E03E
:2032330006123774922122EF30E102D322C322AC82AD83AEF0FFC3ED941CEE944EEF940E4B
:20325300400E74C09C74F79D74BA9E74379F5002C3227890ECF208EDF208EEF208EFF28CBE
:20327300828D838EF0EF1237E0D322AC82AD83AEF0FFC374F09C74E89D74269EE49F50025A
:20329300C32278A87410F2087427F208E4F208F28C828D838EF0EF123720AC82AD83AEF043
:2032B300FF7894ECF208EDF208EEF208EFF2C00475827A12366A1581D322E58290058EF06E
:2032D3007899E2FFE0FEB50701227899EEF2C00675827912366A1581C21C227899E2F58253
:2032F30022AF82C007E4C0E075820512366A1581E4C0E075820612366A158112371474152A
:20331300C0E075820B12366A15817412C0E075820C12366A1581758200123A3474B6C0E0FE
:2033330075820912366A1581D007EF249B5010C00774C0C0E075825812366A1581D00778CC
:2033530090E2FB08E2FC08E2FD08E28B828C838DF0C0071237E07894E2FB08E208E208E206
:20337300C00375827A12366A1581D007302329C0077488C0E075823012366A15817402C063
:20339300E075823312366A1581E4C0E075823212366A1581D0078040C007748DC0E07582DD
:2033B3003012366A15817422C0E075823312366A1581740CC0E075823212366A158174FFD6
:2033D300C0E075824312366A158174FFC0E075824412366A1581D007C007743CC0E075823D
:2033F3007C12366A15817420C0E075827D12366A15817432C0E075827E12366A1581789BF0
:203413007410F2789BE2FEC00675823412366A15817428C0E075823512366A158175820050
:203433001235CDD0077E00EE907B6893FDC39F50060EBE0C0040F0EEFF907B6893FE78985E
:20345300F2BE200040047E0D80027E2D75820DC007C006123ECAAA82AB83ACF0FDD006D049
:2034730007EA4B4C4D600B7898E2FD247F4003430602C007C00675827012366A1581742306
:20349300C0E075827112366A15817444C0E075821D12366A1581D0077898E2FEBEC8005078
:2034B30012C007740AC0E075821E12366A1581D0078010C0077402C0E075821E12366A1585
:2034D30081D00778C3E2B4433A7E00EE75F00DA42475FC747B35F0FDEF2CF582E43DF583E0
:2034F300E493FDEE907B5C93FCC007C006C0058C8212366A1581D006D0070EBE0C0040CB29
:203513000235CB78C3E2B447397E00EE75F00DA42411FC747C35F0FDEF2CF582E43DF58355
:20353300E493FDEE907B5C93FCC007C006C0058C8212366A1581D006D0070EBE0C0040CBE8
:20355300807678C3E2B486397E00EE75F00DA424ADFC747C35F0FDEF2CF582E43DF583E462
:2035730093FDEE907B5C93FCC007C006C0058C8212366A1581D006D0070EBE0C0040CB800C
:20359300377E00EE75F00DA42449FC747D35F0FDEF2CF582E43DF583E493FDEE907B5C935C
:2035B300FCC007C006C0058C8212366A1581D006D0070EBE0C0040CBD322E58290058FF054
:2035D3007404C0E075826D12366A158190058FE0FFF582C00712433CAE82D007BEFF0280FC
:2035F300078EFC789AEFF222EFC313FF907DE593F5FCEF2FFF789AEFF222789AE2F5822219
:20361300AF83E582900590F0EFA3F0900590E0FEA3E0FF8E04788EECF28F05788FEDF220D2
:203633002334C007C006C005C00575823A12366A1581D005D006D007C006C005C0067582C6
:203653003B12366A158175823F12366A158175824012366A158122AF82A2A89238C2A87591
:20367300A702C2A3C2FF74804FF5A330F9FDA881181886A330F9FD748055A1FFBF80028015
:20369300F6C2FFD2A375A700A23892A822AF82A2A89238C2A875A702C2A3C2FF8FA330F94B
:2036B300FD75A30030F9FD748055A1FFBF800280F6AFA3C2FFD2A375A700A23892A88F8253
:2036D30022AF8275A702C2A3C2FF75A37F30FFFD85A3E0E58124FDF886050886068F041F25
:2036F300EC6016C2FF75A30030FFFD8D828E83E5A3F0A3AD82AE8380E4C2FFD2A375A700FF
:20371300227582031236A07582040236A0AF82AE83ADF0FC78ACEFF208EEF208EDF208ECFC
:20373300F278ABE2C313FF18E213FE18E213FB18E213FA78ACE22AFA08E23BFB08E23EFE20
:2037530008E23FFF78A8900734E2F008E2A3F008E2A3F008E2A3F08A828B838EF0EF026E03
:203773005FE4C0E075820512366A1581E4C0E075820612366A15811237147481C0E075825D
:203793000712366A1581900002125C3A308107125C6B50F8C322E4C0E075820512366A1588
:2037B300817402C0E075820612366A1581900014125C3A125C6B40137582031236A07582C9
:2037D300041236A0E58230E1EAD322C322AF82AE83ADF0FC78B0EFF208EEF208EDF208ECE7
:2037F300F278B0C3E2F5F0E495F008E2F5F0743895F008E2F5F0749C95F008E2F5F0741CE6
:2038130095F040030238D578B1E224C8F208E23463F208E234E3F2900734E4F0742DA3F09C
:203833007431A3F07401A3F078B0E2F58208E2F58308E2F5F008E2126E5FAA82900592EA7D
:20385300F0900756EAF0E4A3F0A3F0A3F0902D0075F0317401127164AC82AD83AEF0FF78DF
:20387300B0E2C39CF208E29DF208E29EF208E29FF278A87471F2087402F208E4F208F2782D
:20389300B0E2F58208E2F58308E2F5F008E212372078B0C0E0E582F208E583F208E5F0F236
:2038B300D0E008F278B0E225E0F208E233F208E233F208E233F2900592E0FF74204FF00242
:2038D300399678B1E224E4F208E234B1F208E234F1F29007347480F07496A3F07498A3F054
:2038F300E4A3F078B0E2F58208E2F58308E2F5F008E2126E5FAC82900592ECF0900756ECB9
:20391300F0E4A3F0A3F0A3F090968075F098E4127164AC82AD83AEF0FF78B0E2C39CF2083B
:20393300E29DF208E29EF208E29FF278A87471F2087402F208E4F208F278B0E2F58208E264
:20395300F58308E2F5F008E212372078B0C0E0E582F208E583F208E5F0F2D0E008F278B096
:20397300E225E0F208E233F208E233F208E233F2181818E225E0F208E233F208E233F208E7
:20399300E233F2900592E0FF74404FF078B0E2FC08E2FDC005C004E0C0E075827512366A00
:2039B3001581D004D0058D07C005C004C00775827612366A1581D004D005C004758277122F
:2039D300366A15812275A70FAEBEE4CE25E0CE33CE25E0CE33FFE5BD23235403FD7C004260
:2039F30006EC420775A700D2EC20ECFDADBE7C00AABD7B00EA4204EB4205ECC39EFEED9F94
:203A1300FF90076B7402F0E4A3F08E828F831273C5E5828583F0242DFCE435F08C82F5830E
:203A330022E582900593F0E0FF24FC4068EF2F2F903A4773023A53023AA8023AA8023A784F
:203A53007418C0E075820D12366A15817582081236A0AF82741F5F4480FFC0077582081236
:203A7300366A1581227582081236A0AF82741F5F4420FFC00775820812366A1581740AC022
:203A9300E075820D12366A1581E4C0E075820E12366A1581227582081236A0AF8253071F63
:203AB300C00775820812366A1581740AC0E075820D12366A15817404C0E075820E12366AAC
:203AD300158122C027C0E0C0F0C082C083C007C006C005C004C003C002C001C000C0D0753E
:203AF300D0007582041236A0AF82758203C0071236A0AE82D007EE30E449788CE2FC7D0075
:203B130074322CFCE43DFDC374FC9CE49D5003023BE1788CE2248EFCE43404FDC007C006AB
:203B3300C004C0057582321236D415811581788CE22432F27582261236A0E582D006D00731
:203B5300788DF2EF30E611D21C758226C0061236A0E582D006788DF2202304EE20E06FEEC6
:203B730030E16975824B1236A0E582FF2403405E788CC3E2F5F0EF95F04053788CC3E29F86
:203B93005022788CE2248EFDE43404FE788CD3E29FF4FCC007C005C0068C821236D4158197
:203BB3001581D007788BEFF2D21BE4C0E075820512366A1581E4C0E075820612366A158123
:203BD3007402C0E075820712366A1581801E78C5E2FE08E2FFBEFF05BFFF02800C0EBE00F8
:203BF300010F78C5EEF208EFF21231CCD0D0D000D001D002D003D004D005D006D007D083FE
:093C1300D082D0F0D0E0D02732BD
:207B4B006F76657273697A6564207061636B6574001C1F2021222324252A6E6F7202040816
:207B6B001013182030406080C0FA2727272E1601050B9A888A8C8D030303030303030303EB
:207B8B0003030303F4FA7D3F69A77D535E7D5E3F30200001020100010101010102024183AB
:207BAB00060C37C406895D065D0CAA8912254A4C9C25378625864AAB000102040201020325
:207BCB00020202040785080E12728A0E18BB0EBBEAFF1D1D1D1E1E1E2030415050505010BB
:207BEB002041839BC4080C101820314062C58912A69C314A6293C5270003060D1A1E263363
:207C0B004D669ACDFEFE2B2B2B2E1601050B9A888A8C8D0303030303030303030303030381
:207C2B00F4FA7D3F69A77D535E7D5E3F30200001020100010101010102024183060C37C409
:207C4B0006895D065D0CAA8912254A4C9C25378625864AAB00010204020102030202020487
:207C6B000785080E12728A0E18BB0EBBEAFF1E1E1E21212121304150505050102041839B98
:207C8B00C4080C101820314062C58912A69C314A6293C5270003060D1A1E26334D669ACD27
:207CAB00FEFE010101010101050B9A888A8C8D03030303030303030303030303D0E8F4FA15
:207CCB00D3A77D535E7D5E3F30E0602000000001010101010202102041839BC406895D06F9
:207CEB005D0CAA62C58912A69C25378625864AAB00000001010102030202020407234485DB
:207D0B0008398A0E18BB0EBBEAFF1C1C1C1C1C1E20304150505050102041839BC4080C1008
:207D2B001820314062C58912A69C314A6293C5270003060D1A1E26334D669ACDFEFE010170
:207D4B0001010101050B9A888A8C8D03030303030303030303030303D0E8F4FAD3A77D5328
:207D6B005E7D5E3F30E0602000000001010101010202102041839BC406895D065D0CAA622D
:207D8B00C58912A69C25378625864AAB0000000101010203020202040723448508398A0ED6
:207DAB0018BB0EBBEAFF1E1E1E1E1E1E20304150505050102041839BC4080C10182031408E
:207DCB0062C58912A69C314A6293C5270003060D1A1E26334D669ACDFEFEEBE6E0DAD3CE4F
:0A7DEB00C9C4BEB8B2ABA49688501C
:203C1C0075B7A575B7F122D310AF01C3C0D0AF8474035F4430F584C007123C1CD007758F90
:203C3C000390F80074FFF0758F008F84D0D092AF22D310AF01C3C0D0AE82AF83AD84740370
:203C5C005D4430F584758F004307F88E828F83E493FF758F008D848F82D0D092AF22D31014
:203C7C00AF01C3C0D0AE82AF83AD8474035D4430F584C007C006C005123C1CD005D006D09A
:193C9C0007758F054307F88E828F8378B4E2F08D84758F00D0D092AF2285
:02F7FE003DC20A
:203CB500AF82BF1100400122EF24F05003023D64EF2F2F903CCC73023CFC023CFE023D087D
:203CD500023D1A023D1C023D2E023D40023D2E023D64023D64023D64023D64023D64023D54
:203CF50064023D64023D52C322AF4A8F82125A61922222C3E4954A7401954BE4954CE4956C
:203D15004D504CC322D322C3741E954AE4954BE4954CE4954D5038C322C37401954AE4954B
:203D35004BE4954CE4954D5026C322C37402954AE4954BE4954CE4954D5014C322C37483D3
:203D5500954AE4954BE4954CE4954D5002C322D322AF8278B5E2F54A08E2F54B08E2F54C20
:203D750008E2F54D8F82C007123CB5D007400122BF0402801FBF0603023E6CBF0703023E0C
:203D9500A9BF0B02802DBF0C02806FBF0E03023E81023EA978B5E2F582C0071235CD12360D
:203DB5000DAE82D00778B5EEF208E4F208F208F2023EA978B9E4F208F208F208F278BD7474
:203DD50064F208E4F208F208F278B5E2F58208E2F58308E2F5F008E2C00712426AAB82ACA7
:203DF50083ADF0FED00778B5EBF208ECF208EDF208EEF27824EBF2023EA978B5E2F5F0089C
:203E1500E242F008E242F008E245F0604278B97419F208E4F208F208F278BD74DCF208E4B7
:203E3500F208F208F278B5E2F58208E2F58308E2F5F008E2C00712426AAB82AC83ADF0FE6A
:203E5500D00778B5EBF208ECF208EDF208EEF278B5792CE2F3803D78B5E2FE900605F07843
:203E7500B5EEF208E4F208F208F2802878B5E2F5F008E242F008E242F008E245F024FF921E
:203E95002450047E0180027E0078B5EEF208E4F208F208F2EF75F004A42494F5827405355E
:203EB500F0F58378B5E2F008E2A3F008E2A3F008E2A3F0D322AF82BF11004007900000E45E
:203ED500F5F022EF75F004A42494F582740535F0F583E0FCA3E0FDA3E0FEA3E08C828D8307
:203EF5008EF02285824E85834F9005F8E0FCA3E0FD9005FAE0FB8C018D028B007F00E82CD4
:203F1500F8EF3DFFC3E998EA9F5041E9C39CFEEA9DFFEE254EFEEF354FFF89828A83C0078F
:203F3500C006C005C004C003C002C001123C4DA882D001D002D003D004D005D006D0078EB8
:203F5500828F83E8F009B900B10A80AE854E08854F098B82C002C00112052FAE82AF83D075
:203F750001D002740129FCE43AFD8C828D83C007C006C002C001123C4DAD82D001D0028D7C
:203F9500047D0089828A83C005C004123C4DAB82D004D005D006D0077A00EB4205EA4204F0
:203FB500EEB50506EFB504028002C322D3228582508583519005FBE0FCA3E0FD9005FDE02A
:203FD500FB8C528D538B027F00EA2CFAEF3DFFC3E5529AE5539F5036E552C39CFEE5539D72
:203FF500FFEE2550F582EF3551F58378B4E0F2855282855383C005C004C003123C7AD0034D
:20401500D004D0050552E4B552BB055380B78550088551098B8212052FAE82AF838E0478DB
:20403500B4ECF2855282855383C007C006123C7AD006D00774012552FCE43553FD78B4EFB7
:20405500F28C828D83023C7AD310AF01C3C0D01241A1900000123C4DE582FF24BB4005BF35
:2040750030005004C302413D9005F87401F0E4A3F09005FAEFF0900594123EF84003024196
:204095003D758200123ECAAC82AD83AEF0FFBC1A0BBD0008BE0005BF00028004C302413DD1
:2040B5007F00EF75F004A42494FD740535F0FE8D828E83E0F54AA3E0F54BA3E0F54CA3E0D6
:2040D500F54D8F82C007C006C005123CB5D005D006D0074032EF75F007A424F5FB747D35F6
:2040F500F0FC8B828C83A3A3A3E493F9A3E493FAA3E493FBA3E493FC8D828E83E9F0EAA385
:20411500F0EBA3F0ECA3F00FBF440040959005F87481F07401A3F09005FA7420F09005D8BC
:20413500123EF840028001D333D0D092AF1322D310AF01C3C0D0900594741AF0E4A3F0A39C
:20415500F0A3F0123C2378B47444F2900000123C7A9005FB7401F0E4A3F09005FD7444F082
:20417500900594123FC378B47420F2900180123C7A9005FB7481F07401A3F09005FD7420BF
:20419500F09005D8123FC3D0D092AF227F00EF75F004A42494FD740535F0FEEF75F007A4CB
:2041B50024F5FB747D35F0FC8B828C83A3A3A3E493F9A3E493FAA3E493FBA3E493FC8D8201
:2041D5008E83E9F0EAA3F0EBA3F0ECA3F00FBF110040BB22AF827E008F037C007D40EE758D
:2041F500F007A424F5F582747D35F0F583E493F8A3E493F9A3E493FA900750E8F0E9A3F020
:20421500EAA3F08B828C838DF0C007C0061270D0E5828583F0D006D00745F060060EBE1110
:204235000040B58E8222AF82BF11005021EF75F007A424F5F582747D35F0F583E493FDA39C
:20425500E493FEA3E493FF8D828E838FF02290000075F00022AC82AD83AEF0FF78B9C3E212
:20427500F5F0EC95F008E2F5F0ED95F008E2F5F0EE95F008E2F5F0EF95F0500D78B9E2FCA1
:2042950008E2FD08E2FE08E2FF78BDC3E29C08E29D08E29E08E29F500D78BDE2FC08E2FDEC
:2042B50008E2FE08E2FF8C828D838EF0EF22D310AF01C3C0D0AE82AF83758F0175B7A575D8
:2042D500B7F18E828F83E58124FDF8E6F0758F00D0D092AF22E493F58222AF82758433EF47
:2042F50024E14041A8811818B6FF0280387E0074DE2FFC74FF3EFD8C828D83C007C00612F5
:2043150042EAAD82D006D007BDFF1A74DE2FFF74FF3EFEA8811818E6C0E08F828E83124226
:20433500C31581D322C322AF827E007584337D00ED90F7DE93FC62060DBD1F0040F290F7F2
:20435500FDE493FDBDFF02801690F7FDE493FDB5060DEF24E14008EF90F7DE93F582227592
:2043750082FF22AF827E0074DE2FFF74FF3EFE8F828E830242EA7F0075843390FFFDC00759
:204395001242EAAE82D007BEFF6A7E008E047D008C028D0374DE2AFA74FF3BFB8A828B83B8
:2043B500C007C006C005C0041242EAAB82D004D005D006D007EB6207BBFF1BC004C00574EB
:2043D5006CC0E0747EC0E07480C0E0121250E58124FBF581C3220EBE1F0040B0C00790FF11
:2043F500FD1242C3158174FEC0E090FFFF1242C31581D322C322AF82BF3000400DEF24C691
:2044150040088F06EE24D0F58222BF4100400DEF24B940088F0674C92EF58222BF610040D5
:204435000BEF2499400674A92FF5822275820022AF83E582900600F0EFA3F0900600E0FE57
:20445500A3E0FF9005FEE0F554A3E0F55578C2E4F278C279C1C3E3F5F0E295F0506878C2D4
:20447500E275F002A4FAABF02EF582EB3FF583E0F582C007C006C003C00212440BAD82D095
:2044950002D003D006D007EDC454F0FD0ABA00010BEA2EF582EB3FF583E0F582C007C006AE
:2044B500C00512440BAC82D005D006D007EC2DFD78C2E22554F582E43555F583EDF078C2F2
:2044D500E22401F2808B22AF829006027462F07E00C3EE9F5033EE24D8FCE43405FD7B0046
:2044F5009007437402F07406A3F0E4A3F090074604F0E4A3F08C828D838BF0C007C0061263
:204515006FC5D006D0070E80C822AF83E582900603F0EFA3F0758210123ECAAC8253040FD4
:204535000CECC40354F8FF900603E0FDA3E0FE8D028E037C008A828B838CF0C007C006C0E6
:2045550005127645AB82D005D006D007EF75F002A4FAACF08B56755700C3E5569AE5576450
:20457500808CF063F08095F0502C8F82C004C0021244DCD002D004C002C004C056C05774C0
:2045950089C0E0747EC0E07480C0E0121250E58124F9F581D3228F037C00C007C006C005F5
:2045B500C003C00474ADC0E0747EC0E07480C0E0121250E58124FBF581D005D006D00790F7
:2045D50005FE74D8F07405A3F078C1EFF28D828E83124445D322758210123ECAAC8253040B
:2045F5000F7D000CECC40354F8FF7E00C3EE9F505FEE24D8F582E43405F583E0FD24F0406C
:204615001DC007C00674B9C0E0747EC0E07480C0E0121250158115811581D006D007EE24F3
:20463500D8F582E43405F583E0FD7C00C007C006C005C00474BBC0E0747EC0E07480C0E01D
:20465500121250E58124FBF581D006D0070E809C74BEC0E0747EC0E07480C0E0121250157E
:0A4675008115811581229005D822DD
:207DF500C07E801A000000C77E8039000000D47E8040000000DE7E8019000000E47E80149B
:207E1500000000EC7E8000000000F07E8001000000F87E8000000000027F80000000000B72
:207E35007F8000000000147F8000000000217F80640000002C7F8000000000357F80000038
:207E55000000407F8000000000477F8083000000527F800000000064426D206C6576656C69
:207E7500202575206E6F742063616C696272617465640A004552524F52202D204B6579204D
:207E95006C656E6774683A25752C2052657175697265642025750A006B6579206C656E205E
:207EB50025640A0030002578000A00464F524D41540053455249414C5F53504545440041A9
:207ED50049525F5350454544004E45544944005458504F57455200454343004D41564C4931
:207EF5004E4B004F5050524553454E44004D494E5F46524551004D41585F46524551004EF2
:207F1500554D5F4348414E4E454C5300445554595F4359434C45004C42545F525353490068
:207F35004D414E4348455354455200525453435453004D41585F57494E444F5700454E436C
:0E7F550052595054494F4E5F4C4556454C0012
:060400000204A9023AD635
:01040B0032BE
:0104130032B6
:01041B0032AE
:030423000250D1B3
:03042B00025C7CF4
:010433003296
:01043B00328E
:010443003286
:01044B00327E
:010453003276
:01045B00326E
:010463003266
:01046B00325E
:03047300025BF237
:01047B00324E
:010483003246
:01048B00323E
:010493003236
:01049B00322E
:0304A3000261A251
:03052C000204A620
:0304A60002467F8C
:20467F00758433AFC478C3EFF2AFC378C4EFF212405D40031241A1758206123ECAAC829016
:20469F000605ECF0758205123ECAAC82AD83AEF0FFEC4D4E4F24FF922375820E123ECAAC8A
:2046BF0082AD83AEF0FFEC4D4E4F24FF922412474E1247EE1231CC4015747EC0E0747FC046
:2046DF00E07480C0E0124714158115811581758210123ECAAC828C8212622440157498C002
:2046FF00E0747FC0E07480C0E0124714158115811581021BE0907FB175F08012752CE581AA
:20471F0024FCFFC007E58124FBF886820886830886F0120FAD1581907FBC75F08012752CB9
:20473F00D2AFD2AC9003E8125C7343EF1080FEAFD974BF5FF5D943B28075B64075A90075E4
:20475F00FF807E5E7F011EBEFF011FEE4F70F775EF0675D4CF75D5FF75D62875A41075A73D
:20477F000F75A41075A70075E10143E24143A6FD75A70F43A5F575A6FD43B1C043A1C07536
:20479F00A70275A14075F80075A20043F801D2A375A700C289125D22758201123ECAAC828E
:2047BF008C8212529C75B800D2AFC2B7C2B6D2EF75BCF975BA0075BB1B75D10775D9887530
:2047DF00DF0075DA4275FC8075D84075E3402212320B401574BDC0E0747FC0E07480C0E076
:2047FF0012471415811581158178C3E2B44302801C78C3E2B44702804478C3E2B486028002
:20481F006C78C3E2B491030248BA0248E99006067490F074D1A3F074CFA3F07419A3F09083
:20483F00060A7470F0745EA3F074EAA3F07419A3F0900612740AF07813F202492190060664
:20485F007480F074A1A3F07403A3F0741CA3F090060A74C0F074E3A3F07412A3F0741CA386
:20487F00F0900612740AF07813F2024921900606E4F074A1A3F074BCA3F07433A3F090067F
:20489F000A7480F07425A3F074DBA3F07433A3F0900612740AF07813F2806790060674C079
:2048BF00F074CAA3F07489A3F07436A3F090060AE4F07428A3F023A3F07437A3F09006120C
:2048DF007414F078137432F28038900606E4F0A3F0A3F0A3F090060AF0A3F0A3F0A3F09064
:2048FF000612F078C3E2FE7F00C006C00774D5C0E0747FC0E07480C0E0124714E58124FB68
:20491F00F58175820A123ECAAC82AD83AEF0FFEC4D4E4F601175820A123ECAAC82AD83AE7E
:20493F00F0FF7813ECF2758208123ECAAC82AD83AEF0FFEC4D4E4F6039758208123ECAACB8
:20495F0082AD83AEF0FF900756ECF0EDA3F0EEA3F0EFA3F09003E8E4F5F0127164AC82AD97
:20497F0083AEF0FF900606ECF0EDA3F0EEA3F0EFA3F0758209123ECAAC82AD83AEF0FFECFC
:20499F004D4E4F6039758209123ECAAC82AD83AEF0FF900756ECF0EDA3F0EEA3F0EFA3F014
:2049BF009003E8E4F5F0127164AC82AD83AEF0FF90060AECF0EDA3F0EEA3F0EFA3F07582BC
:2049DF0004123ECAAC82AD83AEF0FFEC4D4E4F6012758204123ECAAC82AD83AEF0FF9006B1
:2049FF0012ECF0900612E0FF7E007D007C0078B9E4F208F208F208F278BD741EF208E4F220
:204A1F0008F208F28F828E838DF0EC12426AAC827813E2FB7D007E007F0078B97401F2088A
:204A3F00E4F208F208F278BD7432F208E4F208F208F28B828D838EF0EFC00412426AAB82B5
:204A5F00AD83AEF0FFD0047813EBF278C3E2B44302801E78C3E2B44703024B3378C3E2B40E
:204A7F008603024BD878C3E2B49103024C7D024D1F900606E0FBA3E0FDA3E0FEA3E0FF7859
:204A9F00B97480F2087423F20874ADF2087418F278BDE4F208740BF208746BF208741BF240
:204ABF008B828D838EF0EFC00412426AAB82AD83AEF0FF900606EBF0EDA3F0EEA3F0EFA3C7
:204ADF00F090060AE0FBA3E0FDA3E0FEA3E0FF78B97480F2087423F20874ADF2087418F280
:204AFF0078BDE4F208740BF208746BF208741BF28B828D838EF0EF12426AAB82AD83AEF06E
:204B1F00FFD00490060AEBF0EDA3F0EEA3F0EFA3F0024D42900606E0FBA3E0FDA3E0FEA3F9
:204B3F00E0FF78B97480F2087474F20874D2F208741AF278BD7480F20874CEF2087434F2BD
:204B5F0008741DF28B828D838EF0EFC00412426AAB82AD83AEF0FF900606EBF0EDA3F0EEC0
:204B7F00A3F0EFA3F090060AE0FBA3E0FDA3E0FEA3E0FF78B97480F2087474F20874D2F2CA
:204B9F0008741AF278BD7480F20874CEF2087434F208741DF28B828D838EF0EF12426AABF7
:204BBF0082AD83AEF0FFD00490060AEBF0EDA3F0EEA3F0EFA3F0024D42900606E0FBA3E02A
:204BDF00FDA3E0FEA3E0FF78B97440F20874B6F208749AF2087432F278BD7440F2087410AC
:204BFF00F20874FDF2087434F28B828D838EF0EFC00412426AAB82AD83AEF0FF900606EB0A
:204C1F00F0EDA3F0EEA3F0EFA3F090060AE0FBA3E0FDA3E0FEA3E0FF78B97440F20874B6FB
:204C3F00F208749AF2087432F278BD7440F2087410F20874FDF2087434F28B828D838EF0BA
:204C5F00EF12426AAB82AD83AEF0FFD00490060AEBF0EDA3F0EEA3F0EFA3F0024D42900695
:204C7F0006E0FBA3E0FDA3E0FEA3E0FF78B9E4F20874A1F20874BCF2087433F278BD74C067
:204C9F00F20874F7F20874BAF2087437F28B828D838EF0EFC00412426AAB82AD83AEF0FFCB
:204CBF00900606EBF0EDA3F0EEA3F0EFA3F090060AE0FBA3E0FDA3E0FEA3E0FF78B9E4F2D6
:204CDF000874A1F20874BCF2087433F278BD74C0F20874F7F20874BAF2087437F28B828DB4
:204CFF00838EF0EF12426AAB82AD83AEF0FFD00490060AEBF0EDA3F0EEA3F0EFA3F0802378
:204D1F0078C3E2FE7F00C004C006C00774D5C0E0747FC0E07480C0E0124714E58124FBF592
:204D3F0081D00490060AE0FBA3E0FDA3E0FEA3E0FF900606E0F558A3E0F559A3E0F55AA3F2
:204D5F00E0F55BEBB55825EDB55921EEB55A1DEFB55B1990060A74402558F074423559A3F1
:204D7F00F0740F355AA3F0E4355BA3F075820BC004123ECAAB827824EBF27F007E007D0078
:204D9F0078B9E4F208F208F208F278BD7464F208E4F208F208F28B828F838EF0ED12426AE6
:204DBF00AB827824EBF278B5EBF208E4F208F208F275820B123D6675820C123ECAAB82ADA4
:204DDF0083AEF0FFD004782CEBF2EB60377F007E007D0078B97419F208E4F208F208F27849
:204DFF00BD74DCF208E4F208F208F28B828F838EF0EDC00412426AAB82AD83AEF0FFD004E9
:204E1F00782CEBF2C004782C79B5E2F309E4F309F309F375820CC004123D6690073474E80C
:204E3F00F07403A3F0E4A3F0A3F0855882855983855AF0E55B126E5FAB82AD83AEF0FF782F
:204E5F00B5EBF208EDF208EEF208EFF2758208123D66D00490060AE0F55CA3E0F55DA3E038
:204E7F00F55EA3E0F55F90073474E8F07403A3F0E4A3F0A3F0855C82855D83855EF0E55FDF
:204E9F00126E5FAA82AC83AEF0FF78B5EAF208ECF208EEF208EFF2758209C004123D66786B
:204EBF001379B5E2F309E4F309F309F375820A123D66D004E55CC39558FCE55D9559FDE55C
:204EDF005E955AFEE55F955BFF7813E2FA7B0074022AFAE43BFB900734EAF0EBA3F0EB335E
:204EFF0095E0A3F0A3F08C828D838EF0EF126E5FAC82AD83AEF0FF90060EECF0EDA3F0EEA5
:204F1F00A3F0EFA3F0EFC313FFEE13FEED13FDEC139006062558F0ED3559A3F0EE355AA367
:204F3F00F0EF355BA3F0758203123ECAAC82C004126E10D0047813C3E2F5F0740595F0D003
:204F5F00044003024FEFC004C004126DB6AE82AF8390074EEEF0EFA3F09002711270B0AE64
:204F7F0082AF83D0048E5CEFF55D3395E0F55EF55F90060EE0FAA3E0FCA3E0FEA3E0FF9080
:204F9F0006F8EAF0ECA3F0EEA3F0EFA3F0855C82855D83855EF0E55FC004126A1F85825CF7
:204FBF0085835D85F05EF55FD004900606E0FAA3E0FBA3E0FEA3E0FF900606E55C2AF0E59F
:204FDF005D3BA3F0E55E3EA3F0E55F3FA3F0D004900606E0FBA3E0FDA3E0FEA3E08B828DF4
:204FFF00838EF0C004123242D00490060EE0FBA3E0FDA3E0FEA3E08B828D838EF0C00412FF
:20501F00327E758203123ECAAB82AD83AEF0FF78139006F8E2F0E4A3F0A3F0A3F08B828D91
:20503F00838EF0EF126A1F1232CD758202123ECA1232F4D0044037758202C004123ECA1236
:20505F0032F4D0044028758202C004123ECA1232F4D0044019C00474ECC0E0747FC0E074C8
:20507F0080C0E0124714158115811581D004C004122F56AF8278B5EFF208E4F208F208F282
:20509F00758202123D66758203123ECA123613D0048C821235CD12360DAF8278B5EFF20842
:1250BF00E4F208F208F2758204123D66121318022321E2
:207F63005246442053694B20322E30206F6E205246443930305000322E30006661696C65D8
:207F83006420746F20656E61626C65207265636569766572006661696C656420746F20698A
:207FA3006E697469616C69736520616573000A2A2A50414E49432A2A0000726164696F5F18
:207FC300696E697469616C697365206661696C65640062616420626F6172642066726571D1
:207FE30075656E637920256400726164696F5F636F6E666967757265206661696C656400FC
:12051A0078DB7490F2087401F278DD74F4F2087401F2F9
:2050D100C027C0E0C0F0C082C083C007C006C005C004C003C002C001C000C0D075D0001002
:2050F10098030251E6AF9930180E3019030251E68F821226C40251E68F82C00712275AD027
:205111000778DFE22401FD08E23400FEBD0009BE04067D007E00800B78DFE22401FD08E2A7
:205131003400FE78E1E2B5050708E2B50602803A78DFE22476F58208E23407F583EFF07891
:20515100DFE22401FD08E23400FEBD0009BE04067D007E00800B78DFE22401FD08E23400B2
:20517100FE78DFEDF208EEF2801B78CBE2FD08E2FEBDFF05BEFF02800C0DBD00010E78CB35
:20519100EDF208EEF278DF79E1C3E3F5F0E295F009E3F5F008E295F0401B78E1E22400FD9D
:2051B10008E23404FE78DFD3E29DF4B3FDB308E29EF4FE801578E179DFE3F5F0C3E295F00C
:2051D100FD09E3F5F008E295F0FEC3ED9411EE94005002D28210990302526378E379E5E208
:2051F100F5F0E3B5F00B08E2F5F009E3B5F002805F302420308317201814900613E0FEE0F4
:205211007004D225804CEE14900613F080069006137408F078E5E22476F58208E2340BF5A2
:2052310083E0FF78E5E22401FD08E23400FEBD0009BE04067D007E00800B78E5E22401FD09
:2052510008E23400FE78E5EDF208EEF28F998002D225D0D0D000D001D002D003D004D005CD
:20527100D006D007D083D082D0F0D0E0D0273278E379E5E2F5F0E3B5F00A08E2F5F009E365
:20529100B5F0012230250302573A22AF82C2AC78DFE4F208F278E1F208F278E3F208F2785E
:2052B100E5F208F278E7F208F278E9F208F2D225C28EAE89740F5E4420F5898F82125A872F
:2052D100D28E759810C282D2AC22AF82C0071256E6AD82AE83D007C3ED9401EE94005002C6
:2052F100C3228F821252FAD322AF82A2AC9238C2AC78E3E22401FD08E23400FEBD0009BE9E
:2053110004067D007E00800B78E3E22401FD08E23400FE78E5E2B5050708E2B50602804406
:2053310078E3E22476F58208E2340BF583EFF078E3E22401FE08E23400FFBE0009BF040681
:205351007E007F00800B78E3E22401FE08E23400FF78E3EEF208EFF2302524C02712573A10
:20537100D027801B78C9E2FE08E2FFBEFF05BFFF02800C0EBE00010F78C9EEF208EFF2A2EA
:205391003892AC2278E779E9E2F5F0E3B5F00C08E2F5F009E3B5F0030254921261B9E5826A
:2053B100700302549278E9E22476FE08E2340FFF8E828F83E07011D22610AF02C22678E9F5
:2053D100E4F208F2A22692AF78E9E22401FE08E23400FFEE2476FEEF340FFF78E9E22476CC
:2053F100F58208E2340FF583E09006D7F09006D87414F07406A3F09006DA74EBF07400A37A
:20541100F07460A3F08E828F8312650EE58260157403C0E07480C0E07480C0E012471415E0
:20543100811581158178EB79EDE2F39006141255AE78E9E22476F58208E2340FF583E0FF79
:2054510078EBF278E9E22476F58208E2340FF583E4F0D22610AF02C2267E000FBF00010E1D
:2054710078E9E22FF208E23EF278E9C3E294FC08E29403400678E9E4F208F2A22692AFD333
:2054910022C322AF83E582900634F0EFA3F01261B9E582700302559978E7E22401FE08E2DB
:2054B1003400FF74FCC39EFE74039FFF78ECE2FC7D00C3EE9CEF9D500678E7E4F208F2C0E7
:2054D10005C004125BA8AE82AF83D004D005C3EE9CEF9D501B78C9E2FE08E2FFBEFF04BF04
:2054F100FF01220EBE00010F78C9EEF208EFF22278E7E22476F58208E2340FF58378ECE234
:20551100F078E7E22401FE08E23400FFEE2476FEEF340FFF8E608F61756200900634E0FAF9
:20553100A3E0FF900743EAF0EFA3F0E4A3F0900746ECF0EDA3F08560828561838562F01239
:205551006FC5D22710AF02C22778ECE2FE7F000EBE00010F78E7E22EF208E23FF278E7C326
:20557100E294FC08E29403400B78E7E22404F208E234FCF2A22792AF78E7E22476F5820811
:20559100E2340FF583E4F022900634E0FEA3E0FF78EC79EDE2F38E828F830255AEAF83E560
:2055B10082900636F0EFA3F078EDE27001221256E6AE82AF8378EDE2FC7D00C3EE9CEF9DF7
:2055D100501F78EDEEF278C9E2FE08E2FFBEFF05BFFF02800C0EBE00010F78C9EEF208EFFA
:2055F100F278EDE2FF78E3D3E29400F4B3FDB308E29404F4FE8F037C00C3ED9BEE9C5008B8
:2056110078E3E2FEC3E49EFF78E3E22476FD08E2340BFE7C00900636E0FAA3E0FB90074385
:20563100EAF0EBA3F0E4A3F0900746EFF0E4A3F08D828E838CF0C007C003C002126FC5D059
:2056510002D003D007900636EF2AF0E43BA3F078EDE2C39FF2D22810AF02C2287E0078E3ED
:20567100E22FF208E23EF278E3C308E29404400678E4E224FCF2A22892AF78EDE260449040
:205691000636E0FEA3E0FF900743EEF0EFA3F0E4A3F078EDE2FE7F00900746EEF0EFA3F0AB
:2056B100900B7675F000C007C006126FC5D006D007D22810AF02C22878E3EEF208EFF2A278
:2056D1002892AFD22810AF02C22830250312573AA22892AF22A2AC9229C2AC78E379E5C390
:2056F100E3F5F0E295F009E3F5F008E295F0401B78E5E22400FE08E23404FF78E3D3E29E9F
:20571100F4B3FEB308E29FF4FF801578E579E3E3F5F0C3E295F0FE09E3F5F008E295F0FF27
:20573100A22992AC8E828F832230240730830420180122C225D29922A2AC922AC2AC78DF5B
:2057510079E1E2F5F0E3B5F00B08E2F5F009E3B5F002803A78E1E22476F58208E23407F502
:2057710083E0FF78E1E22401FD08E23400FEBD0009BE04067D007E00800B78E1E22401FDCC
:2057910008E23400FE78E1EDF208EEF280027F0078DF79E1C3E3F5F0E295F009E3F5F0083F
:2057B100E295F0401B78E1E22400FD08E23404FE78DFD3E29DF4B3FDB308E29EF4FE80158B
:2057D10078E179DFE3F5F0C3E295F0FD09E3F5F008E295F0FEC374229DE49E5002C282A22A
:2057F1002A92AC8F8222A2AC922BC2AC78E1E22476F58208E23407F583E0FFA22B92AC8F22
:205811008222AF83E582900638F0EFA3F0A2AC922CC2AC900638E0FEA3E0FF78E1E22EFEEB
:2058310008E23FFF530703EE2476F582EF3407F583E0FFA22C92AC8F8222AF83E5829006E4
:205851003AF0EFA3F01259BEAE82AF8378EEE2FC7D00C3EE9CEF9D5002C3228C038D027899
:20587100E1D3E29400F4B3FCB308E29404F4FDC3EC9BED9A501078E1D3E29400F4B3FBB3FC
:2058910008E29404F4FA90063AE0FCA3E0FD8C638D6475650078E1E22476FE08E23407FFAA
:2058B100900743EEF0EFA3F0E4A3F0900746EBF0EAA3F08563828564838565F0C005C004B8
:2058D100C003C002126FC5D002D003D004D0058B0678EEE2C39EF290063AEB2CF0EA3DA3D1
:2058F100F0D22D10AF02C22D78E1E22BF208E23AF278E1C308E29404400678E2E224FCF258
:20591100A22D92AF78EEE2604890063AE0FEA3E0FF7D009007437476F07407A3F0E4A3F090
:2059310078EEE2FB7C00900746EBF0ECA3F08E828F838DF0C004C003126FC5D003D004D27B
:205951002D10AF02C22D78E1EBF208ECF2A22D92AFD22D10AF02C22D78DF79E1C3E3F5F042
:20597100E295F009E3F5F008E295F0401B78E1E22400FE08E23404FF78DFD3E29EF4B3FE47
:20599100B308E29FF4FF801578E179DFE3F5F0C3E295F0FE09E3F5F008E295F0FFC37422F9
:2059B1009EE49F5002C282A22D92AFD322A2AC922EC2AC78DF79E1C3E3F5F0E295F009E30F
:2059D100F5F008E295F0401778DF79E1E3F5F0C3E295F0FE09E3F5F008E295F0FF8019781A
:2059F100E1D3E29400F4B3FCB308E29404F4FD78DFE22CFE08E23DFFA22E92AC8E828F83EA
:205A1100221259BEAE82AF83E4C39EFE74049FC423CEC423541F6ECE541FCE6ECEFF900710
:205A31004EEEF0EFA3F09000641270B0AE82E583A2E7CE33CE33CE54018E8222AF82BF0A0F
:205A51000A75820DC0071252FAD0078F820252FAAF827E00BE0900501BEE75F003A42426A7
:205A7100F582748035F0F583E493FDEFB50502D3220E80E0C322AF827E00BE0900501BEED7
:205A910075F003A42426F582748035F0F583E493FDEFB5050280030E80E090063CEEF0BE19
:205AB100090690063C7406F090063CE075F003A42426FD748035F0FE8D828E83A3E493F53F
:205AD1008DAC8E5304F48D828E83A3A3E4934CF58E900756EFF0E4A3F0A3F0A3F090007D81
:205AF100E4F5F0127164020E2C78E779E9C3E3F5F0E295F009E3F5F008E295F0401B78E9FA
:205B1100E224FCFE08E23403FF78E7D3E29EF4B3FEB308E29FF4FF801578E979E7E3F5F0B0
:205B3100C3E295F0FE09E3F5F008E295F0FF78DBC3E2F5F0EE95F008E2F5F0EF95F0500208
:205B5100D322C32278E779E9C3E3F5F0E295F009E3F5F008E295F0401B78E9E224FCFE08A3
:205B7100E23403FF78E7D3E29EF4B3FEB308E29FF4FF801578E979E7E3F5F0C3E295F0FE30
:205B910009E3F5F008E295F0FF78DDC3E29E08E29F5002D322C32278E779E9C3E3F5F0E23A
:205BB10095F009E3F5F008E295F0401B78E9E224FCFE08E23403FF78E7D3E29EF4B3FEB329
:205BD10008E29FF4FF801578E979E7E3F5F0C3E295F0FE09E3F5F008E295F0FF8E828F8391
:015BF1002291
:208003006572726F72207768696C6520747279696E6720746F20646563727970742064613A
:1E802300746100012C02029602042C0009960013600126B001392B08739608E6CB0851
:208061000000000000000000000000000000000000000000000000000000000000000000FF
:208081000000000000000000000000000000000000000000000000000000000000000000DF
:2080A1000000000000000000000000000000000000000000000000000000000000000000BF
:2080C10000000000000000000000000000000000000000000000000000000000000000009F
:205BF200C027C0E0C0F0C082C083C007C006C005C004C003C002C001C000C0D075D0007571
:205C120091041227A7E56660021566D0D0D000D001D002D003D004D005D006D007D083D076
:205C320082D0F0D0E0D02732AE82AF83C3EE94F6EF940940047566FF2274092EFEE43FFF03
:205C52009006F2740AF0E4A3F08E828F83126985AE828E662285826622E566B40100922F0D
:205C720022125C3A125C6B50FB22C027C0E0C0F0C082C083C007C006C005C004C003C002AB
:205C9200C001C000C0D075D00075C80474012567F567E43568F568302403125280D0D0D075
:205CB20000D001D002D003D004D005D006D007D083D082D0F0D0E0D02732AFCDAECCEFB52E
:205CD200CDF88F05E4FFFCEE4207EC42058F828D8322AE67AF68C007C006125CCCAC82ADFF
:205CF20083D006D007EEB567E9EFB568E5EEC40354F8FF7E00EDC403CCC40354076CCC54D2
:205D120007CC6CCCFDEC4206ED42078E828F83227592407593B075910443E68075CA007555
:0C5D3200CB0075C804D2AD2285CC8222C3
:205D3E00E582900645F0E0FFBF03028005BF070040047582012274035F2402C40354F8FEBA
:205D5E00900643E0FCA3E0C454F0CCC4CC6CCC54F0CC6CFD900646ECF0EDA3F075A702750D
:205D7E00E90075EA00ADD274A75DF5D275D10375C90575D601900641E0FCA3E0FD90064816
:205D9E00ECF0EDA3F0900648E0F5CA900649E0F5CB75CF008ECEE4F5CCF5CDEF30E21290E3
:205DBE00063DE0FDA3E0FE900648EDF0EEA3F0801090063FE0FDA3E0FE900648EDF0EEA3D9
:205DDE00F075D10475C90675D600900648E0F5CA900649E0F5CB900646E0F5CE900647E0A4
:205DFE00F5CFE4F5CCF5CDEF30E21290063FE0FDA3E0FE900648EDF0EEA3F0801090063D75
:205E1E00E0FDA3E0FE900648EDF0EEA3F075D10675C98875D600900648E0F5CA900649E031
:205E3E00F5CB900646E0F5CE900647E0F5CF75CD0075CC00AED374A75EF5D343D25875EA73
:205E5E00008FE943E90843E720E5D330E6FB75E90075EA00AFD274A75FF5D2AFD374A75FEA
:065E7E00F5D3758200223D
:205E8400AF83E58290064DF0EFA3F090064CE0FFBF030040047582012274022FC40354F877
:205EA400FE75A70275E90075EA00ADD274A75DF5D275D10375C90575D60090064DE0FCA30E
:205EC400E0FD90064FECF0EDA3F090064FE0F5CA900650E0F5CB75CF008ECE75CC0075CD73
:205EE4000075D10475C90675D60075CA0075CB0075CF0075CE1075CC0075CD0075D106756B
:205F0400C98875D60090064AE0FCA3E0FD90064FECF0EDA3F090064FE0F5CA900650E0F525
:205F2400CB75CF008ECE75CD00EF600575CC10800375CC00AED374A75EF5D343D25875EAB9
:205F4400048FE943E90443E90843E720E5D330E6FBEF6022AFD274A75FF5D275D10675CC8A
:205F64000075CE10AFD374875FF5D343D24043E720E5D330E6FB75E90075EA00AFD274A765
:0E5F84005FF5D2AFD374A75FF5D3758200220C
:205F9200E58290065BF0E0FFBF03028005BF070040047582012274035F2402C40354F8FE4E
:205FB200900659E0FCA3E0FD8C02C454F0CAC4CA6ACA54F0CA6AFB90065CEAF0EBA3F01C89
:205FD200BCFF011D900659ECF0EDA3F075A70275E90075EA00ADD274875DF5D275D1037554
:205FF200C90575D600900657E0FCA3E0FD90065EECF0EDA3F090065EE0F5CA90065FE0F580
:20601200CB75CF008ECEE4F5CCF5CDEF30E212900651E0FDA3E0FE90065EEDF0EEA3F08072
:2060320010900653E0FDA3E0FE90065EEDF0EEA3F075D10475C90675D60090065EE0F5CA39
:2060520090065FE0F5CB75CE1075CF0075CC0075CD0075D10575C90775D600900655E0FDDC
:20607200A3E0FE90065EEDF0EEA3F090065EE0F5CA90065FE0F5CB75CE10E4F5CFF5CCF562
:20609200CDEF30E212900653E0FDA3E0FE90065EEDF0EEA3F08010900651E0FDA3E0FE9010
:2060B200065EEDF0EEA3F075D10675C98875D60090065EE0F5CA90065FE0F5CB75CE1075BF
:2060D200CF0075CD0075CC00AED374875EF5D343D278EF30E20575EA01800375EA028FE96B
:2060F20043E90843E720E5D330E6FB900659E0F5F0A3E045F0700302618AAFE974F75FF524
:20611200E9AFD274875FF5D275D10375D60175CC0075CD0075D10490065CE0F5CE90065DF8
:20613200E0F5CF75D105900653E0FEA3E0FF90065EEEF0EFA3F090065EE0F5CA90065FE059
:20615200F5CB90065CE0F5CE90065DE0F5CF75CC0075CD0075D10690065CE0F5CE90065DEA
:20617200E0F5CFAFD374875FF5D343D27843E90843E720E5D330E6FB75E90075EA00AFD2B3
:1061920074875FF5D2AFD374875FF5D3758200221F
:2061A200C0E0C007C0D075D000AFE774DF5FF5E7D0D0D007D0E0329006C2E0F58222E582EC
:2061C2009006C3F0E09006C2F02212467BE5828583F0900660F0E5F0A3F022AF83E582905F
:2061E20006C6F0EFA3F09006C4E0FEA3E0FF9006C6E0FCA3E0FD7B108E828F83E493FAA32C
:20620200AE82AF838C828D83EAF0A3AC82AD839006C6ECF0EDA3F0DBDF9006C6ECF0EDA3E7
:20622200F022E5829006C8F07582001261C09006C8E0FF740F5FFE7002D3221EC007C0063C
:206242001261CCD006900660E0FCA3E0FD90064A7462F07406A3F090064CEEF08C828D8344
:20626200125E84E582D0076002C322EFC4540FFE53060FBE00028005BE0118802A9006C407
:206282007451F07480A3F0900682C0071261DDD00780149006C47451F07480A3F090068278
:2062A200C0071261DDD0078F821261C0D322AF83E5829006CAF0EFA3F09006CAE0FEA3E089
:2062C200FF7D009006C9E0FCFA7B00900743EEF0EFA3F0EDA3F0900746EAF0EBA3F090060B
:2062E200A275F000C004126FC5D004740F5C9006CCD39410F4F07F009006CCE0FEC3EF9E0C
:206302005034EF2C24A2FDE43406FE7B0090074374CCF07406A3F0E4A3F090074604F0E43F
:20632200A3F08D828E838BF0C007C004126FC5D004D0070F80C29006A222AF83E5829006D7
:20634200D3F0EFA3F09006CDE0FF7003F58222C0071261B9AE82D007740F5EFDBD01028090
:206362000ABD0202800DBD031A80109006D57404F080169006D57405F0800E9006D57406A9
:20638200F080069006D57404F0EEC4540FFE53060F9006D3E0FCA3E0FD9006C9EFF08C8226
:2063A2008D83C007C0061262B0AC82AD83D006D007EFC4540FFF0FBE00028008BE01028062
:2063C2005E0264979006D5E0F5699006CEE0FAA3E0FB900660E0F56AA3E0F56B8F017E00D5
:2063E200900651ECF0EDA3F0900653EAF0EBA3F09006557482F07406A3F0900657E56AF00D
:20640200E56BA3F0900659E9F0EEA3F0856982C007125F92E582D0079006D6F00264EF9095
:2064220006C47441F07480A3F0900692C007C005C0041261DDD004D005D0079006D5E0F5DC
:206442006A9006CEE0FAA3E0FB900660E0F56CA3E0F56D8F017E009006E1ECF0EDA3F09087
