:20052F00AF827E007D00AB08AC098F021FEA603B8B828C83E0FAA3AB82AC83ED2DF9ED30BE
:20054F00E714890009E890762F936EFDE990762F93F86AFE80D4890009E890752F93F86ED8
:1B056F00FDE990752F93F96AFE80BF8D07E4FDFCEE4205EC42078D828F832206
:20752F000000102120423063408450A560C670E781089129A14AB16BC18CD1ADE1CEF1EF3C
:20754F00123102103273225252B5429472F762D693398318B37BA35AD3BDC39CF3FFE3DEFC
:20756F00246234430420140164E674C744A45485A56AB54B85289509E5EEF5CFC5ACD58DBC
:20758F00365326721611063076D766F6569546B4B75BA77A97198738F7DFE7FED79DC7BC7C
:2075AF0048C458E5688678A70840186128023823C9CCD9EDE98EF9AF89489969A90AB92B3C
:2075CF005AF54AD47AB76A961A710A503A332A12DBFDCBDCFBBFEB9E9B798B58BB3BAB1AFC
:2075EF006CA67C874CE45CC52C223C030C601C41EDAEFD8FCDECDDCDAD2ABD0B8D689D49BC
:20760F007E976EB65ED54EF43E132E321E510E70FF9FEFBEDFDDCFFCBF1BAF3A9F598F787B
:20762F00918881A9B1CAA1EBD10CC12DF14EE16F108000A130C220E350044025704660673B
:20764F0083B99398A3FBB3DAC33DD31CE37FF35E02B1129022F332D24235521462777256FB
:20766F00B5EAA5CB95A88589F56EE54FD52CC50D34E224C314A004817466644754244405BB
:20768F00A7DBB7FA879997B8E75FF77EC71DD73C26D336F2069116B066577676461556347B
:2076AF00D94CC96DF90EE92F99C889E9B98AA9AB584448657806682718C008E1388228A33B
:2076CF00CB7DDB5CEB3FFB1E8BF99BD8ABBBBB9A4A755A546A377A160AF11AD02AB33A92FB
:2076EF00FD2EED0FDD6CCD4DBDAAAD8B9DE88DC97C266C075C644C453CA22C831CE00CC1BB
:20770F00EF1FFF3ECF5DDF7CAF9BBFBA8FD99FF86E177E364E555E742E933EB20ED11EF07A
:20058A00AF82900339E0F5759000EF74FFF0A3F0740625752438F582E43403F583EFF074C8
:2005AA00072575FF7D01C3ED9F505AED2438F582E43403F583E0FC9000EFE0FAA3E0FB8A8A
:2005CA0000E86CF576C454F062768B027B00A87679008806E46202EE6203E9C40354F8C8E6
:2005EA00C403C868C854F8C868F9E86202E96203E576C4540FFE7C009000EFEE6AF0EC6B09
:20060A00A3F00D80A1740625752438FEE43403FF9000EFE0FCA3E0FD8C028E828F83EAF022
:20062A00740725752438F582E43403F5838D04ECF02290033874FEF09003397409F07801C7
:20064A00E2FF780104F290033AEFF090033B7433F090033C7444F090033D746DF078C5E2F8
:20066A00FE08E2FF90033EEEF0EFA3F078CFE2FE08E2FF90034075F000EE126DD1A3EF122E
:20068A006DD112577EAF8290034475F000EF126DD178D3E2FF90034275F000EF126DD17862
:2006AA00D7E2FF90034375F000EF126DD178D4E2FF90034575F000EF126DD178D8E2FF9094
:2006CA00034675F000EF126DD17582B912058A125452AE82AF83C3EE9411EF94005001226C
:0B06EA0078ED7411F290033802531AEF
:2006F500AE82AF83A3E0FDBD09178E828F83E0FCBCFE0E74052EFBE43FFC8B828C83E06043
:2007150038ED24F640358E828F83E0FDBDFD2C74072EFCE43FFD8C828D83E0701E74082E30
:20073500FCE43FFD8C828D83E0701074092EFEE43FFF8E828F83E07002D20522E5829002D9
:20075500EBF09002E9E4F07804F212572A85820A85830B9002EBE0FDC3E50A9408E50B9409
:200775000050030208C6900000C00512557F85820CD005750D0874FEB50C02800E74FDB5AB
:200795000C0280079002E9E0F5822274FDB50C1BE50D2404F50D900002C00512557FE582AE
:2007B500D00530E006740D250DF50D900001C00512557F85820CD005850D0E750F0074FFC9
:2007D500C3950EFAE4950FFF850C10751100C3E5109AE51164808FF063F08095F0400302AE
:2007F50008C6E50E2510FEE50F3511FF8D027B009002E9E0F512C005AC127D00EAC39CFA08
:20081500EB9DFBC3EA9EEB64808FF063F08095F0D00550030208C6E50E2510FEE50F3511F7
:20083500FFC3E50A9EE50B9F50030208C6E50D250CF50CE51224EDFEE43401FF78EEE50C09
:20085500F28E828F83C0051255B79002E9E0FF780AE22FFC08E23400FE7B00EF24EDFFE429
:200875003401FA900744EFF0EAA3F0E4A3F0900747E50CF0E4A3F08C828E838BF0126D3106
:200895009002E9E0FF780AE22FFF08E23400FE8F828E831206F5D0059002E9E0250CF0AC0F
:2008B5000C7F00E50AC39CF50AE50B9FF50B02076D9002E9E0F58222AF83E5829002F0F047
:2008D500EFA3F0125F25E58260569002EDE0FEA3E0FF9002EFE0FD9002F0E0FBA3E0FC9025
:2008F50006CEEDF09006CFEBF0ECA3F09006D174ECF07402A3F0E4A3F08E828F831260A800
:20091500E5826015742FC0E07477C0E07480C0E012448F1581158115819002ECE0F58222E6
:200935009002F0E0FEA3E0FF7D009002EDE0FBA3E0FC8B138C148D159002EFE0F9F87C00BC
:20095500900744E513F0E514A3F0E515A3F0900747E8F0ECA3F08E828F838DF0C001126D92
:2009750031D001898222AF82C007125F25E582D0076017EF24EF400475820022EF24DF405F
:20099500027F0FEF24E050027F1F200403020A539002E9E0FE8E16751700EF24DF50027FFD
:2009B500208F027B00C3EA9516EB9517506EAB169002E9EBC39FF09002F2E0FAA3E0FB9064
:2009D50002ED74EDF07401A3F09002EFEFF08A828B83C0071208CDAB82D0078B1675170061
:2009F500EF24EDFAE43401FB8A198B1A751B009002E9E0FC7D00900744E519F0E51AA3F0CD
:200A1500E51BA3F0900747ECF0EDA3F09001ED75F000126D31D201AC168C8222C204D20103
:200A35009002F2E0FCA3E0FD9002ED74EDF07401A3F09002EFEEF08C828D830208CDC201D2
:200A5500C00712572A858216858317D0073003309002E9E0FEC3EF9E500475820022D200C9
:200A7500C2039002F2E0FCA3E0FD9002ED74EDF07401A3F09002EFEEF08C828D830208CD90
:200A9500C2008F057E00C3ED9516EE951750048D168E179002E9E4F0E51645177003F5824C
:200AB50022900606E07045E5164517603B9002F2E0FDA3E0FEAC1678EEECF28D828E83C014
:200AD500041255B7D00450209002E9ECF09002F2E0FDA3E0FE9002EDEDF0EEA3F09002EF04
:200AF500ECF09001ED0208CD758200227804E2B401028003020B897401B51606E4B5170271
:200B15008002806C125A50AD82AE837805D3E29DF4B3FDB308E29EF4FE7807C3E29D08E2EB
:200B35009E50499002E9E0FE04F0EE24EDFEE43401FDC006C0051254B5AC82D005D0068EFC
:200B5500828D83ECF07804E4F29002F2E0FDA3E0FE9002E9E0FC9002ED74EDF07401A3F0AF
:200B75009002EFECF08D828E830208CD758200227804E4F27804E27003020C0E7804E2FD59
:200B95007E00C3E5169DE5179E505A125A50AD82AE837805D3E29DF4B3FDB308E29EF4FE67
:200BB5007807C3E29D08E29E5037AC1678EEECF29001EDC0041255B7D0049002E9ECF07847
:200BD50004E4F29002F2E0FDA3E0FE9002ED74EDF07401A3F09002EFECF08D828E830208E5
:200BF500CD758200229002F2E0FDA3E0FE780AEDF208EEF28F82020751E516451770030298
:200C15000DF5900000C00712557F858218D00774FEB51802800A74FDB518028003020DC32A
:200C35007401B51606E4B517028002802F9002E9E06003020DF578047401F2125A50E582AE
:200C55008583F07805F208E5F0F27802E2FC08E2FD7807ECF208EDF275820022900001C05C
:200C75000712557FAD82D0077804EDF2BDE60050208D037C0074192BFBE43CFC7809E2FAC6
:200C95007E00C3EA9BEE64808CF063F08095F050367804E4F29002E9E0FE04F0EE24EDFEB1
:200CB500E43401FCC007C006C0041254B5AB82D004D006D0078E828C83EBF0151674FFB5A3
:200CD50016021517020C0E74082DFE7804F274FDB51825780474042EF2C374029516E495B6
:200CF500175015900002C00712557FE582D00730E0067804E2240DF29002E9E06056125AD2
:200D150050E5828583F07805F208E5F0F27804E2FD7E00780290074FE2F008E2A3F08D823A
:200D35008E83126E1CE5828583F07807F208E5F0F29002F2E0FDA3E0FE9002E9E0FC900287
:200D5500ED74EDF07401A3F09002EFECF08D828E830208CD7804E2FD7E00C3E5169DE517B4
:200D75009E5037125A50E5828583F07805F208E5F0F27804E2FD7E00780290074FE2F008CD
:200D9500E2A3F08D828E83126E1CE5828583F07807F208E5F0F2758200229002F2E0FDA351
:200DB500E0FE780AEDF208EEF28F820207519002E9E0FE04F0EE24EDFEE43401FDC007C0A5
:200DD50006C0051254B5AC82D005D006D0078E828D83ECF0151674FFB516021517020C0EB9
:200DF5009002F2E0FEA3E0FF9002E9E0FD9002ED74EDF07401A3F09002EFEDF08E828F834A
:200E15000208CDA20022A20122D20322E5829002F4F0E07809F222AF83E5829002F5F0EF15
:200E3500A3F09002F5E0FEA3E0FF900735EEF0EFA3F0E4A3F0A3F090000075F001E4126B96
:200E5500CBAC82AD83AEF0FF0CBC00090DBD00050EBE00010F7802ECF208EDF222E58290E3
:200E750002F9F020063B9002F7E0FEA3E0FF7D009002F9E0FCFA7B00900744EEF0EFA3F094
:200E9500EDA3F0900747EAF0EBA3F09000F175F000C004126D31D0049002EAECF0C202C37A
:200EB5002220023F9002F9E0FF9002EAE0FEEFB506319002F7E0FDA3E0FE900764EDF0EE4E
:200ED500A3F0E4A3F0900767EFF0E4A3F09000F175F000127052E5828583F045F07004C21B
:200EF50002D322D202C322AF83E5829002FAF0EFA3F0780CC3E2F5F074FC95F05005780CBA
:200F150074FCF29002FAE0FEA3E0FF900744EEF0EFA3F0E4A3F0780C900747E2F0E4A3F011
:150F35009001ED75F000126D31780C9002E9E2F0C200D2042289
:20772F006572726F72207768696C6520747279696E6720746F20656E63727970742064610D
:03774F0074610062
:08050200C207C208C209C20AC7
:200F4A00AF82200B058F820257B978127911C3E3F5F0E295F0501A7812E2FE781204F29019
:200F6A0002FCE0FCA3E0FDEE2CF582E43DF583EFF022AF83E5829002FFF0EFA3F09002FFB5
:200F8A00E0FEA3E0FF9002FCEEF0EFA3F07812E4F29002FEE07811F2D20B22C20B7812E276
:200FAA00F58222AD82AE83AFF08D828E838FF012748CFC700122BC25028003021237C20AD2
:200FCA00C209C208C2070DBD00010E8D828E838FF012748CFBBB6802800CBB6C10D2070D56
:200FEA00BD000A0E8007D2090DBD00010E8D828E838FF012748CFBBB63028030BB640280BA
:20100A0018BB6F02802BBB7302800ABB7502800EBB78238010D208801D751C0A8018751C3C
:20102A000AD20A8011751C10D20A800A751C008005751C08D20A300871A8811818E624FD94
:20104A00FBA8811818A6038B01871D09871E09871F1919C005C006C007AA1DAB1EAF1F8A90
:20106A00828B838FF012748CD007D006D0057003021248C005C006C007AA1DAB1EAF1F8ABA
:20108A00828B838FF012748CFA051DE4B51D02051E8A82C007C006C005120F4AD005D006BA
:2010AA00D007D007D006D00580A9300A6D300726A8811818E624FCFBA8811818A6038B01B8
:2010CA00780DE7F209E708F209E708F209E708F219191902119530091DA8811818E614F955
:2010EA00A8811818A6018703780DEBF208E4F208F208F2021195A8811818E624FEFBA881FB
:20110A001818A6038B01870209870319780DEAF208EBF208E4F208F28071300725A881187F
:20112A0018E624FCFBA8811818A6038B01780DE7F209E708F209E708F209E708F219191997
:20114A008049300921A8811818E614FBA8811818A6038B018703780DEBF2EB3395E008F20D
:20116A0008F208F28025A8811818E624FEFBA8811818A6038B01870209870319780DEAF24C
:20118A0008EBF2EB3395E008F208F2E51C7003021221300A33900702747AF0E4A3F0744021
:2011AA00A3F0900705E51CF0780DE2F58208E2F58308E2F5F008E2C007C006C0051268CC74
:2011CA00D005D006D007803190072B747AF0E4A3F07440A3F090072EE51CF0780DE2F582E0
:2011EA0008E2F58308E2F5F008E2C007C006C0051269E2D005D006D007797AE7FB603F8B9A
:20120A0082C007C006C005C001120F4AD001D005D006D0070980E4780DE2F582C007C00699
:20122A00C005120F4AD005D006D00780118C82C007C006C005120F4AD005D006D0070DBD4A
:20124A0000010E020FB3E58124FCFFC007E58124FBF886820886830886F0120FAD158122CB
:20126A00AF83E582900334F0EFA3F0900334E0FEA3E0FF900333E0FD7C008D027B001ABA6E
:20128A00FF011B8C007900C3E89AE964808BF063F08095F05046C007C006C005C004126B16
:2012AA0022AA82D004D005D006D0078DF0EA84E5F02EFAE43FFB8A828B83E0F528C005ECB2
:2012CA002EF8E43FFD88828D83E0F98A828B83F088828D83E528F00CD005809E227582038F
:2012EA00123D8D126B7C758210123D8DAC82AD83AEF0FFEC4D4E4F60141243F68582088508
:20130A00830975822012052FAF83026B7C227F007813C3E2F5F0EF95F0500FEF2401F582AB
:20132A00E43403F583EFF00F80E61212E77813E2FF7E008F047D001CBCFF011D8E027B00B7
:20134A00C3EA9CEB64808DF063F08095F05042C007C006126B22AC82D006D0078FF0EC840E
:20136A00E5F02401FCE43403FD8C828D83E0F529C007EE2401FAE43403FF8A828F83E0FB52
:20138A008C828D83F08A828F83E529F00ED00780A2227814E22401F582E43403F583E0F57E
:2013AA0082227815E22401F582E43403F583E0F582227814E2FE7F000EBE00010F7813E234
:2013CA00FC7D0090075BECF0EDA3F08E828F83C005C004126F3CAE82AF83D004D00578143D
:2013EA00EEF2300C0778147915E2F3227814E270227815E2FE7F000EBE00010F90075BEC09
:20140A00F0EDA3F08E828F83126F3CAE82AF837815EEF222A20D920C500778157914E2F3EF
:20142A00227815E2FE7F000EBE00010F781390075BE2F0E4A3F08E828F83126F3CAE82786B
:04144A0015EEF22287
:06050A00900435740AF0B4
:20144E0078D5E2FE08E2FF78D8E2FD7C0078D4E2FB8B2A8C2B78D7E2FB8B2C8C2D78D3E25F
:20146E00FB7A00C006C007C005C004C02AC02BC02CC02DC003C0027452C0E07477C0E0743B
:20148E0080C0E0121250E58124F3F5817829E2FE7F00C007C0061238A1AC82AD83D006D03B
:2014AE000778D1E2F52C08E2F52D78CFE2F52A08E2F52B78CDE2F52E08E2F52F78CBE2F5FB
:2014CE003008E2F53178C9E2F53208E2F53378C5E2F53408E2F53578C7E2FA08E2FBC00640
:2014EE00C007C004C005C02CC02DC02AC02BC02EC02FC030C031C032C033C034C035C00292
:20150E00C003747EC0E07477C0E07480C0E0121250E58124EBF58178D5E4F208F222900417
:20152E0034E0FF30E00302144E22AF827E00782090074FE2F008E2A3F08F828E83126E1CB7
:20154E00AE82AF83781EE22EFE08E23F8E82F58322AF827816E2F5367817E2FC08E2FD780C
:20156E0034E230E6467401B53610781CE2FA08E2FB7817EAF208EBF280467402B53602802D
:20158E00057403B5360F78167403F278177401F208E4F2802B7816E4F27833E2FA08E25428
:2015AE001FFB7817EAF208EBF2801578167402F27833E2FA08E2541FFB7817EAF208EBF2F9
:2015CE007816E2B40203EF6004C2158002D215A215920E7816E26002C20F7888E25402709F
:2015EE0001227817797DD3E29CF4B3F3B308E29DF409F37816E2B5366EC007781EE2FA0816
:20160E00E2FB90076C7402F0E4A3F08A828B83C003C002127131AE82AF83D002D003787DB0
:20162E00C3E2F5F0EE95F008E2F5F0EF648063F08095F0D0074030E49AFAE49BFB90076C69
:20164E007402F0E4A3F08A828B83C007127131AB82AE83D007787DC3E29B08E264808EF054
:20166E0063F08095F0504B7E007816E2FA7B00AC367D00C007C006C002C003C004C0057498
:20168E00BDC0E07477C0E07480C0E0121250E58124F7F581787DE2C0E008E2C0E074D0C050
:2016AE00E07477C0E07480C0E0121250E58124FBF58122AE82AF837822C3E29E08E29F5074
:2016CE00087822E4F208F2800A7822E2C39EF208E29FF27817C3E2F5F0EE95F008E2F5F05B
:2016EE00EF95F0500302192C7816E2FC7D000CBC00010D90075B7404F0E4A3F08C828D8320
:20170E00C007C006126F3CAC82AD83D006D0077816ECF27817D3E29EF4B3FEB308E29FF443
:20172E00FF7816E260067816E2B402107819E2FC08E2FD7817ECF208EDF2800E781CE2FCE6
:20174E0008E2FD7817ECF208EDF27816E260067816E2B40125C007C0061213BC123094D00C
:20176E0006D0077813C3E2F5F0740195F0500B782DE4F208F27831F208F27816E260030235
:20178E00191FC006C0077824E2FC7D007829E2F5378D38ECC39537FEED9538FFBE640ABFEE
:2017AE000007D007D00602191FD007D006C006C007C007C006C005C0047825E2C0E008E2D4
:2017CE00C0E008E2C0E008E2C0E090333375F073743F126A7F85823985833A85F03BF53C68
:2017EE00E58124FCF581D004D005D006D007782AE2F58208E2F583C005C00412728CAA8267
:20180E00AB83AEF0FFD004D005C007C006C005C004C002C003C006C00790000075F0A07415
:20182E0040126A7F85823D85833E85F03FF540E58124FCF581D004D005D006D007781C798D
:20184E0019E3C5F0E225F0FE09E3C5F008E235F0CE25E0CE33FF8E828F83C005C004127222
:20186E008CAA82AB83AEF0FFC002C003C006C007853D82853E83853FF0E5401273C9AA82E8
:20188E00AB83AEF0FFE58124FCF581C002C003C006C007853982853A83853BF0E53C12718B
:2018AE00A2AA82AB83AEF0FFE58124FCF581D004D0057825EAF208EBF208EEF208EFF27835
:2018CE002AE4F208F2ECC39537FCED9538FD8C828D83127244AC82AD83AEF0FFC007C00664
:2018EE00C004C005C006C0077825E2F58208E2F58308E2F5F008E2126DECE58124FCF5814C
:20190E00D006D007E58224FF9216B39212D007D006C20EC20F7822E4F208F20216E1781743
:20192E00E2C39EF208E29FF2227816E2FE7F0074022EFEE43FFF90075B7404F0E4A3F08EB7
:20194E00828F83126F3CAE827816EEF2221234D6E582FF24EB40057829E4F2221238A1E529
:20196E00828583F0249CFEE5F034FFFFC3E49E74808FF063F08095F0E433FD700C7829E2F7
:20198E0060077829E214F28037C3740A9E74808FF063F08095F050087829E2240AF280204D
:2019AE00C374059E74808FF063F08095F050087829E22405F28009ED60067829E22401F208
:2019CE007824E2FE7F007829E2FC7D00EEC39CFEEF9DFFC3EE9414EF6480948050087824F8
:2019EE007929E224ECF322301109900435E4F0C2118007900435E02401F0900435E0FFBFCA
:201A0E0002005004D2B78006A21092B7B210EF24D74003021AAC9004357405F0125AA6E578
:201A2E008230E0597817E2FE08E2FF781CC3E29E08E29F5017781ED3E29EF4B3FCB308E265
:201A4E009FF4FD7817ECF208EDF2800878177401F208E4F27888E2540260227817E2C0E06D
:201A6E0008E2C0E0C006C00774DCC0E07477C0E07480C0E0121250E58124F9F5817888E2E3
:201A8E005402601574F6C0E07477C0E07480C0E0121250158115811581C20D12141E900467
:201AAE0035E0603D122E16AF827E0078D3E290074FF0E4A3F0900003C007C006126E1CAC7F
:201ACE0082AD83D006D007EC2FFCED3EC313CC13CCC313CC13CCFD78D3ECF278D5E4F20804
:201AEE00F2900435E0FF24FA5017900741E4F09007427404F0E4A3F09000D775F060126DAA
:201B0E00097888900434E2F0D213900436E02401F0E0FFBF040812195B900436E4F02290F0
:201B2E00043D75F0001273B1E5828583F02401FEE435F0FF900744743DF07404A3F0E4A323
:201B4E00F0900747EEF0EFA3F090003775F060126D31D21422AF82BF02004017EF24BA40AF
:201B6E0012900338E0FEBE520A900339E0FEBE54028002D3229007447438F07403A3F0E4E8
:201B8E00A3F0900747EFF0E4A3F090043D75F000C007126D31D007EF243DF582E43404F514
:201BAE0083E4F090043D7441F07887EFF2D2199002FE74FCF0900338120F7C1227E8120FE5
:201BCE00A5E582FF600A780CEFF2900338120EFCC322125A507882E582F208E583F27882E6
:201BEE007984E2F308E209F378FF762A78FFB62A0280157405C0E07478C0E07480C0E012CF
:201C0E00448F1581158115817886E2B4410280157412C0E07478C0E07480C0E012448F1575
:201C2E0081158115811227E8900434E0600812152C900434E4F030050E900606E060082082
:201C4E001805C20512063C1213AC123195125A50AA82AB83789C7438F2087403F290007F4D
:201C6E0075F060C003C002122D1FD002D0034003021E49D211D20DC003C00212141E122E92
:201C8E0016AD82D002D0037C0078D3E290074FF0E4A3F0900007C005C004C003C002126E31
:201CAE001CAE82AF83D002D003D004D005EE2DFEEF3CC423CEC423541F6ECE541FCE6ECE3E
:201CCE0078D3EEF278D5E2FE08E2FF0EBE00010F78D5EEF208EFF27822E4F208F2787FE280
:201CEE00B402005003021BFA787FE224FC2438FEE43403FF900744EEF0EFA3F0E4A3F09007
:201D0E0007477404F0E4A3F090003375F060C003C002126D31D002D003787FE214141414FD
:201D2E00F27833E2FE08E2541FFF4E7041787FE2603C787FE2B404209007447438F07403A9
:201D4E00A3F0E4A3F0787F900747E2F0E4A3F09000D775F060126D3178D5E2FE08E2FF1E3D
:201D6E00BEFF011F78D5EEF208EFF2021BFA7833E2FE08E2541FFF4E7003021BFA787FE2B3
:201D8E00F582C003C00212155FD002D0037882EAF208EBF27834E2C4035401FFBF010A7868
:201DAE007FE2F582121B634038787FE27003021BFA7834E230E503021BFA7834E22354010F
:201DCE0024FF92069002F77438F07403A3F0787FE2F582120E725003021BFA301803021B57
:201DEE00FA750838750903787FE2F58212052FAE82AF837835E2FC08E2FDEEB50417EFB5D9
:201E0E000513D2B6787F79ECE2F3900338125200C2B6021BFA78D1E2FE08E2FFBEFF06BF91
:201E2E00FF03021BFA78D1E2FE08E2FF0EBE00010F78D1EEF208EFF2021BFA125A50AA827C
:201E4E00AB8378827980D3E29AF4B3F3B308E29BF409F37880E2F58208E2F583C003C0020A
:201E6E001216C1D002D0037882EAF208EBF27884D3E29AF4B3FCB308E29BF4FD7E007F00F7
:201E8E00C3E49C74809DE49E74808FF063F08095F05012C003C0021219F5D002D00378846B
:201EAE00EAF208EBF2782CE27003021F38122E1CAF82782CC3E2F5F0EF95F05016782D794E
:201ECE0080E3C5F0E225F0F209E3C5F008E235F0F28036782DE4F208F27831E2F5F008E2CC
:201EEE0045F07025126B22AE82AF83782F90075FE2F008E2A3F08E828F83126FA5E58285E9
:201F0E0083F07831F208E5F0F2782F7931E3C5F0E225F0FE09E3C5F008E235F0FF782DC3E1
:201F2E00E29E08E29F5003021BFA7816E26011200E03021BFA7816E2B402028003021BFA35
:201F4E00300F03021BFA7822E2F5F008E245F06003021BFA201105122DFF4005122DE650F2
:201F6E0011781EE2FE08E2FF7822EEF208EFF2021BFA122E1CAF827E0078D4E290074FF05A
:201F8E00E4A3F0900003C007C006126E1CAC82AD83D006D007EC2FFCED3EC313CC13CCC36F
:201FAE0013CC13CCFD78D4ECF2301203021BFA7817791EC3E3F5F0E295F009E3F5F008E2FF
:201FCE0095F05003021BFA7817791EE3F5F0C3E295F0FE09E3F5F008E295F0FF7820900681
:201FEE00F3E2F008E2A3F08E828F831266F1AE82AF83BE14005003021BFAEE24FBFEC00697
:20200E00125F25E582D006600CBE10005003021BFAEE24F0FE781BC3E29E5004781BE2FE9E
:20202E0030145790003775F060C0061273B1AD82AF83D0068E037C00C3EB9DEC9F403B904A
:20204E00003775F060C0061273B1AD82787FEDF29007447437F0E4A3F07460A3F090074743
:20206E00EDF0E4A3F090033875F000126D31D0067834E24420F2C21480559002F27438F099
:20208E007403A3F08E82C00612097BAF82D006787FEFF2EF6019C007C006120E1BD006D007
:2020AE00079217E433FD783413E292E5F280067834E254DFF27508387509038F82C00612EC
:2020CE00052FAD82AF83D0067835EDF208EFF2787F791BC3E2F5F0E395F05019C0067428CA
:2020EE00C0E07478C0E07480C0E012448F158115811581D0067816E2B40203D38001C392C3
:20210E0017E433783413E292E6F2C006120E18D0069217E433FF783413E292E7F27816E269
:20212E007044787FE2703F30133CBE04004037C21390074474D3F0E4A3F07460A3F0900741
:20214E00477404F0E4A3F090033875F000126D31787F7404F27833E4F208E254E0F27834CD
:20216E00E2547FF28077125F25E5826048787FE2FE7F0074042EFEE43FFFC4CEC4540F6ECB
:20218E00CE540FCE6ECE30E30244F00EEEC454F0F582121538AE82AF837817E2C39EFE0899
:2021AE00E29FFF7833EEF208EF541FF5F0E254E045F0F28028787FE22404F582121538AE4D
:2021CE0082AF837817E2C39EFE08E29FFF7833EEF208EF541FF5F0E254E045F0F212139C0D
:2021EE00123195787FE22438FEE43403FF7D009007447433F0E4A3F07460A3F0900747748D
:20220E0004F0E4A3F08E828F838DF0126D31787FE2600E7833E2FE08E2541FFF4E6002D246
:20222E00B6787FE27002D20F781EE2FE08E2FF7822EEF208EFF27824E2FE7F007829E2FC72
:20224E007D00EEC39CFEEF9DFFBE6405BF00028017787FE22404F582121538AE82AF8378ED
:20226E002AE22EF208E23FF2787FE22404FF781CE2FD08E2C313CD13CDFE7817E22DFD0888
:20228E00E23EFE78A47438F2087403F278A6EDF208EEF28F82123061401A787FE26015782E
:2022AE0033E2FE08E2541FFF4E60097834E220E503120E1E782CE2600B782DE4F208F27838
:2022CE0031F208F2787FE2600E7833E2FE08E2541FFF4E6002C2B67819E2FE08E2C313CE7E
:2022EE0013CEFF7817C3E2F5F0EE95F008E2F5F0EF95F05012125866500A1258C140081210
:20230E00510180F61251011213AC123195123094021BFA122E22AF82900757EFF0E4A3F016
:20232E00A3F0A3F09003E8E4F5F0126ED0AC82AD83AEF0FF900735ECF0EDA3F0EEA3F0EF42
:20234E00A3F090120075F07AE4126BCBAC82AD83AEF0FF74082CFCE43DFDE43EFEE43FFF30
:20236E00EDC4CCC4540F6CCC540FCC6CCCFDEEC454F04DFDEFC4CEC4540F6ECE540FCE6E4C
:20238E00CE74012CFEE43DFF7820EEF208EFF290074FEEF0EFA3F090000DC007C006126E51
:2023AE001CE5828583F0D006D007240DFCE435F0FD781EECF208EDF230222E781B7474F26C
:2023CE00EFCE25E0CE33FF7820EEF208EFF2EFCE25E0CE33CE25E0CE33FFEE2CFCEF3DFDF7
:2023EE00781EECF208EDF28005781B74F8F2781E791CE2F308E2F5F0E325E0C5F033C5F0AA
:20240E00F309E5F0F37820900757E2F008E2A3F0E4A3F0A3F0781BE2FC7D007E007F008C94
:20242E00828D838EF0EF126ED085824185834285F043F544781EE2FA08E2FB7E007F0090D8
:20244E000757E5412AF0E5423BA3F0E5433EA3F0E5443FA3F0900003E4F5F0126ED0AC820D
:20246E00AD83AEF0FF900439ECF0EDA3F0EEA3F0EFA3F0782F7438F2087401F2782CE260BB
:20248E003A78B974A8F2087403F208E4F208F278BDECF208EDF208EEF208EFF28C828D8383
:2024AE008EF0EF12412DAC82AD83AEF0FF900439ECF0EDA3F0EEA3F0EFA3F0900439E0FC51
:2024CE00A3E0FDA3E0FEA3E0FFC3EC94A8ED9461EE9400EF9400401B7813C3E2F5F07401B4
:2024EE0095F0500F90043974A8F07461A3F0E4A3F0A3F075820F123D8DAC82AD83AEF0FFC2
:20250E00900757ECF0EDA3F0EEA3F0EFA3F090003EE4F5F0126ED085824185834285F0432F
:20252E00F544900439E0FAA3E0FBA3E0FEA3E0FFC3E5419AE5429BE5439EE5449F5039755B
:20254E00820F123D8DAC82AD83AEF0FF900757ECF0EDA3F0EEA3F0EFA3F090003EE4F5F021
:20256E00126ED0AC82AD83AEF0FF900439ECF0EDA3F0EEA3F0EFA3F0900439E0FCA3E0FDAD
:20258E00A3E0FEA3E0FFC374FF9C741F9DE49EE49F500F90043974FFF0741FA3F0E4A3F0F7
:2025AE00A3F0900439E0FCA3E0FDA3E0A3E07819ECF208EDF2789BE27E0024F6FFEE34FF48
:2025CE00FE90076C7402F0E4A3F08F828E83C005C004127131AE82AF83782090074FE2F0FE
:2025EE0008E2A3F08E828F83126E1CAE82AF83D004D005781EE22EF208E23FF2781ED3E289
:20260E009CF4B3FCB308E29DF4FD78209006F3E2F008E2A3F08C828D831266F1AE82AF83E9
:20262E00900437EEF0EFA3F0781BE2FC7D00C3EC9EED9F5008900437ECF0EDA3F090043750
:20264E00E0FEA3E08E82020E21781CE2C0E008E2C0E0743DC0E07478C0E07480C0E0121295
:20266E0050E58124FBF5819000011259DF7819E2C0E008E2C0E07451C0E07478C0E07480A4
:20268E00C0E0121250E58124FBF5819000011259DF781BE2FE7F00C006C0077466C0E074D5
:1626AE0078C0E07480C0E0121250E58124FBF5819000010259DF30
:207752004C2F5220525353493A2025752F257520204C2F52206E6F6973653A2025752F2599
:207772007520706B74733A2025752000207478653D2575207278653D2575207374783D251D
:2077920075207372783D2575206563633D25752F257520637263653D25752074656D703D7C
:2077B20025642064636F3D25750A0054444D3A2025752F2575206C656E3D2575200020647B
:2077D200656C74613A2025640A0054444D3A206368616E67652074696D696E672025752FCE
:2077F20025750A0054444D3A207363616E6E696E670A00737461636B20626C6F776E0A00D7
:2078120070646174612063616E617279206368616E6765640A006F76657273697A656420BF
:2078320074646D207061636B65740073696C656E63655F706572696F643A2025750A007422
:20785200785F77696E646F775F77696474683A2025750A006D61785F646174615F70616358
:107872006B65745F6C656E6774683A2025750A00E3
:0A05100078867441F2788A7464F270
:2026C400AF828F06BE08028021BE0D028005BE7F36801775820A1257B97887E2243DF5828F
:2026E400E43404F583E4F0D219227887E260667582081257B97582201257B97582081257F8
:20270400B97887E214F2227887E2B4450050408F057E008D828E83C006C005127251E58290
:202724008583F0D005D00645F0602A8D828E83127316AD828D077887E2FE788704F2EE24CF
:202744003DF582E43404F583EFF08F820257B9C2187887E4F222AF82BF2B0280047889E4D4
:20276400F27889C3E2F5F0740495F0402C7889E275F003A490277C730227A102278B022733
:202784008B0227920227A17889E22401F22278897404F2788A7464F2227889E4F2788A7463
:2027A40064F222788AE2603B788AE214F2788AE270317889E260087889E2B40426800678A5
:2027C400897401F222D2187889E4F290043D7441F090043E7454F090043FE4F07887740206
:2027E400F2D21922201901227887E2B40200E433FF701A90043DE0FEBE521290043EE0FEC2
:20280400BE540A121B2D7887E4F2C21922EF600302288090043DE0FFBF416190043EE0FFAE
:20282400BF545990043FE0FF6023BF26028023BF2B028023BF49028023BF4F028028BF5066
:2028440002801EBF53028027BF5A2E8027122887802A122BC88025122CCF8020122A20808D
:202864001B122CCC8016788A7464F2C218800D122B21800843EF1080FE1228A97887E4F208
:20288400C219227486C0E07478C0E07480C0E07482C0E07478C0E07480C0E0121250E581ED
:2028A40024FAF581227489C0E07478C0E07480C0E07482C0E07478C0E07480C0E012125077
:2028C400E58124FAF58122E5812404F581900484E4F0A3F0A3F0A3F0900483E0243DF58260
:2028E400E43404F583E0FFFD7E008D828E83C007126DA5E5828583F0D00745F0606E90040E
:2029040084E0FBA3E0FCA3E0FDA3E0FE900757EBF0ECA3F0EDA3F0EEA3F090000AE4F5F028
:20292400C007126ED0C8E58124FCC8A68208A68308A6F008F6D0077A00EF24D0FFEA34FF21
:20294400FA8F053395E0FEFFE58124FDF8900484ED26F0EA0836A3F0EE0836A3F0EF0836FF
:20296400A3F0900483E02401F00228DCE58124FCF58122E58290048DF0E0F546900488E001
:20298400FE754500C3E5459E400122C006C006122998800E90048BE0C0E0A3E0C0E0854514
:2029A4008222A982AA83ABF0FCD006C006C004C003C002C0011229BE800E900489E0C0E0B6
:2029C400A3E0C0E08545822285824785834885F049D001D002D003D004D006AE457F00E58F
:2029E40046F83395E0FDC006C001C002C003C004C047C048C049C006C007C000C005748FF3
:202A0400C0E07478C0E07480C0E0121250E58124F2F581D0060545D006022988900440E02F
:202A2400FF6030BF3002802BBF31028048BF32028065BF3303022AB8BF3403022AD8BF350E
:202A440003022AF8BF3603022B18BF3703022B1B022B1E74AAC0E0747CC0E07480C0E0742C
:202A640082C0E07478C0E07480C0E0121250E58124FAF5812274C1C0E0747CC0E07480C067
:202A8400E07482C0E07478C0E07480C0E0121250E58124FAF581227481C0E0E4C0E0749CE3
:202AA400C0E07478C0E07480C0E0121250E58124FBF5812278C3E2FE7F00C006C007749C8A
:202AC400C0E07478C0E07480C0E0121250E58124FBF5812278C4E2FE7F00C006C007749C69
:202AE400C0E07478C0E07480C0E0121250E58124FBF581229004887411F090048974FEF071
:202B04007440A3F090048B748DF0743DA3F075825302297702265702144E0228A99004835D
:202B24007403F01228CB900484E0FCA3E0FDA3E0FEA3E0FFBC110040030228A9900483E0D4
:202B4400FF243DF582E43404F583E0FEBE3D02803BBE3F6D8C82123D8DAA82AB83ADF0FE27
:202B6400900484EAF0EBA3F0EDA3F0EEA3F0C002C003C005C00674A0C0E07478C0E074809C
:202B8400C0E0121250E58124F9F58122EC6032900483EF04F0C0041228CBD004900484E0F5
:202BA400FBA3E0FDA3E0FEA3E0FF78B5EBF208EDF208EEF208EFF28C82123C2950030228CF
:202BC400870228A9900440E0FFBF4503022CAEBF46028017BF50028058BF54028056BF557B
:202BE400028014BF57028009022CC912406402288712400702288790075174A5F07478A3B2
:202C0400F07480A3F090044175F000126E3CE5828583F045F0701775B7A575B7F1758F0333
:202C240090F7FE74FFF0758F0043EF1080FE0228A902193790075174ABF07478A3F0748055
:202C4400A3F090044175F000126E3CE5828583F045F070057888E4F22290075174ACF0747A
:202C640078A3F07480A3F090044175F000126E3CE5828583F045F070077888E26401F22262
:202C840090075174B2F07478A3F07480A3F090044175F000126E3CE5828583F045F070072B
:202CA4007888E26402F2220228A9900441E0FFBF3D028006BF3F0E02436690044212429A2E
:202CC40050030228870228A90228A99004837404F01228CB900440E0FFBF413C900441E01E
:202CE400FFBF3D349004837405F01228CB900484E0FCA3E0FDA3E0FEA3E0FFBC0111BD001A
:1B2D04000EBE000BBF00087582021238FD80067582031238FD0228870228A98B
:2078820025730A004F4B004552524F5200256325753A25733D256C750A0025750A00256CAA
:1578A200750A00504441544500003D52535349003D54444D0044
:202D1F00AFF0AE83E58290058AF0EEA3F0EFA3F0201A02C322788BC3E2F5F074FC95F05058
:202D3F0005123094804590058AE0FDA3E0FEA3E0FF8D828E838FF0788BE2126DD1789CE20B
:202D5F00FD08E2FE7F00900744748EF07404A3F0E4A3F0788B900747E2F0E4A3F08D828EDA
:202D7F00838FF0126D31123094D32278C5E2FE08E2FFBEFF05BFFF02800C0EBE00010F784F
:202D9F00C5EEF208EFF2C322AF8275A702C2A3C2FF75A3FF789EE2FD08E2FE8F041FEC603A
:202DBF001130F9FD8D828E83E0F5A3A3AD82AE8380E930F9FD748055A1FFBF800280F6C231
:202DDF00FFD2A375A70022201A05788CE26002D322758231123569E58230E402D322C32277
:202DFF00A2A8921CC2A8101B028006A21C92A8D322A21C92A8C322788DE2F5822275822638
:202E1F000235697898E2F58222758208123569AF8274014FFEC007C00675820812353315AB
:202E3F0081D0075307FEC007758208123533158122758208123569AF8274024FFEC007C0A1
:202E5F00067582081235331581D0075307FDC007758208123533158122E582FF2403501922
:202E7F00C00774B7C0E07478C0E07480C0E012448F158115811581D007C007122E28D007FD
:202E9F00C007C00775823E1235331581D007EFFE24DF50027E2078A0799EE2F308E209F39F
:202EBF008E82C007C006122DA7D006D007EFC39EFF78A0E22EF208E23400F2C007E4C0E0FF
:202EDF007582051235331581E4C0E07582061235331581C21BC21D7409C0E0758207123518
:202EFF00331581125A50AC82AD83D007C007C005C004125A50AA82AB83D004D005D007EA29
:202F1F00C39CFAEB9DFB78A2C3E2F5F0EA95F008E2F5F0EB95F04003023044758203C007EA
:202F3F00C005C004123569AB82D004D005D007301D40EF603DEB30E5397E04BF04005002A3
:202F5F008F0678A0799EE2F308E209F38E82C007C006C005C004122DA7D004D005D006D078
:202F7F0007EFC39EFF78A0E22EF208E23400F2022F0B301D40EF603DEB20E6397E04BF04EE
:202F9F000050028F0678A0799EE2F308E209F38E82C007C006C005C004122DA7D004D0058C
:202FBF00D006D007EFC39EFF78A0E22EF208E23400F2022F0BEB30E720122E2878C7E2FAEB
:202FDF0008E2FEBAFF05BEFF02800C0ABA00010E78C7EAF208EEF2C322758202C007C005A1
:202FFF00C004123569AB82D004D005D007EB30E105D21D022F0B201D03022F0BEB30E103EA
:20301F00022F0BEF601D78C7E2FE08E2FFBEFF05BFFF02800C0EBE00010F78C7EEF208EFE1
:20303F00F2C322D32278C7E2FE08E2FFBEFF05BFFF02800C0EBE00010F78C7EEF208EFF2AB
:20305F00C322E58290058DF0A2A8921FC2A890058DE0FF78A479A0E2F308E209F378A67906
:20307F00A2E2F308E209F38F82122E78921EA21F92A8A21E22C2A8C21A788BE4F2C21B780A
:20309F008CE4F27413C0E075820512353315817440C0E075820612353315811235DD122EB7
:2030BF0028122E507405C0E07582071235331581D2A8D3229000321259DF758201123569EF
:2030DF00AF82BFFF028005BF05005002C32212363D758201123569E582FF20E00612363D42
:2030FF00922022EF30E102D322C322AC82AD83AEF0FFC3ED941CEE944EEF940E400E74C0C3
:20311F009C74F79D74BA9E74379F5002C3227890ECF208EDF208EEF208EFF28C828D838E55
:20313F00F0EF1236A9D322AC82AD83AEF0FFC374F09C74E89D74269EE49F5002C32278A8E2
:20315F007410F2087427F208E4F208F28C828D838EF0EF1235E9AC82AD83AEF0FF7894ECBF
:20317F00F208EDF208EEF208EFF2C00475827A1235331581D322E58290058EF07899E2FFE0
:20319F00E0FEB50701227899EEF2C0067582791235331581C21B227899E2F58222AF82C0A0
:2031BF0007E4C0E07582051235331581E4C0E075820612353315811235DD7415C0E0758284
:2031DF000B12353315817412C0E075820C12353315817582001238FD74B6C0E07582091262
:2031FF0035331581D007EF249B5010C00774C0C0E07582581235331581D0077890E2FB080F
:20321F00E2FC08E2FD08E28B828C838DF0C0071236A97894E2FB08E208E208E2C00375822E
:20323F007A1235331581D007302229C0077488C0E075823012353315817402C0E0758233B9
:20325F001235331581E4C0E07582321235331581D0078040C007748DC0E0758230123533E2
:20327F0015817422C0E07582331235331581740CC0E0758232123533158174FFC0E07582C6
:20329F0043123533158174FFC0E07582441235331581D007C007743CC0E075827C12353383
:2032BF0015817420C0E075827D12353315817432C0E075827E1235331581789B7410F278D5
:2032DF009BE2FEC00675823412353315817428C0E07582351235331581758200123495D039
:2032FF00077E00EE9078D493FDC39F50060EBE0C0040F0EEFF9078D493FE7898F2BE2000D6
:20331F0040047E0D80027E2D75820DC007C006123D8DAA82AB83ACF0FDD006D007EA4B4C04
:20333F004D600B7898E2FD247F4003430602C007C00675827012353315817423C0E0758264
:20335F007112353315817444C0E075821D1235331581D0077898E2FEBEC8005012C0077467
:20337F000AC0E075821E1235331581D0078010C0077402C0E075821E1235331581D00778A7
:20339F00C3E2B4433A7E00EE75F00DA424E1FC747835F0FDEF2CF582E43DF583E493FDEE1A
:2033BF009078C893FCC007C006C0058C821235331581D006D0070EBE0C0040CB023493784E
:2033DF00C3E2B447397E00EE75F00DA4247DFC747935F0FDEF2CF582E43DF583E493FDEE3A
:2033FF009078C893FCC007C006C0058C821235331581D006D0070EBE0C0040CB807678C31E
:20341F00E2B486397E00EE75F00DA42419FC747A35F0FDEF2CF582E43DF583E493FDEE9050
:20343F0078C893FCC007C006C0058C821235331581D006D0070EBE0C0040CB80377E00EE7B
:20345F0075F00DA424B5FC747A35F0FDEF2CF582E43DF583E493FDEE9078C893FCC007C0DF
:20347F0006C0058C821235331581D006D0070EBE0C0040CBD322E58290058FF0E0FF7E00E7
:20349F00EE907B5193FDC39F50060EBE080040F0900590EEF0BE08069005907407F0900583
:2034BF0090E0FF907B5193FE789AEEF2C00775826D123533158122789AE2F58222AF83E59E
:2034DF0082900591F0EFA3F0900591E0FEA3E0FF8E04788EECF28F05788FEDF2202234C007
:2034FF0007C006C005C00575823A1235331581D005D006D007C006C005C00675823B1235C9
:20351F0033158175823F1235331581758240123533158122AF82A2A89238C2A875A702C285
:20353F00A3C2FF74804FF5A330F9FDA881181886A330F9FD748055A1FFBF800280F6C2FFFE
:20355F00D2A375A700A23892A822AF82A2A89238C2A875A702C2A3C2FF8FA330F9FD75A322
:20357F000030F9FD748055A1FFBF800280F6AFA3C2FFD2A375A700A23892A88F8222AF824A
:20359F0075A702C2A3C2FF75A37F30FFFD85A3E0E58124FDF886050886068F041FEC60164B
:2035BF00C2FF75A30030FFFD8D828E83E5A3F0A3AD82AE8380E4C2FFD2A375A7002275827D
:2035DF0003123569758204023569AF82AE83ADF0FC78ACEFF208EEF208EDF208ECF278ABA6
:2035FF00E2C313FF18E213FE18E213FB18E213FA78ACE22AFA08E23BFB08E23EFE08E23F42
:20361F00FF78A8900735E2F008E2A3F008E2A3F008E2A3F08A828B838EF0EF026BCBE4C0F4
:20363F00E07582051235331581E4C0E075820612353315811235DD7481C0E07582071235F0
:20365F003315819000021259A63081071259D750F8C322E4C0E075820512353315817402B2
:20367F00C0E075820612353315819000141259A61259D74013758203123569758204123548
:20369F0069E58230E1EAD322C322AF82AE83ADF0FC78B0EFF208EEF208EDF208ECF278B085
:2036BF00C3E2F5F0E495F008E2F5F0743895F008E2F5F0749C95F008E2F5F0741C95F04070
:2036DF000302379E78B1E224C8F208E23463F208E234E3F2900735E4F0742DA3F07431A386
:2036FF00F07401A3F078B0E2F58208E2F58308E2F5F008E2126BCBAA82900593EAF090070A
:20371F0057EAF0E4A3F0A3F0A3F0902D0075F0317401126ED0AC82AD83AEF0FF78B0E2C3DC
:20373F009CF208E29DF208E29EF208E29FF278A87471F2087402F208E4F208F278B0E2F530
:20375F008208E2F58308E2F5F008E21235E978B0C0E0E582F208E583F208E5F0F2D0E00873
:20377F00F278B0E225E0F208E233F208E233F208E233F2900593E0FF74204FF002385F781F
:20379F00B1E224E4F208E234B1F208E234F1F29007357480F07496A3F07498A3F0E4A3F058
:2037BF0078B0E2F58208E2F58308E2F5F008E2126BCBAC82900593ECF0900757ECF0E4A383
:2037DF00F0A3F0A3F090968075F098E4126ED0AC82AD83AEF0FF78B0E2C39CF208E29DF20E
:2037FF0008E29EF208E29FF278A87471F2087402F208E4F208F278B0E2F58208E2F583088B
:20381F00E2F5F008E21235E978B0C0E0E582F208E583F208E5F0F2D0E008F278B0E225E09D
:20383F00F208E233F208E233F208E233F2181818E225E0F208E233F208E233F208E233F2FC
:20385F00900593E0FF74404FF078B0E2FC08E2FDC005C004E0C0E07582751235331581D00D
:20387F0004D0058D07C005C004C0077582761235331581D004D005C0047582771235331585
:20389F00812275A70FAEBEE4CE25E0CE33CE25E0CE33FFE5BD23235403FD7C004206EC4216
:2038BF000775A700D2EC20ECFDADBE7C00AABD7B00EA4204EB4205ECC39EFEED9FFF900767
:2038DF006C7402F0E4A3F08E828F83127131E5828583F0242DFCE435F08C82F58322E582E6
:2038FF00900594F0E0FF24FC4068EF2F2F9039107302391C0239710239710239417418C0D9
:20391F00E075820D1235331581758208123569AF82741F5F4480FFC00775820812353315AA
:20393F008122758208123569AF82741F5F4420FFC0077582081235331581740AC0E07582A5
:20395F000D1235331581E4C0E075820E123533158122758208123569AF8253071FC00775DB
:20397F0082081235331581740AC0E075820D12353315817404C0E075820E1235331581220D
:20399F00C027C0E0C0F0C082C083C007C006C005C004C003C002C001C000C0D075D00075E6
:2039BF008204123569AF82758203C007123569AE82D007EE30E449788CE2FC7D0074322C8D
:2039DF00FCE43DFDC374FC9CE49D5003023AAA788CE2248EFCE43404FDC007C006C004C067
:2039FF000575823212359D15811581788CE22432F2758226123569E582D006D007788DF264
:203A1F00EF30E611D21B758226C006123569E582D006788DF2202204EE20E06FEE30E169B2
:203A3F0075824B123569E582FF2403405E788CC3E2F5F0EF95F04053788CC3E29F50227883
:203A5F008CE2248EFDE43404FE788CD3E29FF4FCC007C005C0068C8212359D15811581D088
:203A7F0007788BEFF2D21AE4C0E07582051235331581E4C0E075820612353315817402C0F9
:203A9F00E07582071235331581801E78C5E2FE08E2FFBEFF05BFFF02800C0EBE00010F7813
:203ABF00C5EEF208EFF2123094D0D0D000D001D002D003D004D005D006D007D083D082D0D2
:063ADF00F0D0E0D0273218
:2078B7006F76657273697A6564207061636B6574001C1F2021222324252A6E6F72020408AD
:2078D7001013182030406080C0FA2727272E1601050B9A888A8C8D03030303030303030382
:2078F70003030303F4FA7D3F69A77D535E7D5E3F3020000102010001010101010202418342
:20791700060C37C406895D065D0CAA8912254A4C9C25378625864AAB0001020402010203BB
:20793700020202040785080E12728A0E18BB0EBBEAFF1D1D1D1E1E1E203041505050501051
:207957002041839BC4080C101820314062C58912A69C314A6293C5270003060D1A1E2633F9
:207977004D669ACDFEFE2B2B2B2E1601050B9A888A8C8D0303030303030303030303030318
:20799700F4FA7D3F69A77D535E7D5E3F30200001020100010101010102024183060C37C4A0
:2079B70006895D065D0CAA8912254A4C9C25378625864AAB0001020402010203020202041E
:2079D7000785080E12728A0E18BB0EBBEAFF1E1E1E21212121304150505050102041839B2F
:2079F700C4080C101820314062C58912A69C314A6293C5270003060D1A1E26334D669ACDBE
:207A1700FEFE010101010101050B9A888A8C8D03030303030303030303030303D0E8F4FAAB
:207A3700D3A77D535E7D5E3F30E0602000000001010101010202102041839BC406895D068F
:207A57005D0CAA62C58912A69C25378625864AAB0000000101010203020202040723448571
:207A770008398A0E18BB0EBBEAFF1C1C1C1C1C1E20304150505050102041839BC4080C109F
:207A97001820314062C58912A69C314A6293C5270003060D1A1E26334D669ACDFEFE010107
:207AB70001010101050B9A888A8C8D03030303030303030303030303D0E8F4FAD3A77D53BF
:207AD7005E7D5E3F30E0602000000001010101010202102041839BC406895D065D0CAA62C4
:207AF700C58912A69C25378625864AAB0000000101010203020202040723448508398A0E6D
:207B170018BB0EBBEAFF1E1E1E1E1E1E20304150505050102041839BC4080C101820314024
:207B370062C58912A69C314A6293C5270003060D1A1E26334D669ACDFEFE010205080B0EE8
:027B5700111407
:203AE50075B7A575B7F122D310AF01C3C0D0AF8474035F4430F584C007123AE5D007758F02
:203B05000390000074FFF0758F008F84D0D092AF22D310AF01C3C0D0AE82AF83AD847403A0
:203B25005D4430F584758F008E828F83E493FF758F008D848F82D0D092AF22D310AF01C31B
:203B4500C0D0AE82AF83AD8474035D4430F584C007C006C005123AE5D005D006D007758F73
:133B6500058E828F8378B4E2F08D84758F00D0D092AF2210
:02F7FE003DC20A
:203B7800AF82BF1100400122EF24F05003023C27EF2F2F903B8F73023BBF023BC1023BCBF2
:203B9800023BDD023BDF023BF1023C03023BF1023C27023C27023C27023C27023C27023C03
:203BB80027023C27023C15C322AF4A8F821257CD922122C3E4954A7401954BE4954CE495FB
:203BD8004D504CC322D322C37414954AE4954BE4954CE4954D5038C322C37401954AE49594
:203BF8004BE4954CE4954D5026C322C37402954AE4954BE4954CE4954D5014C322C3748312
:203C1800954AE4954BE4954CE4954D5002C322D322AF8278B5E2F54A08E2F54B08E2F54C5E
:203C380008E2F54D8F82C007123B78D007400122BF0402801FBF0603023D2FBF0703023DC7
:203C58006CBF0B02802DBF0C02806FBF0E03023D44023D6C78B5E2F582C00712349512343F
:203C7800D6AE82D00778B5EEF208E4F208F208F2023D6C78B9E4F208F208F208F278BD7427
:203C980064F208E4F208F208F278B5E2F58208E2F58308E2F5F008E2C00712412DAB82AC23
:203CB80083ADF0FED00778B5EBF208ECF208EDF208EEF27824EBF2023D6C78B5E2F5F00818
:203CD800E242F008E242F008E245F0604278B97419F208E4F208F208F278BD74DCF208E4F6
:203CF800F208F208F278B5E2F58208E2F58308E2F5F008E2C00712412DAB82AC83ADF0FEE7
:203D1800D00778B5EBF208ECF208EDF208EEF278B5792CE2F3803D78B5E2FE900606F07880
:203D3800B5EEF208E4F208F208F2802878B5E2F5F008E242F008E242F008E245F024FF925C
:203D58002350047E0180027E0078B5EEF208E4F208F208F2EF75F004A42495F5827405359C
:203D7800F0F58378B5E2F008E2A3F008E2A3F008E2A3F0D322AF82BF11004007900000E49C
:203D9800F5F022EF75F004A42495F582740535F0F583E0FCA3E0FDA3E0FEA3E08C828D8344
:203DB8008EF02285824E85834F9005F9E0FCA3E0FD9005FBE0FB8C018D028B007F00E82C10
:203DD800F8EF3DFFC3E998EA9F5041E9C39CFEEA9DFFEE254EFEEF354FFF89828A83C007CE
:203DF800C006C005C004C003C002C001123B16A882D001D002D003D004D005D006D0078E2F
:203E1800828F83E8F009B900B10A80AE854E08854F098B82C002C00112052FAE82AF83D0B3
:203E380001D002740129FCE43AFD8C828D83C007C006C002C001123B16AD82D001D0028DF2
:203E5800047D0089828A83C005C004123B16AB82D004D005D006D0077A00EB4205EA420466
:203E7800EEB50506EFB504028002C322D3228582508583519005FCE0FCA3E0FD9005FEE066
:203E9800FB8C528D538B027F00EA2CFAEF3DFFC3E5529AE5539F5036E552C39CFEE5539DB0
:203EB800FFEE2550F582EF3551F58378B4E0F2855282855383C005C004C003123B40D003C6
:203ED800D004D0050552E4B552BB055380B78550088551098B8212052FAE82AF838E04781A
:203EF800B4ECF2855282855383C007C006123B40D006D00774012552FCE43553FD78B4EF31
:203F1800F28C828D83023B40D310AF01C3C0D0124064900000123B16E582FF24BB4005BF24
:203F380030005004C30240009005F97401F0E4A3F09005FBEFF0900595123DBB400302404E
:203F580000758200123D8DAC82AD83AEF0FFBC1A0BBD0008BE0005BF00028004C3024000C8
:203F78007F00EF75F004A42495FD740535F0FE8D828E83E0F54AA3E0F54BA3E0F54CA3E013
:203F9800F54D8F82C007C006C005123B78D005D006D0074032EF75F007A42459FB747B3510
:203FB800F0FC8B828C83A3A3A3E493F9A3E493FAA3E493FBA3E493FC8D828E83E9F0EAA3C3
:203FD800F0EBA3F0ECA3F00FBF440040959005F97481F07401A3F09005FB7420F09005D9F8
:203FF800123DBB40028001D333D0D092AF1322D310AF01C3C0D0900595741AF0E4A3F0A318
:20401800F0A3F0123AEC78B47444F2900000123B409005FC7401F0E4A3F09005FE7444F032
:20403800900595123E8678B47420F2900180123B409005FC7481F07401A3F09005FE742073
:20405800F09005D9123E86D0D092AF227F00EF75F004A42495FD740535F0FEEF75F007A445
:204078002459FB747B35F0FC8B828C83A3A3A3E493F9A3E493FAA3E493FBA3E493FC8D82DD
:204098008E83E9F0EAA3F0EBA3F0ECA3F00FBF110040BB22AF827E008F037C007D40EE75CB
:2040B800F007A42459F582747B35F0F583E493F8A3E493F9A3E493FA900751E8F0E9A3F0FB
:2040D800EAA3F08B828C838DF0C007C006126E3CE5828583F0D006D00745F060060EBE11E5
:2040F8000040B58E8222AF82BF11005021EF75F007A42459F582747B35F0F583E493FDA379
:20411800E493FEA3E493FF8D828E838FF02290000075F00022AC82AD83AEF0FF78B9C3E250
:20413800F5F0EC95F008E2F5F0ED95F008E2F5F0EE95F008E2F5F0EF95F0500D78B9E2FCDF
:2041580008E2FD08E2FE08E2FF78BDC3E29C08E29D08E29E08E29F500D78BDE2FC08E2FD2A
:2041780008E2FE08E2FF8C828D838EF0EF22AF82BF3000400DEF24C640088F06EE24D0F5AF
:204198008222BF4100400DEF24B940088F0674C92EF58222BF6100400BEF2499400674A9EF
:2041B8002FF5822275820022AF83E582900601F0EFA3F0900601E0FEA3E0FF9005FFE0F504
:2041D80054A3E0F55578C2E4F278C279C1C3E3F5F0E295F0506878C2E275F002A4FAABF0BC
:2041F8002EF582EB3FF583E0F582C007C006C003C002124186AD82D002D003D006D007EDB0
:20421800C454F0FD0ABA00010BEA2EF582EB3FF583E0F582C007C006C005124186AC82D000
:2042380005D006D007EC2DFD78C2E22554F582E43555F583EDF078C2E22401F2808B22AFC0
:20425800829006037462F07E00C3EE9F5033EE24D9FCE43405FD7B009007447403F07406DC
:20427800A3F0E4A3F090074704F0E4A3F08C828D838BF0C007C006126D31D006D0070E80C2
:20429800C822AF83E582900604F0EFA3F0758210123D8DAC8253040F0CECC40354F8FF9066
:2042B8000604E0FDA3E0FE8D028E037C008A828B838CF0C007C006C0051273B1AB82D005C2
:2042D800D006D007EF75F002A4FAACF08B56755700C3E5569AE55764808CF063F08095F050
:2042F800502C8F82C004C002124257D002D004C002C004C056C05774D0C0E0747BC0E074A8
:2043180080C0E0121250E58124F9F581D3228F037C00C007C006C005C003C00474F4C0E014
:20433800747BC0E07480C0E0121250E58124FBF581D005D006D0079005FF74D9F07405A364
:20435800F078C1EFF28D828E831241C0D322758210123D8DAC8253040F7D000CECC403540C
:20437800F8FF7E00C3EE9F505FEE24D9F582E43405F583E0FD24F0401DC007C0067400C0AB
:20439800E0747CC0E07480C0E0121250158115811581D006D007EE24D9F582E43405F58327
:2043B800E0FD7C00C007C006C005C0047402C0E0747CC0E07480C0E0121250E58124FBF54E
:2043D80081D006D0070E809C7405C0E0747CC0E07480C0E012125015811581158122900543
:0243F800D922C8
:207B5900077C801A0000000E7C80390000001B7C8040000000257C80190000002B7C8014E0
:207B7900000000337C8000000000377C80010000003F7C8000000000497C800000000052B7
:207B99007C80000000005B7C8000000000687C8064000000737C80000000007C7C800000CA
:207BB9000000877C80000000008E7C8083000000997C80000000004552524F52202D204B45
:207BD9006579206C656E6774683A25752C2052657175697265642025750A006B6579206C12
:207BF900656E2025640A0030002578000A00464F524D41540053455249414C5F53504545FA
:207C190044004149525F5350454544004E45544944005458504F57455200454343004D4155
:207C3900564C494E4B004F5050524553454E44004D494E5F46524551004D41585F46524564
:207C590051004E554D5F4348414E4E454C5300445554595F4359434C45004C42545F525324
:207C79005349004D414E4348455354455200525453435453004D41585F57494E444F570065
:117C9900454E4352595054494F4E5F4C4556454C00F8
:060400000204A902399F6D
:01040B0032BE
:0104130032B6
:01041B0032AE
:03042300024E3D49
:03042B000259E88B
:010433003296
:01043B00328E
:010443003286
:01044B00327E
:010453003276
:01045B00326E
:010463003266
:01046B00325E
:0304730002595ECD
:01047B00324E
:010483003246
:01048B00323E
:010493003236
:01049B00322E
:0304A300025F0EE7
:03052C000204A620
:0304A6000243FA14
:2043FA00758433AFC478C3EFF2AFC378C4EFF2123F204003124064758206123D8DAC829058
:20441A000606ECF0758205123D8DAC82AD83AEF0FFEC4D4E4F24FF922275820E123D8DAC8D
:20443A0082AD83AEF0FFEC4D4E4F24FF92231244C912455A123094401574C5C0E0747CC0E1
:20445A00E07480C0E012448F158115811581758210123D8DAC828C82125F90401574DFC09F
:20447A00E0747CC0E07480C0E012448F158115811581021BE0907CF875F080127298E5810F
:20449A0024FCFFC007E58124FBF886820886830886F0120FAD1581907D0375F08012729893
:2044BA00D2AFD2AC9003E81259DF43EF1080FEAFD974BF5FF5D943B28075B64075A9007503
:2044DA00FF807E5E7F011EBEFF011FEE4F70F775EF0675D4CF75D5FF75D62875A41075A7C5
:2044FA000F75A41075A70075E10143E24143A6FD75A70F43A5F575A6FD43B1C043A1C075BE
:20451A00A70275A14075F80075A20043F801D2A375A700C289125A8E758201123D8DAC82EA
:20453A008C8212500875B800D2AFC2B7C2B6D2EF75BCF975BA0075BB1B75D10775E34022DE
:20455A001230D340157404C0E0747DC0E07480C0E012448F15811581158178C3E2B44302DD
:20457A00801C78C3E2B44702804478C3E2B48602806C78C3E2B4910302462602465590065C
:20459A00077490F074D1A3F074CFA3F07419A3F090060B7470F0745EA3F074EAA3F07419E0
:2045BA00A3F0900613740AF07813F202468D9006077480F074A1A3F07403A3F0741CA3F08F
:2045DA0090060B74C0F074E3A3F07412A3F0741CA3F0900613740AF07813F202468D9006D7
:2045FA0007E4F074A1A3F074BCA3F07433A3F090060B7480F07425A3F074DBA3F07433A344
:20461A00F0900613740AF07813F2806790060774C0F074CAA3F07489A3F07436A3F0900620
:20463A000BE4F07428A3F023A3F07437A3F09006137414F078137432F28038900607E4F0F1
:20465A00A3F0A3F0A3F090060BF0A3F0A3F0A3F0900613F078C3E2FE7F00C006C007741CED
:20467A00C0E0747DC0E07480C0E012448FE58124FBF58175820A123D8DAC82AD83AEF0FFA3
:20469A00EC4D4E4F601175820A123D8DAC82AD83AEF0FF7813ECF2758208123D8DAC82ADC2
:2046BA0083AEF0FFEC4D4E4F6039758208123D8DAC82AD83AEF0FF900757ECF0EDA3F0EE43
:2046DA00A3F0EFA3F09003E8E4F5F0126ED0AC82AD83AEF0FF900607ECF0EDA3F0EEA3F0A2
:2046FA00EFA3F0758209123D8DAC82AD83AEF0FFEC4D4E4F6039758209123D8DAC82AD839E
:20471A00AEF0FF900757ECF0EDA3F0EEA3F0EFA3F09003E8E4F5F0126ED0AC82AD83AEF005
:20473A00FF90060BECF0EDA3F0EEA3F0EFA3F0758204123D8DAC82AD83AEF0FFEC4D4E4FB8
:20475A006012758204123D8DAC82AD83AEF0FF900613ECF0900613E0FF7E007D007C0078FF
:20477A00B9E4F208F208F208F278BD7414F208E4F208F208F28F828E838DF0EC12412DAC6A
:20479A00827813E2FB7D007E007F0078B97401F208E4F208F208F278BD7432F208E4F2087E
:2047BA00F208F28B828D838EF0EFC00412412DAB82AD83AEF0FFD0047813EBF278C3E2B41E
:2047DA004302801E78C3E2B4470302489F78C3E2B4860302494478C3E2B491030249E90254
:2047FA004A8B900607E0FBA3E0FDA3E0FEA3E0FF78B97480F2087423F20874ADF208741878
:20481A00F278BDE4F208740BF208746BF208741BF28B828D838EF0EFC00412412DAB82ADFE
:20483A0083AEF0FF900607EBF0EDA3F0EEA3F0EFA3F090060BE0FBA3E0FDA3E0FEA3E0FF44
:20485A0078B97480F2087423F20874ADF2087418F278BDE4F208740BF208746BF208741B01
:20487A00F28B828D838EF0EF12412DAB82AD83AEF0FFD00490060BEBF0EDA3F0EEA3F0EFE8
:20489A00A3F0024AAE900607E0FBA3E0FDA3E0FEA3E0FF78B97480F2087474F20874D2F23D
:2048BA0008741AF278BD7480F20874CEF2087434F208741DF28B828D838EF0EFC004124131
:2048DA002DAB82AD83AEF0FF900607EBF0EDA3F0EEA3F0EFA3F090060BE0FBA3E0FDA3E01D
:2048FA00FEA3E0FF78B97480F2087474F20874D2F208741AF278BD7480F20874CEF208748A
:20491A0034F208741DF28B828D838EF0EF12412DAB82AD83AEF0FFD00490060BEBF0EDA3E8
:20493A00F0EEA3F0EFA3F0024AAE900607E0FBA3E0FDA3E0FEA3E0FF78B97440F20874B66C
:20495A00F208749AF2087432F278BD7440F2087410F20874FDF2087434F28B828D838EF0A2
:20497A00EFC00412412DAB82AD83AEF0FF900607EBF0EDA3F0EEA3F0EFA3F090060BE0FB79
:20499A00A3E0FDA3E0FEA3E0FF78B97440F20874B6F208749AF2087432F278BD7440F208F4
:2049BA007410F20874FDF2087434F28B828D838EF0EF12412DAB82AD83AEF0FFD0049006EC
:2049DA000BEBF0EDA3F0EEA3F0EFA3F0024AAE900607E0FBA3E0FDA3E0FEA3E0FF78B9E44A
:2049FA00F20874A1F20874BCF2087433F278BD74C0F20874F7F20874BAF2087437F28B8237
:204A1A008D838EF0EFC00412412DAB82AD83AEF0FF900607EBF0EDA3F0EEA3F0EFA3F09036
:204A3A00060BE0FBA3E0FDA3E0FEA3E0FF78B9E4F20874A1F20874BCF2087433F278BD7463
:204A5A00C0F20874F7F20874BAF2087437F28B828D838EF0EF12412DAB82AD83AEF0FFD084
:204A7A000490060BEBF0EDA3F0EEA3F0EFA3F0802378C3E2FE7F00C004C006C007741CC03B
:204A9A00E0747DC0E07480C0E012448FE58124FBF581D00490060BE0FBA3E0FDA3E0FEA323
:204ABA00E0FF900607E0F558A3E0F559A3E0F55AA3E0F55BEBB55825EDB55921EEB55A1D6A
:204ADA00EFB55B1990060B74402558F074423559A3F0740F355AA3F0E4355BA3F075820B5D
:204AFA00C004123D8DAB827824EBF27F007E007D0078B9E4F208F208F208F278BD7464F2E8
:204B1A0008E4F208F208F28B828F838EF0ED12412DAB827824EBF278B5EBF208E4F208F217
:204B3A0008F275820B123C2975820C123D8DAB82AD83AEF0FFD004782CEBF2EB60377F00B9
:204B5A007E007D0078B97419F208E4F208F208F278BD74DCF208E4F208F208F28B828F8356
:204B7A008EF0EDC00412412DAB82AD83AEF0FFD004782CEBF2C004782C79B5E2F309E4F3D2
:204B9A0009F309F375820CC004123C2990073574E8F07403A3F0E4A3F0A3F085588285595C
:204BBA0083855AF0E55B126BCBAB82AD83AEF0FF78B5EBF208EDF208EEF208EFF275820846
:204BDA00123C29D00490060BE0F55CA3E0F55DA3E0F55EA3E0F55F90073574E8F07403A3EA
:204BFA00F0E4A3F0A3F0855C82855D83855EF0E55F126BCBAA82AC83AEF0FF78B5EAF20871
:204C1A00ECF208EEF208EFF2758209C004123C29781379B5E2F309E4F309F309F375820A29
:204C3A00123C29D004E55CC39558FCE55D9559FDE55E955AFEE55F955BFF7813E2FA7B00B0
:204C5A0074022AFAE43BFB900735EAF0EBA3F0EB3395E0A3F0A3F08C828D838EF0EF126BA1
:204C7A00CBAC82AD83AEF0FF90060FECF0EDA3F0EEA3F0EFA3F0EFC313FFEE13FEED13FD90
:204C9A00EC139006072558F0ED3559A3F0EE355AA3F0EF355BA3F0758203123D8DAC82C0FD
:204CBA0004126B7CD0047813C3E2F5F0740595F0D0044003024D5BC004C004126B22AE82DE
:204CDA00AF8390074FEEF0EFA3F0900271126E1CAE82AF83D0048E5CEFF55D3395E0F55E47
:204CFA00F55F90060FE0FAA3E0FCA3E0FEA3E0FF9006F9EAF0ECA3F0EEA3F0EFA3F0855C79
:204D1A0082855D83855EF0E55FC00412678B85825C85835D85F05EF55FD004900607E0FA79
:204D3A00A3E0FBA3E0FEA3E0FF900607E55C2AF0E55D3BA3F0E55E3EA3F0E55F3FA3F0D0D6
:204D5A0004900607E0FBA3E0FDA3E0FEA3E08B828D838EF0C00412310AD00490060FE0FB39
:204D7A00A3E0FDA3E0FEA3E08B828D838EF0C004123146758203123D8DAB82AD83AEF0FFDD
:204D9A0078139006F9E2F0E4A3F0A3F0A3F08B828D838EF0EF12678B123195758202123DC2
:204DBA008D1231BCD0044037758202C004123D8D1231BCD0044028758202C004123D8D1283
:204DDA0031BCD0044019C0047433C0E0747DC0E07480C0E012448F158115811581D004C034
:204DFA0004122E22AF8278B5EFF208E4F208F208F2758202123C29758203123D8D1234DCBA
:204E1A00D0048C821234951234D6AF8278B5EFF208E4F208F208F2758204123C29121318DF
:034E3A000223212F
:207CAA005246442053694B20322E30206F6E205246443930305500322E30006661696C658F
:207CCA006420746F20656E61626C65207265636569766572006661696C656420746F206946
:207CEA006E697469616C69736520616573000A2A2A50414E49432A2A0000726164696F5FD4
:207D0A00696E697469616C697365206661696C65640062616420626F61726420667265718C
:207D2A0075656E637920256400726164696F5F636F6E666967757265206661696C656400B7
:12051A0078DB7490F2087401F278DD74F4F2087401F2F9
:204E3D00C027C0E0C0F0C082C083C007C006C005C004C003C002C001C000C0D075D0001098
:204E5D009803024F52AF9930180E301903024F528F821226C4024F528F82C00712275AD07F
:204E7D000778DFE22401FD08E23400FEBD0009BE04067D007E00800B78DFE22401FD08E23E
:204E9D003400FE78E1E2B5050708E2B50602803A78DFE22477F58208E23407F583EFF07827
:204EBD00DFE22401FD08E23400FEBD0009BE04067D007E00800B78DFE22401FD08E2340049
:204EDD00FE78DFEDF208EEF2801B78CBE2FD08E2FEBDFF05BEFF02800C0DBD00010E78CBCC
:204EFD00EDF208EEF278DF79E1C3E3F5F0E295F009E3F5F008E295F0401B78E1E22400FD34
:204F1D0008E23404FE78DFD3E29DF4B3FDB308E29EF4FE801578E179DFE3F5F0C3E295F0A2
:204F3D00FD09E3F5F008E295F0FEC3ED9411EE94005002D282109903024FCF78E379E5E235
:204F5D00F5F0E3B5F00B08E2F5F009E3B5F002805F302320308317201814900614E0FEE08A
:204F7D007004D224804CEE14900614F080069006147408F078E5E22477F58208E2340BF537
:204F9D0083E0FF78E5E22401FD08E23400FEBD0009BE04067D007E00800B78E5E22401FDA0
:204FBD0008E23400FE78E5EDF208EEF28F998002D224D0D0D000D001D002D003D004D00565
:204FDD00D006D007D083D082D0F0D0E0D0273278E379E5E2F5F0E3B5F00A08E2F5F009E3FC
:204FFD00B5F001223024030254A622AF82C2AC78DFE4F208F278E1F208F278E3F208F2788D
:20501D00E5F208F278E7F208F278E9F208F2D224C28EAE89740F5E4420F5898F821257F35D
:20503D00D28E759810C282D2AC22AF82C007125452AD82AE83D007C3ED9401EE94005002F2
:20505D00C3228F82125066D322AF82A2AC9238C2AC78E3E22401FD08E23400FEBD0009BECA
:20507D0004067D007E00800B78E3E22401FD08E23400FE78E5E2B5050708E2B5060280449D
:20509D0078E3E22477F58208E2340BF583EFF078E3E22401FE08E23400FFBE0009BF040617
:2050BD007E007F00800B78E3E22401FE08E23400FF78E3EEF208EFF2302424C0271254A63F
:2050DD00D027801B78C9E2FE08E2FFBEFF05BFFF02800C0EBE00010F78C9EEF208EFF2A281
:2050FD003892AC2278E779E9E2F5F0E3B5F00C08E2F5F009E3B5F0030251FE125F25E5822E
:20511D0070030251FE78E9E22477FE08E2340FFF8E828F83E07011D22510AF02C22578E923
:20513D00E4F208F2A22592AF78E9E22401FE08E23400FFEE2477FEEF340FFF78E9E2247761
:20515D00F58208E2340FF583E09006D8F09006D97415F07406A3F09006DB74EBF07400A30C
:20517D00F07460A3F08E828F8312627AE5826015744AC0E0747DC0E07480C0E012448F1552
:20519D00811581158178EB79EDE2F390061512531A78E9E22477F58208E2340FF583E0FFA4
:2051BD0078EBF278E9E22477F58208E2340FF583E4F0D22510AF02C2257E000FBF00010EB5
:2051DD0078E9E22FF208E23EF278E9C3E294FC08E29403400678E9E4F208F2A22592AFD3CB
:2051FD0022C322AF83E582900635F0EFA3F0125F25E582700302530578E7E22401FE08E29D
:20521D003400FF74FCC39EFE74039FFF78ECE2FC7D00C3EE9CEF9D500678E7E4F208F2C07D
:20523D0005C004125914AE82AF83D004D005C3EE9CEF9D501B78C9E2FE08E2FFBEFF04BF30
:20525D00FF01220EBE00010F78C9EEF208EFF22278E7E22477F58208E2340FF58378ECE2C9
:20527D00F078E7E22401FE08E23400FFEE2477FEEF340FFF8E608F61756200900635E0FA8E
:20529D00A3E0FF900744EAF0EFA3F0E4A3F0900747ECF0EDA3F08560828561838562F012CE
:2052BD006D31D22610AF02C22678ECE2FE7F000EBE00010F78E7E22EF208E23FF278E7C355
:2052DD00E294FC08E29403400B78E7E22404F208E234FCF2A22692AF78E7E22477F58208A8
:2052FD00E2340FF583E4F022900635E0FEA3E0FF78EC79EDE2F38E828F8302531AAF83E58C
:20531D0082900637F0EFA3F078EDE2700122125452AE82AF8378EDE2FC7D00C3EE9CEF9D22
:20533D00501F78EDEEF278C9E2FE08E2FFBEFF05BFFF02800C0EBE00010F78C9EEF208EF90
:20535D00F278EDE2FF78E3D3E29400F4B3FDB308E29404F4FE8F037C00C3ED9BEE9C50084E
:20537D0078E3E2FEC3E49EFF78E3E22477FD08E2340BFE7C00900637E0FAA3E0FB90074419
:20539D00EAF0EBA3F0E4A3F0900747EFF0E4A3F08D828E838CF0C007C003C002126D31D085
:2053BD0002D003D007900637EF2AF0E43BA3F078EDE2C39FF2D22710AF02C2277E0078E385
:2053DD00E22FF208E23EF278E3C308E29404400678E4E224FCF2A22792AF78EDE2604490D8
:2053FD000637E0FEA3E0FF900744EEF0EFA3F0E4A3F078EDE2FE7F00900747EEF0EFA3F03F
:20541D00900B7775F000C007C006126D31D006D007D22710AF02C22778E3EEF208EFF2A2A5
:20543D002792AFD22710AF02C2273024031254A6A22792AF22A2AC9228C2AC78E379E5C3C3
:20545D00E3F5F0E295F009E3F5F008E295F0401B78E5E22400FE08E23404FF78E3D3E29E35
:20547D00F4B3FEB308E29FF4FF801578E579E3E3F5F0C3E295F0FE09E3F5F008E295F0FFBE
:20549D00A22892AC8E828F832230230730830420180122C224D29922A2AC9229C2AC78DFF6
:2054BD0079E1E2F5F0E3B5F00B08E2F5F009E3B5F002803A78E1E22477F58208E23407F598
:2054DD0083E0FF78E1E22401FD08E23400FEBD0009BE04067D007E00800B78E1E22401FD63
:2054FD0008E23400FE78E1EDF208EEF280027F0078DF79E1C3E3F5F0E295F009E3F5F008D6
:20551D00E295F0401B78E1E22400FD08E23404FE78DFD3E29DF4B3FDB308E29EF4FE801521
:20553D0078E179DFE3F5F0C3E295F0FD09E3F5F008E295F0FEC374229DE49E5002C282A2C0
:20555D002992AC8F8222A2AC922AC2AC78E1E22477F58208E23407F583E0FFA22A92AC8FBA
:20557D008222AF83E582900639F0EFA3F0A2AC922BC2AC900639E0FEA3E0FF78E1E22EFE81
:20559D0008E23FFF530703EE2477F582EF3407F583E0FFA22B92AC8F8222AF83E58290067B
:2055BD003BF0EFA3F012572AAE82AF8378EEE2FC7D00C3EE9CEF9D5002C3228C038D0278C5
:2055DD00E1D3E29400F4B3FCB308E29404F4FDC3EC9BED9A501078E1D3E29400F4B3FBB393
:2055FD0008E29404F4FA90063BE0FCA3E0FD8C638D6475650078E1E22477FE08E23407FF3F
:20561D00900744EEF0EFA3F0E4A3F0900747EBF0EAA3F08563828564838565F0C005C0044C
:20563D00C003C002126D31D002D003D004D0058B0678EEE2C39EF290063BEB2CF0EA3DA3FC
:20565D00F0D22C10AF02C22C78E1E22BF208E23AF278E1C308E29404400678E2E224FCF2F0
:20567D00A22C92AF78EEE2604890063BE0FEA3E0FF7D009007447477F07407A3F0E4A3F025
:20569D0078EEE2FB7C00900747EBF0ECA3F08E828F838DF0C004C003126D31D003D004D2A7
:2056BD002C10AF02C22C78E1EBF208ECF2A22C92AFD22C10AF02C22C78DF79E1C3E3F5F0DE
:2056DD00E295F009E3F5F008E295F0401B78E1E22400FE08E23404FF78DFD3E29EF4B3FEDE
:2056FD00B308E29FF4FF801578E179DFE3F5F0C3E295F0FE09E3F5F008E295F0FFC3742290
:20571D009EE49F5002C282A22C92AFD322A2AC922DC2AC78DF79E1C3E3F5F0E295F009E3A7
:20573D00F5F008E295F0401778DF79E1E3F5F0C3E295F0FE09E3F5F008E295F0FF801978B0
:20575D00E1D3E29400F4B3FCB308E29404F4FD78DFE22CFE08E23DFFA22D92AC8E828F8381
:20577D002212572AAE82AF83E4C39EFE74049FC423CEC423541F6ECE541FCE6ECEFF90073D
:20579D004FEEF0EFA3F0900064126E1CAE82E583A2E7CE33CE33CE54018E8222AF82BF0A3B
:2057BD000A75820DC007125066D0078F82025066AF827E00BE0900501BEE75F003A4246D23
:2057DD00F582747D35F0F583E493FDEFB50502D3220E80E0C322AF827E00BE0900501BEE71
:2057FD0075F003A4246DF582747D35F0F583E493FDEFB5050280030E80E090063DEEF0BE6B
:20581D00090690063D7406F090063DE075F003A4246DFD747D35F0FE8D828E83A3E493F58F
:20583D008DAC8E5304F48D828E83A3A3E4934CF58E900757EFF0E4A3F0A3F0A3F090007D16
:20585D00E4F5F0126ED0020E2C78E779E9C3E3F5F0E295F009E3F5F008E295F0401B78E927
:20587D00E224FCFE08E23403FF78E7D3E29EF4B3FEB308E29FF4FF801578E979E7E3F5F047
:20589D00C3E295F0FE09E3F5F008E295F0FF78DBC3E2F5F0EE95F008E2F5F0EF95F050029F
:2058BD00D322C32278E779E9C3E3F5F0E295F009E3F5F008E295F0401B78E9E224FCFE083A
:2058DD00E23403FF78E7D3E29EF4B3FEB308E29FF4FF801578E979E7E3F5F0C3E295F0FEC7
:2058FD0009E3F5F008E295F0FF78DDC3E29E08E29F5002D322C32278E779E9C3E3F5F0E2D1
:20591D0095F009E3F5F008E295F0401B78E9E224FCFE08E23403FF78E7D3E29EF4B3FEB3BF
:20593D0008E29FF4FF801578E979E7E3F5F0C3E295F0FE09E3F5F008E295F0FF8E828F8327
:01595D002227
:207D4A006572726F72207768696C6520747279696E6720746F2064656372797074206461F6
:1E7D6A00746100012C02029602042C0009960013600126B001392B08739608E6CB080D
:207DA8000000000000000000000000000000000000000000000000000000000000000000BB
:207DC80000000000000000000000000000000000000000000000000000000000000000009B
:207DE80000000000000000000000000000000000000000000000000000000000000000007B
:207E080000000000000000000000000000000000000000000000000000000000000000005A
:20595E00C027C0E0C0F0C082C083C007C006C005C004C003C002C001C000C0D075D0007507
:20597E0091041227A7E56660021566D0D0D000D001D002D003D004D005D006D007D083D00D
:20599E0082D0F0D0E0D02732AE82AF83C3EE94F6EF940940047566FF2274092EFEE43FFF9A
:2059BE009006F3740AF0E4A3F08E828F831266F1AE828E662285826622E566B40100922E3B
:2059DE00221259A61259D750FB22C027C0E0C0F0C082C083C007C006C005C004C003C00270
:2059FE00C001C000C0D075D00075C80474012567F567E43568F568302303124FECD0D0D0A4
:205A1E0000D001D002D003D004D005D006D007D083D082D0F0D0E0D02732AFCDAECCEFB5C4
:205A3E00CDF88F05E4FFFCEE4207EC42058F828D8322AE67AF68C007C006125A38AC82AD2B
:205A5E0083D006D007EEB567E9EFB568E5EEC40354F8FF7E00EDC403CCC40354076CCC5468
:205A7E0007CC6CCCFDEC4206ED42078E828F83227592407593B075910443E68075CA0075EC
:0C5A9E00CB0075C804D2AD2285CC82225A
:205AAA00E582900646F0E0FFBF03028005BF070040047582012274035F2402C40354F8FE50
:205ACA00900644E0FCA3E0C454F0CCC4CC6CCC54F0CC6CFD900647ECF0EDA3F075A70275A2
:205AEA00E90075EA00ADD274A75DF5D275D10375C90575D601900642E0FCA3E0FD900649AB
:205B0A00ECF0EDA3F0900649E0F5CA90064AE0F5CB75CF008ECEE4F5CCF5CDEF30E2129077
:205B2A00063EE0FDA3E0FE900649EDF0EEA3F08010900640E0FDA3E0FE900649EDF0EEA36B
:205B4A00F075D10475C90675D600900649E0F5CA90064AE0F5CB900647E0F5CE900648E036
:205B6A00F5CFE4F5CCF5CDEF30E212900640E0FDA3E0FE900649EDF0EEA3F0801090063E08
:205B8A00E0FDA3E0FE900649EDF0EEA3F075D10675C98875D600900649E0F5CA90064AE0C5
:205BAA00F5CB900647E0F5CE900648E0F5CF75CD0075CC00AED374A75EF5D343D25875EA08
:205BCA00008FE943E90843E720E5D330E6FB75E90075EA00AFD274A75FF5D2AFD374A75F81
:065BEA00F5D375820022D4
:205BF000AF83E58290064EF0EFA3F090064DE0FFBF030040047582012274022FC40354F80C
:205C1000FE75A70275E90075EA00ADD274A75DF5D275D10375C90575D60090064EE0FCA3A3
:205C3000E0FD900650ECF0EDA3F0900650E0F5CA900651E0F5CB75CF008ECE75CC0075CD06
:205C50000075D10475C90675D60075CA0075CB0075CF0075CE1075CC0075CD0075D1067501
:205C7000C98875D60090064BE0FCA3E0FD900650ECF0EDA3F0900650E0F5CA900651E0F5B8
:205C9000CB75CF008ECE75CD00EF600575CC10800375CC00AED374A75EF5D343D25875EA50
:205CB000048FE943E90443E90843E720E5D330E6FBEF6022AFD274A75FF5D275D10675CC21
:205CD0000075CE10AFD374875FF5D343D24043E720E5D330E6FB75E90075EA00AFD274A7FC
:0E5CF0005FF5D2AFD374A75FF5D375820022A3
:205CFE00E58290065CF0E0FFBF03028005BF070040047582012274035F2402C40354F8FEE4
:205D1E0090065AE0FCA3E0FD8C02C454F0CAC4CA6ACA54F0CA6AFB90065DEAF0EBA3F01C1D
:205D3E00BCFF011D90065AECF0EDA3F075A70275E90075EA00ADD274875DF5D275D10375E9
:205D5E00C90575D600900658E0FCA3E0FD90065FECF0EDA3F090065FE0F5CA900660E0F512
:205D7E00CB75CF008ECEE4F5CCF5CDEF30E212900652E0FDA3E0FE90065FEDF0EEA3F08007
:205D9E0010900654E0FDA3E0FE90065FEDF0EEA3F075D10475C90675D60090065FE0F5CACD
:205DBE00900660E0F5CB75CE1075CF0075CC0075CD0075D10575C90775D600900656E0FD71
:205DDE00A3E0FE90065FEDF0EEA3F090065FE0F5CA900660E0F5CB75CE10E4F5CFF5CCF5F6
:205DFE00CDEF30E212900654E0FDA3E0FE90065FEDF0EEA3F08010900652E0FDA3E0FE90A4
:205E1E00065FEDF0EEA3F075D10675C98875D60090065FE0F5CA900660E0F5CB75CE107552
:205E3E00CF0075CD0075CC00AED374875EF5D343D278EF30E20575EA01800375EA028FE901
:205E5E0043E90843E720E5D330E6FB90065AE0F5F0A3E045F07003025EF6AFE974F75FF550
:205E7E00E9AFD274875FF5D275D10375D60175CC0075CD0075D10490065DE0F5CE90065E8D
:205E9E00E0F5CF75D105900654E0FEA3E0FF90065FEEF0EFA3F090065FE0F5CA900660E0EC
:205EBE00F5CB90065DE0F5CE90065EE0F5CF75CC0075CD0075D10690065DE0F5CE90065E7D
:205EDE00E0F5CFAFD374875FF5D343D27843E90843E720E5D330E6FB75E90075EA00AFD24A
:105EFE0074875FF5D2AFD374875FF5D375820022B6
:205F0E00C0E0C007C0D075D000AFE774DF5FF5E7D0D0D007D0E0329006C3E0F58222E58281
:205F2E009006C4F0E09006C3F0221243F6E5828583F0900661F0E5F0A3F022AF83E582907A
:205F4E0006C7F0EFA3F09006C5E0FEA3E0FF9006C7E0FCA3E0FD7B108E828F83E493FAA3BF
:205F6E00AE82AF838C828D83EAF0A3AC82AD839006C7ECF0EDA3F0DBDF9006C7ECF0EDA37C
:205F8E00F022E5829006C9F0758200125F2C9006C9E0FF740F5FFE7002D3221EC007C00667
:205FAE00125F38D006900661E0FCA3E0FD90064B7463F07406A3F090064DEEF08C828D836D
:205FCE00125BF0E582D0076002C322EFC4540FFE53060FBE00028005BE0118802A9006C534
:205FEE007498F0747DA3F0900683C007125F49D00780149006C57498F0747DA3F09006831A
:20600E00C007125F49D0078F82125F2CD322AF83E5829006CBF0EFA3F09006CBE0FEA3E049
:20602E00FF7D009006CAE0FCFA7B00900744EEF0EFA3F0EDA3F0900747EAF0EBA3F090069E
:20604E00A375F000C004126D31D004740F5C9006CDD39410F4F07F009006CDE0FEC3EF9E35
:20606E005034EF2C24A3FDE43406FE7B0090074474CDF07406A3F0E4A3F090074704F0E4D2
:20608E00A3F08D828E838BF0C007C004126D31D004D0070F80C29006A322AF83E582900603
:2060AE00D4F0EFA3F09006CEE0FF7003F58222C007125F25AE82D007740F5EFDBD010280BB
:2060CE000ABD0202800DBD031A80109006D67404F080169006D67405F0800E9006D674063D
:2060EE00F080069006D67404F0EEC4540FFE53060F9006D4E0FCA3E0FD9006CAEFF08C82BA
:20610E008D83C007C00612601CAC82AD83D006D007EFC4540FFF0FBE00028008BE0102808E
:20612E005E0262039006D6E0F5699006CFE0FAA3E0FB900661E0F56AA3E0F56B8F017E00FE
:20614E00900652ECF0EDA3F0900654EAF0EBA3F09006567483F07406A3F0900658E56AF09E
:20616E00E56BA3F090065AE9F0EEA3F0856982C007125CFEE582D0079006D7F002625B9057
:20618E0006C57488F0747DA3F0900693C007C005C004125F49D004D005D0079006D6E0F5C2
:2061AE006A9006CFE0FAA3E0FB900661E0F56CA3E0F56D8F017E009006E2ECF0EDA3F0901B
:2061CE0006E4EAF0EBA3F09006E67493F07406A3F09006E8E56CF0E56DA3F09006EAE9F0F2
:2061EE00EEA3F0856A82C007126453E582D0079006D7F080589006D6E0F56C9006CFE0FAB0
:20620E00A3E0FB900661E0F56AA3E0F56B8F017E00900652ECF0EDA3F0900654EAF0EBA335
:20622E00F09006567483F07406A3F0900658E56AF0E56BA3F090065AE9F0EEA3F0856C82B3
:20624E00C007125CFEE582D0079006D7F09006D1E0FCA3E0FDA3E0FEEFC454F08C828D8309
:20626E008EF0126DD19006D7E0F58222AF83E5829006DEF0EFA3F09006D8E0FF7003F582A6
:20628E0022C007125F25AE82D007740F5EFDBD0102800ABD0202800CBD0319800F9006E017
:2062AE00E4F080159006E07401F0800D9006E07402F080059006E0E4F0EEC4540FFE5306E8
:2062CE000FEFC4540FFD9006DEE0FBA3E0FCBE00028008BE0102805A0263C2C0079006E079
:2062EE00E0FE9006D9E0F9A3E0FA8D007F00900652E9F0EAA3F0900654EBF0ECA3F09006C9
:20630E00567483F07406A3F09006587463F07406A3F090065AE8F0EFA3F08E82C007C0057D
:20632E00125CFEE582D005D0079006E1F0D007026416C0079006C57488F0747DA3F09006EE
:20634E0093C007C005C004C003125F49D003D004D005D0079006E0E0F56E9006D9E0F9A3D8
:20636E00E0FA900661E0F56FA3E0F5708D067F009006E2E9F0EAA3F09006E4EBF0ECA3F05E
:20638E009006E67493F07406A3F09006E8E56FF0E570A3F09006EAEEF0EFA3F0856E82C0B0
:2063AE0007C005126453E582D005D0079006E1F0D0078054C0079006E0E0FE9006D9E0F9B2
:2063CE00A3E0FA8D007F00900652E9F0EAA3F0900654EBF0ECA3F09006567483F07406A3B4
:2063EE00F09006587463F07406A3F090065AE8F0EFA3F08E82C007C005125CFEE582D0054F
:20640E00D0079006E1F0D0079006DBE0FBA3E0FCA3E0FEED75F010A424FFFAE5F034FFFDE5
:20642E009006D9E0F8A3E0F9EA28F582ED39F583E0FDEFC39D8B828C838EF0126DD19006B8
:05644E00E1E0F58222EF
:207D8800F0F1F2F3F4F5F6F7F8F9FAFBFCFDFEFF000102030405060708090A0B0C0D0E0FEB
